:020000040800F2
:1000000000400020C51B0008B1200008351C000876
:1000100000000000000000000000000000000000E0
:10002000000000000000000000000000B3200008F5
:100030000000000000000000B5200008B720000804
:10004000351C0008351C0008351C0008351C00084C
:10005000351C000885B40108351C000899B4010856
:10006000351C0008351C0008351C0008351C00082C
:10007000351C0008351C0008351C0008351C00081C
:10008000351C0008351C000800000000351C000865
:10009000351C0008351C0008351C0008351C0008FC
:1000A000351C0008351C0008351C0008351C0008EC
:1000B000C1A8010800000000351C0008371C00081A
:0400C00049020008E9
:1000C400BFF34F8F024A034BDA60BFF34F8FFEE753
:1000D4000400FA0500ED00E082B06B46DA1D00234F
:1000E40013701378032B03D813780133DBB2F7E7CB
:1000F40002B0704770B505000A4C0B4B1B892B42AC
:1001040001D001200DE0013CFFF7E6FF002CF4D103
:10011400FFF7E2FF90231022DB059A61FFF7DCFF73
:10012400200070BD214E0000003001400120074B2B
:10013400DA68024209D1DA680018D20605D4D86810
:1001440004231840421E9041181A704700200240B0
:1001540070B505000220FFF7CDFF002801D1002073
:100164000AE0064C01202570FFF7C4FF0028F6D0F2
:1001740002202378FFF7BEFF70BDC0460C3001405B
:1001840010B5B024FFF7D2FF2403012805D1002CB9
:1001940005D0FFF7CBFF013CF7E7002C00D1052089
:1001A40010BD9023F7B510220127DB050F701A85C7
:1001B40004000E00FFF790FF0320FFF7C9FF00289B
:1001C40001D100203AE0200CC0B2FFF7C1FF0028A3
:1001D400F7D0200AC0B2FFF7BBFF0028F1D0E0B28D
:1001E400FFF7B6FF0028ECD00024250001976B46EA
:1001F4001B79134F3370002301203B70FFF77AFF04
:100204000023984202D033703B78DBB23278002A64
:100214000BD122000832002C02D11D001400E6E7A5
:10022400A34014001D43202AE1D1FFF755FF90237A
:100234001022DB059A61FFF74FFF2800FEBDC04680
:100244000C300140F0B585B00093424B98427ED10A
:10025400414B99427BD102254027404CFFF790FF48
:10026400042872D13E4E33692B4333617461336980
:100274003B433361FFF784FF3369AB43336101963A
:10028400042862D180231B01E418364B9C42E5D13B
:1002940080252D0102ABDE1C0123032733703100BE
:1002A4002800FFF77EFF33780400002B05D0013FC0
:1002B400FFB2002FF3D1002411E0032731002800FE
:1002C400FFF76FFF3378002B04D1844207D001235A
:1002D400337004E0013FFFB2002FEFD1EBE7337836
:1002E400002B32D10393FFF74BFF04282DD10122B9
:1002F400019B1B4E1B691343019A136180231B0549
:10030400A2B2EB181A80FFF73BFF04280ED1164B5C
:10031400240CEB180393039B1C80FFF731FF01228D
:10032400336993433361042805D00EE00122336915
:100334009343336109E0009B0435013B0093002B98
:1003440003D080239B029D42A4D1FFF7B9FE05B0E0
:10035400F0BDC04675E3094B42F06A81000800080D
:0C03640000200240000002080200000817
:10080000054B0648033310B51B1A062B03D9044BBE
:10081000002B00D0984710BD340100203401002087
:10082000000000000648074910B5091A8910CB0FCF
:100830005918491003D0044B002B00D0984710BD25
:1008400034010020340100200000000010B5074CE6
:100850002378002B09D1FFF7D3FF054B002B02D0E3
:10086000044800E000BF0123237010BD34010020C4
:1008700000000000C8FD0108094B10B5002B03D093
:100880000849094800E000BF08480368002B02D16E
:10089000FFF7C8FF10BD064B002BF9D09847F7E7CC
:1008A0000000000038010020C8FD010834010020CC
:1008B0000000000002B4714649084900095C490083
:1008C0008E4402BC7047C046002243088B4274D35A
:1008D00003098B425FD3030A8B4244D3030B8B4241
:1008E00028D3030C8B420DD3FF22090212BA030C4A
:1008F0008B4202D31212090265D0030B8B4219D32B
:1009000000E0090AC30B8B4201D3CB03C01A52414A
:10091000830B8B4201D38B03C01A5241430B8B4292
:1009200001D34B03C01A5241030B8B4201D30B037B
:10093000C01A5241C30A8B4201D3CB02C01A5241A2
:10094000830A8B4201D38B02C01A5241430A8B4265
:1009500001D34B02C01A5241030A8B4201D30B024E
:10096000C01A5241CDD2C3098B4201D3CB01C01A68
:10097000524183098B4201D38B01C01A5241430972
:100980008B4201D34B01C01A524103098B4201D360
:100990000B01C01A5241C3088B4201D3CB00C01ACD
:1009A000524183088B4201D38B00C01A5241430845
:1009B0008B4201D34B00C01A5241411A00D201466A
:1009C000524110467047FFE701B5002000F0F0F8F3
:1009D00002BDC0460029F7D076E7704703460B43B7
:1009E0007FD4002243088B4274D303098B425FD328
:1009F000030A8B4244D3030B8B4228D3030C8B4254
:100A00000DD3FF22090212BA030C8B4202D3121239
:100A1000090265D0030B8B4219D300E0090AC30B0E
:100A20008B4201D3CB03C01A5241830B8B4201D3BB
:100A30008B03C01A5241430B8B4201D34B03C01AA4
:100A40005241030B8B4201D30B03C01A5241C30A1C
:100A50008B4201D3CB02C01A5241830A8B4201D38D
:100A60008B02C01A5241430A8B4201D34B02C01A77
:100A70005241030A8B4201D30B02C01A5241CDD21C
:100A8000C3098B4201D3CB01C01A524183098B4267
:100A900001D38B01C01A524143098B4201D34B0150
:100AA000C01A524103098B4201D30B01C01A5241B3
:100AB000C3088B4201D3CB00C01A524183088B423A
:100AC00001D38B00C01A524143088B4201D34B0023
:100AD000C01A5241411A00D2014652411046704795
:100AE0005DE0CA0F00D04942031000D3404253409A
:100AF00000229C4603098B422DD3030A8B4212D35A
:100B0000FC22890112BA030A8B420CD3890192118B
:100B10008B4208D3890192118B4204D389013AD0C8
:100B2000921100E08909C3098B4201D3CB01C01A9D
:100B3000524183098B4201D38B01C01A52414309B0
:100B40008B4201D34B01C01A524103098B4201D39E
:100B50000B01C01A5241C3088B4201D3CB00C01A0B
:100B6000524183088B4201D38B00C01A5241D9D223
:100B700043088B4201D34B00C01A5241411A00D2A4
:100B80000146634652415B10104601D34042002BA0
:100B900000D54942704763465B1000D3404201B51F
:100BA000002000F005F802BD0029F8D016E77047D4
:100BB0007047C0468446081C6146FFE71FB500F039
:100BC00073FB002801D40021C8421FBD10B500F0FE
:100BD000FFFA4042013010BD10B500F065FB00285F
:100BE00001DB002010BD012010BDC04610B500F093
:100BF0005BFB002801DD002010BD012010BDC046B8
:100C000010B500F00DFB002801DC002010BD012014
:100C100010BDC04610B500F003FB002801DA00202B
:100C200010BD012010BDC046F0B54F464646C0B4C9
:100C30001604360C9946330005042C0C070C150CD1
:100C400063437E436F4365431C0CAD1964199C4696
:100C5000A64203D980235B02984647446346250C8D
:100C6000EF191D044B464A4343432D0C24046419D9
:100C70009918C91920000CBC90469946F0BDC04691
:100C80009E2110B5C905041CFFF7C4FF002803D13D
:100C9000201C00F0E7FD10BD9E21201CC90500F0BE
:100CA0005BFC00F0DFFD80231B069C466044F2E7FE
:100CB000F8B54A02430244004E00C50F240E280036
:100CC0009B09360EC90F92098D4259D0A01B0028EE
:100CD00000DC8DE0002E1AD1002A00D079E05A07FE
:100CE00004D00F221A40042A00D004335A0138D508
:100CF0000134FF2C00D189E028009B015B0AE4B29B
:100D00005B02E4055B0A2343C0071843F8BDFF2CD0
:100D1000E5D08021C9040A431B2800DD89E01600C4
:100D20002021C640081A8240511E8A4132439B1A34
:100D30005A0114D59B019E09300000F01BFF0538B5
:100D40008640844265DC041B330020200134E340EC
:100D5000041BA640721E964100243343BFE75A0786
:100D6000BFD1DF082800FF2C2FD1002F00D187E052
:100D70008022D20313003B435B025B0AFF24BFE7E0
:100D8000A11B002949DD002E29D0FF2CA7D08026E9
:100D9000F60432431B2900DD8DE017002026CF40EA
:100DA000711A8A40511E8A413A439B185A01D6D57E
:100DB0000134FF2C64D0012276491A405B080B40B5
:100DC00013438CE7031ECAD100207B025B0AE4B206
:100DD00096E701380028AAD0FF2C9DD17FE7002A92
:100DE00000D17CE701390029DFD0FF2CD2D176E792
:100DF000002820D1601CC0B2012853DD80279E1A34
:100E0000FF0437402FD0D61A0D0095E728000023A5
:100E100076E7614B241A334061E700294DD1611C0C
:100E2000CEB2012E2FDDFF292AD09B185B080C00C3
:100E300055E701227BE7002C1BD1002B5BD0C04380
:100E400000280CD0FF2E7ED01B2800DD92E01D0074
:100E50002024C540201A8340581E83412B43D31AB7
:100E600034000D0064E7002E00D065E70020002468
:100E7000ABE7FF2E67D08024E40440422343E3E73E
:100E8000FF2400233CE7002C61D1002B7ED0002AF8
:100E900000D124E79B185A0100D460E73E4A0C00B9
:100EA00013401CE7002C1ED1002B2FD1002A66D046
:100EB00013000D0013E7012277E7002C1FD1002B50
:100EC0005AD0C94300290BD0FF2E50D01B295FDC1C
:100ED0001F002024CF40611A8B40591E8B413B4399
:100EE0009B18340062E7002B1CD1002A4AD0130063
:100EF0000D00FF24F3E6130034000D00EFE6FF2E93
:100F000035D08024E40449422343DFE7002A00D19E
:100F1000E5E68027981AFF04074000D152E7D31A6C
:100F20000D00DCE6FF24002A00D1D8E68020DB0893
:100F3000C003034204D0D208024201D113000D00C5
:100F4000DB00FF24CBE61300FF240D00C7E6002BD7
:100F50000DD0FF24002A00D1C1E68021DB08C9039F
:100F60000B42EDD0D2080A42EAD11300E8E71300A1
:100F7000FF24B4E6012372E713003400AFE6002734
:100F8000002022E780270020FF03F1E61300A6E6F9
:100F90000123A5E7FFFFFF7DFFFFFFFBF0B55646EE
:100FA00044465F464D46F0B444024600C70F83B046
:100FB0008846650A360EBA463DD0FF2E22D0002361
:100FC000EC00802599469B46ED0425437F3E434631
:100FD0005C025800DB0F640A000E984636D0FF28EA
:100FE00030D080230021E400DB041C437F38301A1A
:100FF0000190484642460843724E800030587A407D
:1010000013008746002D44D108239946063B9B4692
:10101000DDE70122FF2000241A406402C305640AB0
:10102000D2071C431443200003B03CBC90469946B1
:10103000A246AB46F0BD002D20D104239946033BC8
:101040009B46C4E7002C17D1022102E0002C0AD1F4
:101050000121321A01924A4643460A435A489200F5
:1010600082587B409746200000F084FD431F763075
:101070009C4040420021BAE70321B8E7280000F075
:1010800079FD431F9D4000237630464299469B469A
:101090009DE70C239946093B9B4698E78024002254
:1010A000E403FF20B9E70024C2468B465A46534664
:1010B000022AAED0032A7DD0012A31D1012200209C
:1010C0001A400024A9E70122101A1B2856DD1A40F5
:1010D00000200024A1E78023DB031D424BD18023A5
:1010E000DB032B435C02640A3A00FF2095E76D01A5
:1010F0006001854230D2019A0024013A01921B22FC
:101100000127290064006D00002901DBA84201D8F5
:101110002D1A3C43013A002AF3D16A1E95412C4313
:1011200001987F300028CEDD620704D00F222240D4
:10113000042A00D00434220103D5244A0198144023
:101140008030FE2800DD64E70122A401640AC0B2F9
:101150001A4062E72C00A9E72D1A1A220124CFE7D2
:101160006B02BCD500248023DB031C436402640AA9
:101170004246FF2051E71C42B3D1F4E72100202270
:10118000C140101A8440621E94410C43620704D08F
:101190000F222240042A00D00434620104D5012227
:1011A00001201A40002438E70122A401640A1A40F1
:1011B000002032E78023DB031C436402640A5246AA
:1011C000FF202AE7CCF701080CF80108FFFFFFF722
:1011D000430270B542004C005D0AC30F4802120E74
:1011E000460A240EC90FFF2A0FD0FF2C11D0012070
:1011F000A24200D070BDB542FCD18B420DD0002A76
:10120000F8D12800431E9841F4E70120002DF1D1C8
:10121000EBE70120002EEDD1E9E70020EAE7C04628
:101220004302F0B542005D0AC30F4802440A480079
:10123000120E000EC90FFF2A1FD0FF2822D0002A4D
:1012400009D16E426E4100280FD1002C0DD1002033
:10125000002D09D005E0002801D1002C01D08B42DF
:1012600013D0584201231843F0BD002EF7D0484256
:101270004141012049420843F6E7002DDDD002201C
:101280004042F1E7002CDAD0F9E78242E9DC04DBE6
:10129000A542E6D80020A542E6D2584243410120AB
:1012A0005B421843E0E7C0464302F0B542004C0001
:1012B0005E0AC30F4802120E450A240EC90FFF2A08
:1012C00017D0FF2C19D0002A0BD170427041002C8E
:1012D00017D0002807D04842414101204942084325
:1012E000F0BD002C13D08B4214D058420123184378
:1012F000F6E70220002EF3D1E3E70220002DEFD124
:10130000E1E7002DE5D10020002EE9D0EDE7002D2A
:10131000E9D1EAE7A242E8DC04DBAE42E5D80020EE
:10132000AE42DDD25842434101205B421843D7E729
:10133000F0B557464E4645464300E0B4460288465F
:10134000760A1F0EC40F002F47D0FF2F25D0002391
:1013500080259A469946F600ED042E437F3F43468A
:1013600042465D02D20F5B006D0A1B0E904640D0D4
:10137000FF2B39D080220020ED00D20415437F3BA3
:10138000FB1842465746591C62408C4607430F2FB4
:101390005CD86F49BF00C9598F46002E45D108233C
:1013A0009A46063B9946DAE7424602282DD00328A2
:1013B00000D1C3E0012800D0A2E0002500260240B1
:1013C000D4B27602ED05760A2E43E40726433000B8
:1013D0001CBC90469946A246F0BD002E1AD10423AB
:1013E0009A46033B9946BAE72A00511E8A41901C4F
:1013F000C6E70120002DC3D0280000F0BBFB431F2F
:1014000076309D4043420020BAE70124FF25144076
:101410000026D6E7300000F0ADFB431F9E400023BE
:10142000763047429A46994699E70C239A46093BFB
:10143000994694E780260024F603FF25C1E735008E
:101440004846B2E7350022004846AEE72904090CB9
:101450000800370C3604360C2C0C79437043674374
:101460007443060C64183619B14203D9802149022D
:10147000884647440004000C310409188D01681E99
:101480008541890E2943350CED19AD010D43290124
:1014900004D5012369081D4063460D4319007F31BF
:1014A000002925DD680704D00F202840042800D03B
:1014B0000435280103D5274980330D401900FE2942
:1014C000A3DC0124AD016E0A1440CDB279E780207F
:1014D000C003064207D0054205D128434602760ADA
:1014E0004446FF256DE706437602760AFF2568E746
:1014F0000124611A1B2905DD14400025002660E740
:101500006346CBE72E002023CE40591A8D406B1E38
:101510009D412E43730704D00F233340042B00D08A
:101520000436730104D5012401251440002648E740
:101530000124B601760A1440002542E780260124E2
:10154000F6032E437602760A1440FF2539E7C0469B
:101550004CF80108FFFFFFF7F8B54A024E004302BE
:101560004400240EC50F9B09360EC90F9209FF2EA9
:1015700000D183E001204140A01BA9425CD000289B
:1015800000DC95E0002E1CD1002A00D081E05A0733
:1015900004D00F221A40042A00D004335A013BD54C
:1015A0000134FF2C00D191E001209B015B0AE4B2E1
:1015B00005405B02E4055B0AED0723432B4318005B
:1015C000F8BDFF2CE3D08021C9040A431B2800DDAD
:1015D00090E016002021C640081A8240511E8A4120
:1015E00032439B1A5A0115D59B019E09300000F029
:1015F000C1FA0538864084426CDC041B330020208D
:101600000134E340041BA640721E9641002433437C
:10161000BDE70D005A07BCD1DF0801231D40FF2C98
:1016200033D1002F00D190E08022D20313003B433E
:101630005B025B0AFF24BCE700284FDD002E2ED0A2
:10164000FF2CA4D08025ED042A431B2800DD97E061
:1016500016002025C640281A8240501E824132437F
:101660009B185A01D5D50134FF2C6DD001227B483F
:101670001A405B08034013430D0088E7002A00D09E
:101680007AE777E7031EC5D100257B025B0AE4B247
:101690008FE701380028A4D0FF2C97D177E7002AE4
:1016A00000D174E701380028DAD0FF2CCDD16EE7E5
:1016B000002821D1601CC0B2012858DD80279E1A65
:1016C000FF0437402FD0D61A0D008FE701231D40AD
:1016D00000236EE7624B241A334058E7002851D1AB
:1016E000601CC6B2012E33DDFF282DD09B185B088D
:1016F00004004CE7012274E7002C1AD0FF2E1FD003
:101700008024E404404223431B2800DD96E01D00B2
:101710002024C540201A8340581E83412B43D31AEE
:1017200034000D005EE7002E00D05FE700250024A6
:10173000ABE7002B44D0C0430028F0D0FF2EE3D10C
:101740001300FF240D0022E70D00FF24002330E7E3
:10175000002C5DD1002B7DD0002A00D117E79B180B
:101760005A0100D456E73E4A040013400FE7002C0C
:101770001ED1002B2FD1002A65D013000D0006E7E3
:1017800001226DE7002C1FD1002B59D0C043002847
:101790000BD0FF2E4FD01B285EDC1D002024C5403F
:1017A000201A8340581E83412B439B18340058E76E
:1017B000002B1CD1002A49D013000D00FF24E6E6BF
:1017C000130034000D00E2E6FF2E34D08024E40440
:1017D00040422343DFE7002A00D1D8E68027981A49
:1017E000FF04074000D14DE7D31A0D00CFE6FF24D8
:1017F000002A00D1CBE68020DB08C003034204D0DE
:10180000D208024201D113000D00DB00FF24BEE626
:10181000002B10D0FF24002A00D1B8E68020DB087E
:10182000C003034203D0D208024200D11300DB0000
:101830000D00FF24ABE61300FF24A8E601236EE7AA
:1018400013003400A3E6002700251EE780270025AB
:10185000FF03E9E613009AE60123A6E7FFFFFF7DF9
:10186000FFFFFFFB4302590A4300C20F1B0E00207B
:101870007E2B0EDD9D2B0DDC802000040143952B7B
:101880000BDC9620C31AD9400B005842002A00D125
:1018900018007047034BD018FBE7963B99400B00AC
:1018A000F3E7C046FFFFFF7F70B5002830D0C317B5
:1018B000C5185D40C40F280000F05CF99E231B1A78
:1018C000962B0DDC9622D21A95406A02520AD8B2A3
:1018D0005202C005520AE40702432243100070BDC1
:1018E000992B19DC9922D21A9540124A2A4069078D
:1018F00004D00F210D40042D00D00432510103D536
:101900000C4B1A409F231B1A9201520AD8B2DFE7F0
:10191000002400200022DBE705222E00121AB92144
:10192000D6402A00C91A8A40551EAA4135001543DF
:10193000DBE7C046FFFFFFFB70B5041E28D000F0B8
:1019400019F99E231B1A962B0ADC9622D21A944070
:101950006202520AD8B25202520AC005104370BD48
:10196000992B18DC9922D21A9440114A224061071F
:1019700004D00F210C40042C00D00432510103D5B7
:101980000B4B1A409F231B1A9201520AD8B2E2E76E
:1019900000200022DFE705222500121AB921D540D8
:1019A0002200C91A8A40541EA2412C001443DCE7CD
:1019B000FFFFFFFB4200120E511C4302C9B270B57B
:1019C0005D0AC40F012915DDE02189008C466D07F1
:1019D0001B0B6244002128000D0D2D052B431C4DCF
:1019E00052052B40520813435B00E4075B08234376
:1019F000190070BD002A15D1002D1FD0280000F05D
:101A0000B9F80A281DDC0B232A001B1ADA40130040
:101A10000200153295400F4A1B03121A52051B0B88
:101A2000520DD7E7002D06D080221B0B1203134363
:101A30006D07094ACEE7084A0023CBE700220023BE
:101A4000C8E703000B3B9D402B000025E3E7C046A1
:101A5000FFFF0F8089030000FF0700004B0070B5F7
:101A60005E0D0C03751C640A420F6D052243C90FFD
:101A7000C4006D0D012D2ADD3B4BF318FE2B1ADC43
:101A8000002B42DD8001451EA841D2001043620FA9
:101A90000243500704D00F201040042800D0043225
:101AA0008020C004104021D00133FF2B03D09201CD
:101AB000520ADBB201E0FF2300225202520ADB0588
:101AC00013435B00C9075B080B43180070BD002E71
:101AD00007D01443EFD08020D20080040243FF23BC
:101AE000D7E722430023002A03D00522D208FF2B88
:101AF00003D05202520ADBB2DFE7002A32D0802044
:101B0000C00302435202520AD7E71800173014DB11
:101B10008020000402431E20C01A1F280FDC25006D
:101B2000124BF3189D406E1EB5419A402B00134393
:101B30002200C2401A430023ABE70023D5E7022569
:101B40006D42EB1A1500DD40202809D0084BF31830
:101B50009A401443621E9441220000232A4398E7CE
:101B60000022F6E70022A8E780FCFFFF82FCFFFFCF
:101B7000A2FCFFFF1C2101231B04984201D3000C8F
:101B800010391B0A984201D3000A08391B099842F0
:101B900001D30009043902A2105C40187047C04606
:101BA0000403020201010101000000000000000026
:101BB00002780B78002A03D0013001319A42F7D025
:101BC000D01A70471348854604200168090E1F2269
:101BD000914205D1104801210160104800210160A7
:101BE000002103E00E4B5B58435004310D480E4B6F
:101BF00042189A42F6D30D4A02E0002313600432E1
:101C00000B4B9A42F9D300F07BFA1DF047FA02F031
:101C100035FCFEE7004000201810024000000140A3
:101C200000FE0108000000203401002034010020E3
:101C3000C8150020FEE710B501F0CEFC10BD000075
:101C4000014B18687047C0465001002010B5024B88
:101C5000DB68984710BDC0460C00002070B504003A
:101C60000D1E0CD019F042F9054B65191860AC42F5
:101C700005D0207814F060FD01340028F7D170BD44
:101C80005001002010B50448044B054A05490430B2
:101C900000F0A1FB10BDC046500100203C00002018
:101CA0007400002020000020802010B501210004D5
:101CB00002F074F9002002F06FF880200121000585
:101CC00002F06CF98020800501F0BAFD012001F0DE
:101CD000ABFD012001F09CFD10BD1F2307B501A83D
:101CE00003701E3B4370837002F000F807BD0020B4
:101CF00070470000F0B50027094B411888420CD00E
:101D00001C68084E621C1A600578355580246400F2
:101D1000A24200D11F600130F0E70020F0BDC046B4
:101D2000240400203004002010B5FFF797FF0020A6
:101D300010BD000010B5202814D0212825D1144B47
:101D40001A780A701A68120A4A701A68120C8A7095
:101D50001A68120ECA701A790A715A794A719B79F7
:101D60008B7112E04A780C788B78120222431B04A4
:101D700013431A00CB781B061343054A13600B79F3
:101D800013714B7953718B799371002010BDC0464C
:101D90000400002000207047122301480B80704788
:101DA00090F20108042302480B8012307047C046AD
:101DB00090F2010810B5044C0A000448210000F01C
:101DC000F8FC200010BDC046C90200208CF80108B4
:101DD00010B5044C0A000448210000F0EAFC200081
:101DE00010BDC046C9020020B1F8010810B5044C6E
:101DF0000A000448210000F0DCFC200010BDC046B1
:101E0000C9020020C5F8010810B5044C0A000448B6
:101E1000210000F0CEFC200010BDC046C902002009
:101E2000D2F8010810B5044C0A000448210000F063
:101E3000C0FC200010BDC046C9020020DDF801082A
:101E4000704700000821054A13689BB20B431360DA
:101E5000136804399BB20B4313607047405C004029
:101E60000421044A13689BB28B431360BF231B02F7
:101E700013607047405C004010B5244C072800D028
:101E800020702078C0B205283DD8FEF713FD030B63
:101E900012161F2A6368002B02D1FFF7E1FF32E020
:101EA000052331E0FFF7DCFF04232370033B63606D
:101EB0002BE002236370013326E06378013BDBB241
:101EC00063706378002B20D104331DE01021104A89
:101ED00013689BB20B43136005232370DB186370F8
:101EE00013E06378013BDBB263706278D2B2002A00
:101EF0000BD1102006490B689BB283430B6006236D
:101F00002370626001E00623237010BDBC02002034
:101F1000405C00407047704770477047704700232F
:101F200030B5DCB2A24208D95D1CC45CCB5C9C42DB
:101F300001D12B00F5E7002000E0012030BD0000BA
:101F4000F0B50A000025154B1C88154B002A1CD043
:101F50008D1A465DFF251D401B0A1B026E40F518B9
:101F6000ABB2082501261E40B44667465E10B3B2E8
:101F7000002F02D00B4B5E40B3B2013DEDB2002DFD
:101F8000F0D1013AD2B20135E0E7002D00D01C1C9F
:101F900044544118240A4C70F0BDC046ECF80108C6
:101FA000FFFF000001A0FFFF10B5011CFFF7C0F903
:101FB00010BD002382B0019001AA9A5CCA5401337B
:101FC000042BF9D102B070470023CA5CC25401331C
:101FD000042BFAD170470B7803704B78437070472D
:101FE00082B06B46DA1D002313701378032B03D8DD
:101FF00013780133DBB2F7E702B07047024B800081
:10200000C01800687047C046ACF7FF1F73B50021C9
:10201000041CFEF7DBFD0300201C002B40D1FE2139
:102020008905FEF7D3FD002836D10021201CFEF7DC
:10203000D3FD002833D101A9201C1BF031FE194922
:10204000041CFFF775F91849FEF732FE051C011C48
:10205000201CFEF7A3FF011C281CFEF729FE02210D
:102060004942051C1BF048FE291C061C201CFEF7DB
:1020700095FF011C301CFEF71BFE019CE30704D5F5
:102080000A490134FFF754F90194019BD90FC9188B
:1020900049101BF031FE03E0FE20800500E0002027
:1020A00076BDC046BA14173FA8A9D53EF304353F04
:1020B00070477047704710B518F0FEFE10BD000065
:1020C0000023802182B000930C4B49021A688020C3
:1020D0000A43A0211A608002C9011A6802400192D5
:1020E000009A01320092019A002A02D1009A8A4293
:1020F000F3D118688003C00F02B07047001002408F
:1021000037B50125374C23682B4323606268364B73
:10211000134063602268354B134023602268344BC0
:10212000134023606268334B13400F226360E36AFD
:102130009343E362226B304B13402363636BAB43E7
:1021400063630023A360FFF7BBFF002813D1A02225
:10215000022100902368D2011D43256023680B40B3
:102160000193009B01330093019B002B31D1009B15
:102170009342F3D12DE0214B1D70012828D111226B
:102180001F4B1A60636863606368636062681D4B1D
:1021900013408422636063685203134380226360A8
:1021A00023685204134380222360920421680D4B5C
:1021B0001142FBD003215A688A435A605A68013998
:1021C0000A435A600C2263681340082BFBD107E0D6
:1021D000FEE700222068094B8007C00F1A70CCE789
:1021E00037BDC046001002400CB8FF08FFFFF6FEE6
:1021F000FFFFFBFFFFFFC0FFACFEFFFF7D050020E0
:1022000000200240FF7FC0FF030010B50400FC3334
:102210001B6E1B699847E3780020A37010BD10B5B2
:102220008378C37004238370FC30036EDB689847A7
:10223000002010BD0300FC33DB6D10B5DB69002B03
:1022400000D09847002010BD002210B51100402397
:10225000040000F029FE802300221900200000F075
:1022600023FE002340221900200000F038FE402207
:1022700080210023200000F032FE0123207BA37088
:10228000FC34236E5B689847002010BD13B5694687
:10229000040000F071FA6B4619781F230B40012BE4
:1022A0000DD0002B06D0022B0ED16946200000F085
:1022B00006FA0EE06946200000F0FCF809E06946E5
:1022C000200000F0DDF904E07F232000994300F0B6
:1022D00057FF002016BD0000F8B504000D1E39D1CF
:1022E0004378022B2BD1426B466AB24206D9921B2D
:1022F0004263816A92B200F0A9F835E0876B310041
:102300003800FEF767FB0D1E0AD1BE4208D8E36B0A
:102310009F4205D20A00200000F098F8E56323E010
:102320002300FC33DB6DDB68002B04D0A278032A8A
:1023300001D120009847200000F0B1F814E0042BF0
:1023400012D10A4E316800290ED0C9B200F072FFD6
:10235000356009E00300FC33DB6D5B69002B03D0C3
:102360008278032A00D198470020F8BDC4020020DB
:1023700010B50400002922D14378032B29D1020093
:10238000B832D369D06883420AD91B1AD361116964
:1023900082B2984200D99AB2200000F06EF818E09C
:1023A0002300FC33DB6D1B69002B04D0A278032AC9
:1023B00001D120009847200000F067F809E00300F1
:1023C000FC33DB6D9B69002B03D08278032A00D19C
:1023D0009847002010BDF7B50400250017001E0027
:1023E0000191FFF761FC019BFC356B66EF652E6682
:1023F000FFF726FD200000F02BFD2B6E1B68984791
:10240000200000F04BFF2000FFF767FCF7BD10B580
:102410000400FC34E36D1B689847236E9B68984763
:10242000002010BD030010B5FC33DB6D5B689847DE
:10243000002010BD10B51300826342630222427077
:102440000A00002100F04FFE002010BD10B513005F
:102450000A00002100F047FE002010BD130002001A
:10246000D83210B5043A53601360032242700A0058
:10247000002100F0FAFD002010BD10B513000A0085
:10248000002100F0F2FD002010BD042310B54370C0
:1024900000231A00190000F026FE002010BD0523BD
:1024A00010B5437000231A00190000F0DEFD002073
:1024B00010BD000073B5040048780D00092800D94C
:1024C000D5E0FEF7F7F9ACCBD4BCD45E05D49D764D
:1024D0004B8818120138062800D9C8E0FEF7EAF93F
:1024E00004121BC7C7C7C7002300FC335B6E01AED5
:1024F0001B68207B31009847EB88402B30D1383B5C
:1025000033802DE02600FC36F36D207B1B6A01A989
:102510009847B06624E0D8B2052800D9A7E0220089
:10252000E368FC32FEF7C6F903070B0F1317D8B2A6
:10253000536E5B6812E0D8B2536E9B680EE0D8B25F
:10254000536EDB680AE0D8B2536E1B6906E0D8B25E
:10255000536E5B6902E0D8B2536E9B6901A998473C
:1025600001AE3188002900D185E0EA88002A00D137
:1025700081E00B1C914200D9131C9AB233800100F8
:1025800049E08B88002B72D1CB88002B6FD14D880E
:102590007F331D40A378032B69D0384B2571200071
:1025A0001D60FFF772FF0223002D00D10123A370ED
:1025B00061E08978314D2971012958D8A378022B1F
:1025C00002D0032B07D052E0002943D0012103237E
:1025D0002170A37010E0002906D102232170A3709E
:1025E0002000FFF71FFF35E02178012932D02000BD
:1025F000FFF718FF297921702000FFF708FF29E075
:10260000CA8800210191012A32D1A378022B14D06B
:10261000032B2DD121002000FFF70CFF2BE0002120
:10262000A3780191023B012B22D801230193A368D7
:102630008B4201D003230193022201A9EBE74B88CF
:10264000012B18D1A3602300FC33DB6D29009B68AC
:10265000200098472000FFF718FF0CE0A378023B0A
:10266000012B04D84B88012B05D10023EAE7002178
:10267000200000F085FD002076BDC046C402002089
:1026800070B5837804000E00032B11D10B79012B58
:102690000ED80300FC33DB6D9B689847F388050078
:1026A000002B0AD1002808D12000FFF7EEFE04E03D
:1026B0000021200000F064FD0025280070BD37B522
:1026C00000220D00019204006B788888C1B2012BB2
:1026D00011D0934229D0032B4CD1A378022B2AD0BE
:1026E000032B20D16B88002B12D14B0610D0200079
:1026F00000F046FD0CE0A378022B1CD0032B12D176
:102700006B88002B04D14B0602D0200000F06CFD3A
:102710002300FC33DB6D29009B68200098472000D4
:10272000FFF7B3FE26E0110021E0A278022A02D0D2
:10273000032A03D01AE04B0619D11BE02823020616
:1027400009D57F2211404B43E3189B7E002B07D015
:102750000123019304E059436118BA310B78F5E77E
:10276000022201A92000FFF765FE03E01900200006
:1027700000F006FD00203EBD037C0B70437C4B70D7
:10278000C37C827C1B02D3184B80437D027D1B02DD
:10279000D3188B80C37D827D1B02D3189BB2CB8064
:1027A000C36301234370704710B5002100F0E8FCBB
:1027B00010BD30B50023002818D0C45C5D1C002C6F
:1027C00001D02B00F9E7DBB25B00023313800B7002
:1027D00003234B70013B0578002D07D05A1CCD54C4
:1027E000D2B202330130DBB28C54F4E730BD0000CA
:1027F00070B5074C2068FF2807D0064B064A191D04
:1028000095681A68A847FF232360002070BDC04662
:1028100070000020C80300200C0000204323014862
:102820000B807047A6F2010810B5C0230022812159
:10283000040000F039FB802300225B00822120008D
:1028400000F032FB882300225B000321200000F00F
:102850002BFB022340228121200000F040FB0223B9
:1028600040220321200000F03AFB082282210323AA
:10287000200000F034FB064B1B689847054A4023B4
:102880000C320321200000F0F0FB002010BDC046F8
:102890000C000020C8030020282370B50400594311
:1028A0004118084DD0310968074B0C35280089B212
:1028B0001B6998472A0040230321200000F0D5FB24
:1028C000002070BDC80300200C00002010B50400DB
:1028D000812100F086FB0321200000F082FB822191
:1028E000200000F07EFB024B5B689847002010BD83
:1028F0000C000020F8B560240B7806000D001C4089
:1029000028D0202C22D1CC884878002C18D05BB25B
:102910002449002B0BDA244B0F1D220039009B6841
:102920009847EA8839003000FFF784FD06E01F4B26
:1029300010C1186022003000FFF790FD00242FE046
:10294000194B22009B682100984729E0FFF72CFFD4
:10295000022425E04B780A2B13D00B2B18D0062B22
:102960001ED14B8812491B12212B07D1EB881A1C50
:102970003A2B00D93A2292B2123105E009313A22BB
:1029800002E0012207494C313000FFF753FD07E018
:102990008B78002B02D1034BDC6401E0FFF704FFCE
:1029A0002000F8BDC80300200C00002070000020AB
:1029B000A6F20108204A70B5136D1100002B02D059
:1029C0000133136536E0136554321278012A31D091
:1029D00080228C6D5200944200D18B658C6DCB6D42
:1029E0009C4203D1002354310B7023E09C4202D956
:1029F000121B0A6601E01B1B0B660B6EA2B2402B7A
:102A000005D9403B40340B668C65402309E0E4184F
:102A10008C6500240C66402B01D09BB201E00124A0
:102A20004C660C000125683154348A1881212570C8
:102A300000F059FB002070BDC8030020154B70B595
:102A40001C00543422781900012A20D11A6E002A61
:102A500008D1596E012903D15A668031130014E060
:102A6000227014E09B6D9CB2402A05D94033403A55
:102A70008B650A66402305E08D6D93B252198A6515
:102A800000220A6668310A19812100F02CFB00201F
:102A900070BDC046C8030020014B18607047C04697
:102AA000405C0040014B18607047C046445C0040E9
:102AB00007239843014B18607047C046505C0040A4
:102AC000024B8000C018006880B27047005C004074
:102AD0000B00054A800080180168044A1140194320
:102AE00089B201607047C046005C00408F89FFFFDB
:102AF000084B8000C0180268074B13401022114297
:102B000000D053402022114200D05340034A1343C7
:102B100003607047005C0040BF8F000080800000B1
:102B2000094B8000C0180268084B134080225201F4
:102B3000114200D0534080229201114200D05340F4
:102B4000034A134303607047005C00408FBF0000DE
:102B500080800000044B8000C0180268034B1340C3
:102B6000034A134303607047005C00400F0E0000EF
:102B700080810000044B8000C0180268034B1340A2
:102B8000034A134303607047005C00400F0F0000CE
:102B900080C00000044B8000C0180268034B134043
:102BA000034A134303607047005C00400F0F0000AE
:102BB000C0800000064B8000C01803685B0405D588
:102BC0000268044B1340044A134303607047C04635
:102BD000005C00400F0F000080C00000064B80002A
:102BE000C01803685B0605D50268044B1340044A0D
:102BF000134303607047C046005C00400F0F0000A5
:102C0000C0800000044BC0001B689BB2C018034B7F
:102C1000C01801807047C046505C00400260004010
:102C20000C4BC0001B689BB218180B4BC0183E29F8
:102C300008D94B09CA0601D1013B9BB2074A9B0246
:102C4000134304E04B08CA0700D501339B020380FD
:102C50007047C046505C0040066000400080FFFFA7
:102C600030B5094DC0002B68084C9BB2C3181B1926
:102C70000124A14319802B68A2439BB2C018044BC6
:102C8000C018028030BDC046505C0040006000406B
:102C900004600040054BC0001B689BB2C018044B89
:102CA000C0180123994301807047C046505C004022
:102CB0000060004010B5FFF7EDFF10BD054BC000F0
:102CC0001B689BB2C018044BC018012399430180B4
:102CD0007047C046505C00400460004010B5FFF7EC
:102CE000EDFF10BD30B500291FD1204CC000216878
:102CF0001F4B89B20918C9183E2A08D95309D506AD
:102D000001D1013B9BB21B4D9B022B4304E05308B6
:102D1000D50700D501339B020B8023689BB218189E
:102D2000154BC0183E2A11D819E001291DD10F49B1
:102D3000C0000B680E4C9BB2C3181B191A800B689D
:102D40009BB2C0180C4BC01802800EE05309D2068B
:102D500001D1013B9BB2074A9B02134304E0530895
:102D6000D20700D501339B02038030BD505C004088
:102D7000026000400080FFFF06600040054BC0007D
:102D80001B689BB2C018044BC01800888005800DDA
:102D90007047C046505C00400260004010B5FFF72D
:102DA000EDFF10BD054BC0001B689BB2C018044B63
:102DB000C01800888005800D7047C046505C0040F8
:102DC0000660004010B5FFF7EDFF10BD002907D1E8
:102DD000094B8000C0180268084B1340084A08E0FD
:102DE000012908D1044B8000C0180268034B13402E
:102DF000044A134303607047005C00400F0F00005B
:102E0000C080000080C0000010B5084B0132091AD4
:102E10005210C918002A07D0437804781B022343B4
:102E20004352013A0230F5E710BDC0460060004051
:102E3000064B0132091A5210C918002A04D0435A0D
:102E4000013A03800230F8E77047C0460060004056
:102E500010B50300002401201C7198709C60D8609C
:102E6000FFF71AFE2000FFF717FE2000FFF71AFEFB
:102E70002000FFF71DFEBF20024B00021860FFF785
:102E80000BFE10BD7405002010B501230024044A78
:102E9000044913600C6003211160837010BDC046AB
:102EA000405C0040445C004070B57F2528240E063D
:102EB00005D529404C4321001831441803E00D404A
:102EC0006C43B8340419002A02D1A272A38004E032
:102ED0000122E3801B0CA2722381002070BDB0B5DB
:102EE0007F25282480270D4065430F402C00002FAC
:102EF00005D01834451904190120687604E04519F5
:102F0000B834B93504192F70E2607F220A40E370AB
:102F1000227002D16262E26122620021216161615C
:102F2000A161A170032B10D81800FDF7C3FC0209A2
:102F300005078021890005E0002103E0C02100E0B1
:102F40008021C9001000FFF7C3FDA37A2078002B71
:102F500018D16378A188002B07D0FFF7ABFE20784B
:102F6000FFF73CFE2078202126E0FFF7B7FEA1897D
:102F70002078FFF755FE2078FFF71CFEC02120784F
:102F800089012AE0FFF7E6FD20782289E188FFF732
:102F900067FE65782078002D11D1FFF70BFE2078B1
:102FA000FFF71CFE2078FFF7F5FDC021207889018E
:102FB000FFF7B6FD29002078FFF79AFD0FE0FFF735
:102FC000F9FD2078FFF70AFE2078FFF7D3FD20787F
:102FD0000021FFF78DFD00212078FFF7A1FD0020E3
:102FE000B0BD4AB270B52823002A05DA7F242140FB
:102FF0004B431833C41802E04B43B833C418A67AC5
:1030000065782078002E0BD1002D04D0FFF7E6FD67
:103010002078310014E0FFF7CDFD2078290020E072
:10302000002D10D1FFF7C6FD2078FFF7D7FD2078DF
:10303000FFF7B0FD20782900FFF772FD2900207806
:10304000FFF756FD0FE0FFF7B5FD2078FFF7C6FD4F
:103050002078FFF78FFD20780021FFF749FD002140
:103060002078FFF75DFD002070BD73B505007F205F
:1030700001405738484328180C000100C8310A6045
:1030800002000026CC321360C4308E6001680196C5
:103090008B4204D9019101995B1A136001E00193FD
:1030A000166028236343EB181A001800C232127806
:1030B000B830002A05D10199007889B2FFF7B0FD38
:1030C00006E0019AB93392B219780078FFF70AFE48
:1030D00028214C43C0212D19B83528788901FFF7E4
:1030E0001FFD002076BDF7B57F240700002021409A
:1030F000573C4C433C19A262626A01900E00217653
:10310000E3622063934204D90192019A9B1AE3621D
:1031100001E00193E062282575437D19EB1C019ABB
:10312000DB7F92B2002B09D1A98BA06AFFF76CFE5E
:103130000199287E89B2FFF765FD17E0287E697E38
:10314000FFF7D0FD287EFFF7BBFC430601D5298C95
:1031500000E0E98B019AA06A92B2FFF755FE28239E
:103160007343FB18597E187EFFF730FE28214E432B
:10317000BF19387E0831FFF7BBFC0020FEBD000000
:103180004AB210B52823002A04DA7F2211404B43AB
:10319000183301E04B43B833C118087800280BD12D
:1031A0000D4A0E4B106803400D4843400D48034341
:1031B000136001238B700CE001234A788B70002A86
:1031C00003D01021FFF794FC03E080214901FFF7B1
:1031D000A7FC002010BDC046005C0040BFBF00003F
:1031E00010100000808000004AB270B52823002A29
:1031F00005DA7F2421404B431833C41802E04B43C7
:10320000B833C41865782078002D08D0FFF7E6FCA5
:1032100020783021FFF76CFC0023A37007E0FFF754
:10322000C9FCC02120788901FFF77AFCA570002035
:1032300070BD000010B501710E480F4B02680F4CB5
:103240001A40224302600E480E4C02681A40224384
:1032500002600D480D4C02681A40224302600C4A7D
:10326000106803400B4803431360802319430A4B43
:10327000196010BD005C00400F0F0000808000004E
:10328000045C004081800000085C004082800000F7
:103290000C5C0040838000004C5C00408021044AAC
:1032A000090213680B431360012383707047C04603
:1032B000585C0040034A044B11680B401360002324
:1032C00083707047585C0040FF7FFFFF0023F0B51C
:1032D00085B002AAD380B44B1A6803AB91B21980AF
:1032E000120400D45DE10F211A881140009100D032
:1032F00082E01C881023AD4D1C4011D12A68AC4BD4
:1033000013402B60AB4D287EFFF748FDAB6A286366
:103310001818A94BA8621B6821005B6828003AE1D5
:103320002B6802AA9BB2D380D3881B0519D5A14C68
:103330002300B8331878FFF745FD2300D033186019
:103340002300BC33020019889C48FFF771FD2A68EE
:103350009B4B200013402B60974B1B689B68984742
:10336000B9E702ABDB881BB2002BB4DA2A68944BB6
:10337000904C13402B602300B83318782700FFF7D8
:1033800021FDD037021E38600BD023002600BC334D
:10339000C83619883068FFF74BFD32683B68D31890
:1033A0003360854B00211B6820001B689847854BC4
:1033B000C4341A682168844B92B2D2183E2909D9C4
:1033C0004B099BB2C90601D1013B9BB27F499B02CD
:1033D0000B4306E04B089BB2C90701D501339BB2F2
:1033E0009B0213802A687A4B1340C02292015340FB
:1033F000784A13432B606EE7009B02AA9F006B4B39
:10340000FF183B689BB2D380D3881BB2002B68DACD
:1034100028243A686A4B674E13403B60009B5C432C
:10342000341923002500C2331B78B8352878002BC7
:103430000CD1FFF7C7FC051E2AD02300C834BC33CB
:10344000020019882068FFF7F3FC21E0FFF738FB42
:10345000030028785B0406D5FFF790FC051E0ED00C
:103460002300BE3305E0FFF79DFC051E07D02300B7
:10347000C033C83419882A002068FFF7D9FC2823F4
:10348000009A00215343F318B8331878FFF79EFCD5
:103490002821009B594371180A00D03213685B1928
:1034A00013600B00C8331A6852191A6004331B6882
:1034B000002B04D00800C430006885420BD22823BA
:1034C000009A30005343F318B83319783A4B1B680D
:1034D0001B68984705E0B8319BB209783000FFF7C8
:1034E000C4FD802202ABDB88134200D1F3E63A68C8
:1034F0002F4B009C13403B6028277C432D4D009AA6
:103500002C19E31CDB7F01322E000192207E002B60
:103510000BD1FFF743FC021E206326D0019BA18B39
:103520005F43E859FFF770FC1FE0FFF7C9FA03009B
:10353000207E5B0606D5FFF721FC021E20630CD01F
:10354000E18B05E0FFF72EFC021E206305D0218CE5
:10355000019B5F43E859FFF757FC2823009A01219C
:103560005343F318187EFFF731FC2824009F67436C
:10357000F719387EFFF712FC019B38635C432B5927
:103580001A182A5134196368397E002B05D130008E
:10359000094B1B685B6898479DE63000FFF7A3FD69
:1035A00099E605B0F0BDC046445C0040005C0040B8
:1035B0000F8F000054010020500000206401002003
:1035C0008F0F0000505C0040066000400080FFFF4D
:1035D0008FBF000080800000F7B56B469D1D002363
:1035E0002C4C2B8023682C4E9BB22B80802331687F
:1035F0001B022A880B401A4201D0FFF767FE2B8876
:10360000326813405B050BD5244B254F2360254BB7
:1036100038001B681B69984700213800FFF70AFE35
:103620002A8831680A40930401D51F4B23602B88F8
:103630000B40DB0409D51D4B19482360194B1B684F
:103640009B6998470020FEF717FC2B8832681340CF
:103650001B0508D5164B12482360124B1B685B698B
:103660009847FEF7EFFB2B88326813409B0506D581
:10367000104B0B4823600B4B1B68DB6898472B886B
:1036800032681340DB0504D50B4B07202360FEF79F
:10369000F3FBF7BD445C004074050020FFFB000015
:1036A0005401002050000020FFDF0000FFEF000069
:1036B000FFF70000FFFD0000FFFE0000074B10B504
:1036C000984209D180200121800000F073FC802005
:1036D0000021800000F06EFC10BDC04600240140B7
:1036E00030B58A680D68C3681543CA68064C15432F
:1036F0000A69234015434A6915432A001A430B7986
:103700005B031343C36030BD03D2FFFF002303609C
:1037100003718360C3600361436170478368012262
:10372000002900D102221343836070470161704772
:10373000064B002804D080211A68C9030A4302E01E
:103740001968034A0A401A607047C04608270140BA
:10375000FFFFBFFF836A1943816242617047000027
:10376000002904D08022C3689201134302E0C2689A
:10377000014B1340C3607047FFDFFFFF002904D0F7
:103780008022C3685202134302E0C268014B134017
:10379000C3607047FFFFFEFF8021826809060A436D
:1037A000F0210300826009029A680139D20FD20722
:1037B000002901D0002AF7D100209A68824200DB5C
:1037C000186C70471022836813438360704704228B
:1037D0008368134383607047006C80B27047012296
:1037E000C368002901D0134300E09343C3607047CE
:1037F000CB0103D58068044B184000E00068084006
:10380000411E8841C0B27047FFFFFFFE0160704754
:10381000044B20211A68002801D00A4300E08A43A3
:103820001A607047006C0040044B40211A68002861
:1038300001D00A4300E08A431A607047006C0040E0
:10384000044B054A59680A405A605A681043586048
:103850007047C046006C0040FFFFFFCF02682C4B52
:10386000134003600023036043608360C360294BFF
:10387000984201D1284A27E0284B984201D1264A94
:1038800029E0274B984201D1234A2BE0254B98424F
:1038900001D1214A2EE0244B984201D11E4A31E049
:1038A000224B984204D1F0211B4A090453682CE0B2
:1038B0001F4B984204D1F021174A0905536824E0B0
:1038C0001C4B984203D11C4A53680F211DE01B4B2F
:1038D000984203D1184A5368F02116E0184B9842D9
:1038E00004D1154AF021536809010EE0154B9842A6
:1038F00004D1114AF0215368090206E0124B9842A4
:1039000005D10D4AF021536809030B4353607047FA
:10391000FEFF000008000240000002401C000240C0
:103920003000024044000240580002406C00024057
:103930008000024008040240000402401C040240CF
:1039400030040240440402405804024002680D4B17
:1039500010B51A400C6A8B6823430C6923434C69E9
:1039600023438C692343CC6923434C6A23438C6AE9
:10397000234313430360CB6843600B6883604B6849
:10398000C36010BD0F80FFFF002903D00122036830
:10399000134302E00268024B134003607047C046C5
:1039A000FEFF0000C30001D5044B00E0044B1B6880
:1039B0000340581E8341D8B27047C04600040240FD
:1039C0000000024010B5FFF7EDFF10BDC30001D5A8
:1039D000024B00E0024B58607047C04600040240B2
:1039E0000000024010B5FFF7F1FF10BD837910B55C
:1039F0000168002B24D0CA43154B1C6814401C607E
:103A00005C6822405A600279D21814682143116020
:103A100001689C68CA4314409C60DC682240DA60FC
:103A20004279102A06D19A680A439A60DA681143EB
:103A3000D9600BE0064BD3181A681143196005E0F2
:103A40000379034A9B181A688A431A6010BDC0465E
:103A500000040140034B5B691840431E9841C0B20B
:103A60007047C04600040140014B58617047C04692
:103A700000040140044B1A69120603D5034A5A6038
:103A8000034A5A607047C046002002402301674540
:103A9000AB89EFCD014BD8607047C0460020024093
:103AA0000120074BDA68024209D1DA680018D20611
:103AB00005D4D86804231840421E9041181A704754
:103AC0000020024010B50400FFF7EAFF012805D1ED
:103AD000002C05D0FFF7E4FF013CF7E7002C00D1F4
:103AE000052010BD70B50600B0200003FFF7EAFF07
:103AF000042810D102254022B020074C000323697E
:103B00002B4323616661236913432361FFF7DAFFC7
:103B10002369AB43236170BD00200240F7B5060066
:103B2000B020002300030D000193FFF7CBFF042812
:103B300018D10127B0200C4C000323693B432361BB
:103B4000ABB23380FFF7BEFF042808D1B0200236A5
:103B50000196019B2D0C1D800003FFF7B3FF236925
:103B6000BB432361FEBDC04600200240F7B50B6891
:103B70000193002301249C40019A224094422CD1BD
:103B80000A79551E012D15D85E00B44603266746F6
:103B9000BE408568B54385604E798568BE402E433A
:103BA00086608588A54385808C7985889C402C43D8
:103BB000A4B2848003245D00AC40E443AA400668BC
:103BC00026400660066832430260C2681440C46042
:103BD000CA79C468AA402243C2600133102BC9D1FC
:103BE000F7BD038A19400800411E8841C0B27047E2
:103BF0008161704701857047072310B50F240B4082
:103C00009B009C409A40C91089004018016AA1435A
:103C10000162016A0A43026210BD000030B501244E
:103C200003688A68A343036003681502114A1340BE
:103C30004A682B43134303600F4A0B681A40026122
:103C400003680A692343036000238360C3608B69B0
:103C500013438022836083681202134383600368E6
:103C6000CA68134303604268044B13404A69134314
:103C7000436030BDFFE0CF00FFFFFFF0FF7FFF0795
:103C8000802200231202036043608360C3600361EB
:103C900042618361704701220368002901D0134308
:103CA00000E0934303607047014B18607047C046C3
:103CB00000300040014B58607047C0460030004063
:103CC000014B98607047C04600300040014A024BEB
:103CD0001A607047AAAA000000300040014A024B57
:103CE0001A607047CCCC000000300040837870B57B
:103CF0000178002B1BD08B10104A03269B009B18C9
:103D0000FF223140B1401600C0248E40A4001D594E
:103D1000B5434678B60132408A402A431A511F23E0
:103D200002781A401E3B9340044A136005E01F23AB
:103D300019401E3B8B40024AD36770BD00E100E092
:103D400004E100E0064B002804D080211A684900F5
:103D50000A4302E01968034A0A401A607047C046E5
:103D600000700040FFFEFFFF044B5A68002902D09C
:103D70001043586001E082435A6070470070004071
:103D8000044B01215A6A002801D00A4300E08A430B
:103D90005A627047001002408021044B1A6B8A431C
:103DA0001A631A6B104318637047C0460010024034
:103DB000F8B50C23594D040068681840FCF77AFDEB
:103DC0001F1F1F1F1F1F1F1F071F1F1F1D000F214A
:103DD000C02368686A68800C08405B02861C1A422F
:103DE00001D14F4806E04D4B4E48DB6A1940013186
:103DF000FCF76AFD7043206004E04B4B00E0494B48
:103E00000020236021686B680A00484E1B061B0FC8
:103E1000F35CDA40130062606A685205520FB25CCC
:103E2000D340A3602A6BD20501D4414A06E03B4A45
:103E30005268520401D45A0800E09A08E2602A6BE2
:103E4000520601D43B4A01E08022120222612A6B11
:103E5000D20602D4334A626100E0616103222F6B13
:103E60002E4E174201D1A36112E0376B1740012F8C
:103E700001D1A1610CE0376B1740022F02D18022E3
:103E8000120204E0366B3240032A01D1254AA261B6
:103E9000C0222F6B9202174201D1E36119E01F4E3D
:103EA000376B802617407602B74201D1E16110E0FE
:103EB0001A4E376B80261740B602B74202D18022D5
:103EC000120205E0154E366B1640964201D1154A96
:103ED000E261C0222F6B1203104E174215D08027CB
:103EE000336BFF021340BB4201D121620EE08021FF
:103EF000336B090313408B4202D180231B0204E081
:103F0000336B1340934201D1064B23622B6B1B068C
:103F100002D4054B636200E06062F8BD001002400D
:103F200000093D0000127A00006CDC0298000020BD
:103F3000809FD50012800000024B1A6A104318625D
:103F40007047C04600100240064B002804D0802174
:103F50001A6A09020A4302E0196A034A0A401A620D
:103F60007047C04600100240FF7FFFFF044B5A69B4
:103F7000002902D01043586101E082435A61704722
:103F800000100240044B9A69002902D01043986146
:103F900001E082439A61704700100240044BDA69E5
:103FA000002902D01043D86101E08243DA617047F2
:103FB00000100240044BDA68002902D01043D86098
:103FC00001E08243DA60704700100240044B1A6936
:103FD000002902D01043186101E082431A61704742
:103FE000001002404211094B01D11B6808E0012A70
:103FF00001D11B6A04E0022A01D15B6A00E05B6B1D
:104000001F221040C340012018407047001002409A
:104010000023202213B501930E4B01209968114211
:1040200017D1CA218024596277395962D9689F30E3
:104030008143D9602402D868019901310191019925
:10404000A14201D01042F6D0FF22D8685A62800601
:10405000C00F16BD00280040CA220721064B5A6235
:10406000773A5A629A688A439A609A681043FF22A4
:1040700098605A627047C04600280040CA22044B2C
:104080005A62773A5A62AC3258615A627047C046F7
:10409000002800400023CA2213B50193114B5A6235
:1040A000773A5A62002806D080219A68C9000A43EC
:1040B0009A60012012E099680B4A80240A4004218A
:1040C0009A60E401D868019A01320192019AA242F1
:1040D00001D00842F6D0D8684007C00FFF225A62CC
:1040E00016BDC04600280040FFFBFFFF002382B042
:1040F0000193054B80000193019BC0180190019B27
:10410000196002B07047C04650280040002382B0BA
:104110000193054B80000193019BC0180190019B06
:10412000186802B07047C04650280040CA220F4BA2
:1041300010B55A62773A5A624F3A002908D0040003
:104140009968944321439960196C02400A4308E03E
:10415000040099689443A1439960196C024091430B
:104160000A001A64FF225A6210BDC04600280040AF
:10417000000980B2802203001343D843034910B5DD
:10418000CC6822401043C86010BDC04600280040E3
:104190000E4B10B598420AD1802001214001FFF753
:1041A00009FF802000214001FFF704FF0CE0084BCD
:1041B000984209D180200121C001FFF707FF80202C
:1041C0000021C001FFF702FF10BDC04600300140D2
:1041D00000380040C12310B504889B010A881C40A8
:1041E000CB891343CA8813430A8913434A8913436B
:1041F0008A891343234303808288094B13408A88AA
:104200001343042283800B8A0382038893434A88E2
:1042100013430380828B034B1340838310BDC0463E
:10422000FFF0FFFFFFF7FFFF40220388002901D0C6
:10423000134300E093430380704700008288034BE0
:10424000134083808388194381807047FFEFFFFF0D
:1042500001737047007BC0B270478388002A02D088
:104260001943818001E08B438380704703891940A3
:104270000800411E8841C0B270470000032310B5FA
:104280000F240B409B009C409840054A89108900F0
:1042900089188A68A2438A608A681043886010BDC2
:1042A0000000014030B50388154C9BB2A04206D0F7
:1042B0008022D205904202D0124A904203D170224D
:1042C00093434A881343104A904203D00F4A0D8902
:1042D00013402B4303804B68C3620B880385A042C5
:1042E00008D00B4B984205D00A4B984202D00A4B9B
:1042F000984201D18B7A03860123838230BDC04668
:10430000002C01400004004000100040FFFCFFFFB3
:1043100000400140004401400048014001235B424D
:1043200043600023038003814380837270474162AE
:104330007047C162704701220388002901D01343EE
:1043400000E09343038070470122F0B50D0003683D
:104350008BB0934303604268224B040013408A6889
:10436000134343600268204B1A404B68C9680B43F3
:1043700029690B431343036082681C4B13406A692D
:10438000134383606846FFF713FD194B069E9C425A
:1043900008D0184B079E9C4204D0174B089E9C42A5
:1043A00000D0029E23682F681B0400D576003900D8
:1043B0003000FCF789FA390005003000FCF70AFBF1
:1043C00000237F08B9425B41ED1823681B0404D524
:1043D0000A4B2A07520F1D401543ADB2A5810BB001
:1043E000F0BDC046FFCFFFFFF3E9FFFFFFFCFFFF7B
:1043F000003801400044004000480040F0FF000049
:1044000001220368002901D0134300E093430360B5
:1044100070470000002904D0802203681202134371
:1044200002E00268014B134003607047FF7FFFFF0B
:10443000C905C90D01857047808CC005C00D704746
:10444000FF2310B50C121C401940FE3B8B40022C80
:1044500001D1043002E0032C00D10830002A02D040
:104460000268134302E002689A431300036010BD20
:1044700010B50121002016F04FFF10BDF8B516F061
:10448000E1FD402016F0A8FC0320FFF73FFEFF23CC
:104490000200694D04009A432900AA4201D1013467
:1044A00021000320FFF722FE16F09AFD16F0E8FB2C
:1044B00015F014F816F082FF002016F00DFF16F02C
:1044C000F1FE16F097FDFFF7D3FF15F093FF16F0FE
:1044D000B1FF18F09BFA17F06BFF18F07BFA00F0B1
:1044E00085FEFFF7C5FF06F055FC544E307916F0F7
:1044F0000DFCFFF7BDFF16F0BBFCFFF7B9FF17F08F
:1045000051FCFFF7B5FFFFF7B3FF307917F018FB49
:10451000FFF7AEFF04F0A8FAFFF7AAFF05F0E4FCEE
:1045200017F032FCFF2322009A43AA4209D11C4013
:104530000A2C02D906F028FC07E0FA20800016F0C9
:1045400021FD06F0FBFA06F08BFAFFF791FF16F05B
:1045500041FA002016F0D0FE39490320FFF7C6FDCE
:104560000326FDF78FFB13F06DFB15F013FC354DA3
:10457000280001F003FE04F041F800282FD115F0C7
:1045800049FE002801D104F057F816F0AFFC2E4B7D
:104590001A68904225D90F30186016F04FFD15F0BB
:1045A000ADFC16F0E9FA16F0BFFA002819D117F0A1
:1045B000F5FA16F0C1FA002801D103F0CFF904F0A2
:1045C00049FA15F035FE16F017FE16F00FF915F042
:1045D000CDFB05F0F7FB1D480DF0FCFB01E015F0ED
:1045E00019FE002016F070FE0400477816F0B8FEA1
:1045F000280001F070FE0028B5D116F077FCA289E2
:10460000134B9A4204D1FA239B00A381A0606060FF
:10461000002FA8D16378002BA5D00B4A1379013362
:10462000DBB21371334203D1FA239B00C01800E0C0
:104630006430A06097E7C04600A0B349500B00204B
:1046400050500000B006002078050020A80D002082
:10465000FFFF000010B51AF047FD10BD10B51AF0AD
:1046600043FD10BD10B51AF049FD10BD10B51AF08C
:1046700045FD10BD054B02001968002901D1044910
:104680001960186882181A607047C04680050020BB
:10469000C8150020430910B5DBB2C20601D00133B2
:1046A000DBB2002201241000D1B28B4204D92100D8
:1046B000914001320843F7E710BD00001F23F7B512
:1046C000034002D02030C01A80B2FFF7E3FF00257C
:1046D00003002C0029001D4E0090002B05D1611C09
:1046E000C9B222292AD918002EE0222C24D8621C13
:1046F000D2B2002901D0232A1ED0A00087590190F0
:104700001800384098420FD19200905908408842D2
:104710000AD19F43019BF750B3588B43B350BA2340
:104720001B01E81840010FE04900002B01DA0122CB
:1047300011435B000135D0E7002005E00234E2B20E
:10474000009B0C000021D8E7FEBDC0468405002078
:1047500070B5002925D0134BC4181F206609A40A80
:10476000651C084002D02031091A89B20800FFF701
:1047700091FF1F2300221E4001211300B24207D0E7
:104780005B00002800DA0B4301324000D2B2F5E7AB
:10479000054AA400A158AD000843A050A9580B43F6
:1047A000AB5070BD008CFEFF84050020012100236A
:1047B000034A4942995004338C2BFBD17047C046C1
:1047C0008405002070B50D009C3198350C78286860
:1047D000E400002802D0A1B2FFF7BAFFA0B2FFF7B1
:1047E0006DFF286070BD70B50C00D8342068DC31D6
:1047F0000D78002803D00C216943FFF7A9FF0C2096
:104800006843FFF75BFF206070BD0A0070B50D00C4
:10481000EC32EA351088E8312B880C780004184314
:10482000E400002802D0A1B2FFF792FFA0B2FFF788
:1048300045FF030C28806B8070BDA431086810B55B
:104840000C00002802D04421FFF782FF4420FFF72C
:1048500035FF206010BD032310B50A000979C46834
:104860004B43E31800249C7000F0D9FA10BD0323D9
:1048700059430023C26851188B70704710B500234C
:10488000FF2913D003244C43C3681C19A278D30713
:1048900005D402231A40131E08D000F0CDFA637825
:1048A00022781B021343802292059B18180010BD2A
:1048B00002000020FF290FD003235943D368591861
:1048C00001238A781340181E06D048780B7800021E
:1048D000184380239B05C018704710B5D0004018BE
:1048E0001A00082117F06CFE10BD10B50800142145
:1048F00017F066FE10BD10B508000C2117F060FE21
:1049000010BD0000802310B504005B00F0220021E0
:1049100000F0CEFA024B20000833236010BDC046E1
:10492000ECF2010870B503230D006B431A00C16857
:1049300004008A1850785B5C0002184380239B05B2
:10494000C618084BC0180FF0E7F830000DF073FBE5
:10495000002802D030000EF0F9FE2900200000F0FF
:10496000D8F970BD90000020F8B504000E0018F0D2
:104970002BF8002804D13100200000F0A7F98AE0CC
:1049800003237343E268D3189A78910700D482E036
:10499000D20733D51A785B781B0213438022920525
:1049A0009D183D4A9A181068002805D03B4A9B186C
:1049B0001978C900FFF7CCFE28000DF03CFB002859
:1049C000D9D02B00D8331868002805D00C21043327
:1049D0001B785943FFF7BCFE2A002B00EC32EA3368
:1049E00010881B880004184305D02B00E833197881
:1049F000C900FFF7ADFEA435286845E02589636846
:104A00007543ED1829002000983100F0CEF9071EFB
:104A100009D0290020009C3100F0A1F9C00081B22A
:104A20003800FFF795FE29002000183100F097F9B3
:104A30000DF0F7FD00289ED029002000D83100F0AD
:104A4000B4F9071E0AD029002000DC3100F087F9F4
:104A50000C23584381B23800FFF77AFE290020006A
:104A6000EA3100F0A2F9071E09D029002000E83140
:104A700000F075F9C00081B23800FFF769FE290027
:104A80002000A43100F091F9002800D173E74421FF
:104A9000FFF75EFE6FE7F8BD980000209C00002045
:104AA000F7B593B21600802292059C18324A019104
:104AB0009A1817780500002F10D0304A9B181868F4
:104AC000002805D121002800FFF77CFE002805D032
:104AD00023009433F9001A6817F002FE20000DF04D
:104AE000AAFA002842D02300DC331F78002F10D010
:104AF000043B1868002805D121002800FFF773FE49
:104B0000002806D023000C21D43379431A6817F00B
:104B1000E7FD2300E8331F78002F13D02200EC328A
:104B2000023310881B880004184305D12100280097
:104B3000FFF76BFE002805D02300E433F9001A6864
:104B400017F0CEFD2700A0373B68002B0ED02300C6
:104B5000A4331868002805D121002800FFF76DFE56
:104B6000002803D03A68442117F0BAFD320028002B
:104B7000019900F0B4F8F7BD9C00002098000020D7
:104B8000F0B585B0140000F0B7F88023A2B29B0501
:104B9000D7184B4BD51800232B604A4BD3181C68F1
:104BA000494BD218002C15D01678002E0DD0F600E7
:104BB0003000FFF753FD310002002860200017F09D
:104BC000FFFCB1B22000FFF7C3FD3B000022983389
:104BD0001A6000E0147038000DF02DFA00286CD037
:104BE0003E000023D43633603B00D8331D680433C5
:104BF000002D27D01C78002C1FD00C216143080009
:104C00000191FFF72BFD013C0290039000230398D4
:104C10001A00190018F032FD039B0C330393013C7A
:104C2000F4D2029B019933601A00280017F0C8FCE7
:104C30006B4628009988FFF78BFD3B000022D83394
:104C40001A6000E01D703E000023E43633603B0034
:104C50003A00EA330193EC3215881B882D041D437A
:104C60003B00E833002D15D01C78002C0DD0E4005B
:104C70002000FFF7F3FC210002003060280017F04D
:104C80009FFCA1B22800FFF763FD0023019A138067
:104C9000538000E01D703D000023A0352B603B00D9
:104CA000A4331C68002C08D04420FFF7D3FC442117
:104CB00002002860200017F083FC05B0F0BDC0465C
:104CC00094000020980000209C0000200323022272
:104CD0005943C36859188B7893438B70704780236E
:104CE00070B505899B05694392B2D2184368C8180C
:104CF000290017F0F5FC70BD802370B505899B0570
:104D0000694392B2D2184368C818290017F058FCBA
:104D100070BD032310B55943C468641860782378C4
:104D20000002184380239B05C018FFF79BFC01225B
:104D3000A3789343A37010BD13B501AC0800220003
:104D4000012117F03DFC207816BD07B501AB080026
:104D50001A7001211A0017F0C3FC01200EBD13B513
:104D600001AC08002200012117F02AFC207816BDB2
:104D700013B51400080001AA0121147017F0B0FC4B
:104D8000200016BD13B501AC08002200022117F067
:104D900017FC208816BD13B51400080001AA0221D3
:104DA000148017F09DFC200016BD07B5080001AA6D
:104DB000042117F005FC01980EBD13B514000092F4
:104DC00008006A46042117F08BFC200016BD07B5C9
:104DD000080001AA042117F0F3FB01980EBD13B5DA
:104DE0001400009208006A46042117F079FC2000A4
:104DF00016BD002370B50400150019001A0018F044
:104E00003DFC280022000C2117F0DAFB200070BDC9
:104E100010B508000C2117F063FC002010BD03231F
:104E20005943C368012059188B78034390B28B70A3
:104E3000030A08704B70704770B504000E0017F03D
:104E4000C3FD051E0DD02089FFF704FCF1B202005E
:104E50002000FFF7E4FF236802005B6831002000B8
:104E60009847280070BDF8B505000F0017F0ACFD9D
:104E7000061E1BD003247C43EB681C190123A27877
:104E8000134012D06278237812021A432B6839003B
:104E900028001B6898470222A37839001343A370A7
:104EA0002B6828009B68984700E01E003000F8BD82
:104EB00070B51E0003250D4B4160183303600400DC
:104EC0000281068228007043FFF7C8FB0023190007
:104ED000E0609AB2964206D92A005A43E06801334C
:104EE00082189170F5E7200070BDC0462CF30108D0
:104EF0000B0070B544331C78886C0D00A4000028AA
:104F000002D0A1B2FFF724FCA0B2FFF7D7FBA86440
:104F100070BD70B5C8690C7E0D002401002802D058
:104F2000A1B2FFF715FCA0B2FFF7C8FBE86170BDA6
:104F3000032310B50A000978C4684B43E318002422
:104F40009C70FFF76CFF10BD10B50023FF2913D034
:104F500003244C43C3681C19A278D30705D4022349
:104F60001A40131E08D0FFF767FF637822781B02F0
:104F70001343802292059B18180010BD02000020E8
:104F8000FF290FD003235943D368591801238A7886
:104F90001340181E06D048780B780002184380236F
:104FA0009B05C018704700008023F02110B5040055
:104FB0005B0084220902FFF77BFF024B20000833CD
:104FC000236010BD9CF30108032370B54B43C268F6
:104FD0000400D3189A780D00D2070FD55E781A789E
:104FE0003602074B1643F01817F05AFD054BF01820
:104FF00007F040FC29002000FFF78BFE70BDC04683
:105000003C00002010000020F8B504000E0017F04E
:10501000DBFC002804D131002000FFF757FE45E0FB
:1050200003237343E268D3189A7891073ED5D207D9
:1050300015D51A785B781B021343802292059D18C0
:10504000A86C002805D01A4A9B1819788900FFF728
:105050007FFBE8690028DED0297E090123E025894D
:1050600063687543ED18290020004831FFF79DFE65
:10507000071E09D0290020004431FFF770FE800090
:1050800081B23800FFF764FB290020001C31FFF7D4
:105090008CFE071EBFD0290020001831FFF75FFEED
:1050A000000181B23800FFF753FBB4E7F8BDC046FA
:1050B00044000020F7B593B21700802292059C1897
:1050C000144A01919B181D780600002D0CD0A06C8D
:1050D000002805D121003000FFF70AFF002803D087
:1050E000A900226C17F0FCFA257E002D0CD0E06997
:1050F000002805D121003000FFF70BFF002803D066
:105100002901626917F0ECFA3A0030000199FFF7C3
:10511000E6FDF7BD44000020F7B51400FFF7ECFDF5
:105120008022A3B292059C180022A66C22649642AB
:1051300014D01F4A9B181D78002D0DD0AD002800FB
:10514000FFF78CFA290002002064300017F038FACB
:10515000A9B23000FFF7FCFA0023A3640023E6693C
:1051600063619E4223D0257E9D421ED02B011800F4
:105170000193FFF773FA0700031D0093013D00231D
:1051800000981A00190018F079FA009B1033009368
:10519000013DF4D2019967613A00300017F010FA2E
:1051A0006B4630009988FFF7D3FA0023E361F7BD1F
:1051B0004400002010B50068FFF755FE10BD10B583
:1051C0004068FFF750FE10BD70B504001420FFF7D3
:1051D00041FA0500FFF796FB25601420FFF73AFA25
:1051E0000500FFF7E1FE6560200070BD10B5FFF718
:1051F000DDFA10BD10B50248FFF7E6FF10BDC0464E
:105200001006002010B50400034B083303608068CB
:10521000FFF728FA200010BDDCF3010810B50400E8
:10522000024B0360FFF7EEFF200010BD10F90108EC
:1052300010B50400FFF7E6FF2000FFF713FA200087
:1052400010BD10B50400FFF7E9FF2000FFF70AFAD0
:10525000200010BD10B50100044801F01CFBFF2820
:1052600003D00322172102F08FFF10BDB0060020EB
:1052700010B50449C068FCF75BF8FBF701FD0005B9
:10528000000D10BD4C3D0F4410B5054A038A9342F2
:1052900002D1FFF7EDFF01E01805000D10BDC0467B
:1052A000FFFF0000F8B505000E00170000246B7921
:1052B000A34212D9AB68F119185D3300994205D0A9
:1052C00001335A1E12788242F8D103E0002801D03F
:1052D000FFF7C0FF0134E4B2E9E7F8BD70B50400A0
:1052E00040790D00FFF7BAF90023A06062799A4275
:1052F00005D9EA5CA168CA540133DBB2F6E770BD98
:10530000F7B5040008A8077809A8067801AD002BB6
:1053100002D02A70697001E029706A7029002000AB
:105320000222FFF7BFFF2B78A26813706B78A26888
:105330005370A77440342670F7BD0000F0B587B0F5
:1053400001930CAB1B78002502930DAB1B78040076
:10535000039301230371DB1843711F4B85600360C6
:105360000F002B002900160014302A0018F086F9CF
:1053700020002B002A002900203018F07FF920009F
:105380002B0029002A00303018F078F92000443032
:1053900018F09AF8019B05A9AB4202D00E704F702D
:1053A00001E00F704E702000FFF798FF6B461B7AEC
:1053B0006A46A3742300127B40331A702200012333
:1053C0002C32137013740023E360012320005B422E
:1053D000238207B0F0BDC04610F90108F7B56B464F
:1053E0000D00002100AF7B60037804008B420CD1DC
:1053F000012303700420FFF731F960600AE08A009E
:10540000801802680131002A04D0CAB26068934251
:10541000F5D801E0056027E09B001A0069460A32D2
:10542000D208D2008A1A954600226E468158B150A1
:1054300004329342FAD1002801D0FFF717F92078FF
:1054400001308000FFF70AF900236060227861686C
:10545000934205D29A00905901338850DBB2F5E7A8
:10546000531C920023708D507B689D46BD46F7BD4E
:10547000F0B50400002785B0019102922378BB4269
:105480003AD96368BE009B59002B32D05A790299F1
:10549000131C8A4201D96B461B7A0025DBB20093AC
:1054A000009AEBB2934224D263689859002820D026
:1054B000836800995B5D8C460393019B1A006244EC
:1054C0009446634513D00133591E0978039A9142DB
:1054D000F7D1009A0199FFF7E5FE63689859002813
:1054E00002D003685B6898470023626893510135D6
:1054F000D6E77B1CDFB2C1E705B0F0BD0022F0B5F6
:105500000578D3B29D4211D9446893001B59002BF2
:105510000AD000245F79E6B2B74205D99E68365DAD
:1055200001348E42F7D102E00132EAE7002318008D
:10553000F0BDF7B50022130006780191D4B2A6425F
:1055400016D9456894006559002D0FD000246F7955
:10555000E1B28F420AD9A968095D8C4601998C4550
:1055600002D1002B06D12B000134F1E70132E5E72F
:10557000180000E00020FEBDF7B5080009AC1100DE
:1055800026781A000AAC08AB27781B78041E08D0CE
:1055900005790024012D04D101970096FFF7B0FE94
:1055A0002C002000FEBDF0B5937A05000C0007200A
:1055B0001900D67A89B00140A64200D00F201F0002
:1055C0008743012925D1DB080B400593137B21007C
:1055D00028000693FFF792FF069B01000193059BAD
:1055E00002970093220033002800FFF7C5FF002830
:1055F0000FD15030FFF72EF8069B21000093019742
:10560000059B32000790FFF799FE07992800FFF7E6
:10561000E5FE09B0F0BDF0B5967A0D003300072124
:10562000D47A8BB007000B40AC4200D00F21300081
:1056300088430590002B0CD109A9022238000D7077
:105640004C70FFF715FF002C39D02000FFF702FE49
:1056500035E0012B33D1137B0793002C02D02000BF
:10566000FFF7F8FD3607F30F290038000693FFF720
:1056700060FF059B01000293079B2A000193069B94
:10568000380000932300FFF777FF002817D109A9FE
:10569000022238000D704C70FFF7EAFE5020FEF732
:1056A000D9FF0600059B29000193079B2200009368
:1056B000069BFFF743FE31003800FFF78FFE0BB06B
:1056C000F0BD70B50D001400FFF718FF002804D1DD
:1056D0000123A072E372093322E04379012B20D920
:1056E0000379012B1DD1826851781678020040326F
:1056F0008E4203D1082112788A4303E08D4206D1FD
:10570000137809221343A37283681B7806E00821EB
:1057100012788A431343A37283685B78E372837CB5
:10572000237370BD30B5002110250478CBB29C42A4
:105730000ED942688B00D3181A68002A06D0127955
:10574000012A03D140331B782B4203D10131EDE70D
:10575000002000E0100030BD0022024B5A601A7099
:105760007047C0461806002070B5144D04002B0089
:10577000463318783F231840FCF796F81049FBF79A
:105780000DFCFC218905FBF793FAFBF779FA2B0056
:105790000F2145331B78C0B21B1101330B401A0097
:1057A000031C884200D90B1CDBB21B01134323707E
:1057B0000F2345352A781340637070BD500B0020CD
:1057C0008FC2554010B5042016F018F8014BC018D0
:1057D00010BDC046B80B000010B515F087FB034B99
:1057E0001B6898428041404210BDC0462006002000
:1057F000014B18797047C04620060020014B1878ED
:105800007047C046A800002070B50F4D00222B0045
:10581000280028331A7000F0AFFD01240600B442BE
:1058200011D22100280000F069FDFF2808D00DF0FA
:105830006BFC012804D12A0028321378013313703D
:105840000134E4B2EBE770BDB0060020F7B5214D9E
:105850000124280000F090FD07000195BC4237D2DA
:105860002100019800F04AFD051EFF2D2DD00DF0FE
:1058700029FC002829D0184B0121186803236B4309
:10588000C268D3189A780A4208D01A785B781B024B
:105890001343802292059B181E7E05E0F021694388
:1058A0001831FFF75CFA060030000CF075FE002896
:1058B00003D028000DF06AFC07E030000CF07CFEFD
:1058C000002802D028000DF071FC0134E4B2C5E7D5
:1058D000F7BDC046B006002010060020F7B5174DF2
:1058E0000024280005F096FB0327019506000125FA
:1058F000B44221D02100019805F0AAFB011EFF2926
:1059000017D00F4B58683B004B43C268D3189A78A6
:105910002A4207D01A785B781B021343094A9B1866
:105920001D7006E084235943074B0122C918FFF775
:105930000CFA0134E4B2DBE7F7BDC046C406002030
:10594000100600206800002068F0000010B500215B
:1059500003480CF041F803480CF00EFA10BDC046A5
:10596000C00D0020A80D0020F7B5234D012428719B
:10597000224800F001FD0190FFF724FF00262F00D0
:105980000090019B9C422AD221001C4800F0B6FCEA
:10599000051EFF2D20D01A4B0121186803236B43ED
:1059A000C268D3189A780A4208D01A785B781B022A
:1059B0001343802292059B18187E04E0F02169436E
:1059C0001831FFF7CCF90CF0F7FD002804D02800BF
:1059D0000DF0FCFB009BF6180134E4B2D1E715F0A2
:1059E00085FAFA21040089003000FAF76DFF0534CA
:1059F00000193860F7BDC04620060020B006002020
:105A000010060020224BF7B51870224800F0B4FCB5
:105A10000700FFF7D7FE012400260190BC422AD2DE
:105A200021001C4800F06AFC051EFF2D20D01A4BF7
:105A30000121186803236B43C268D3189A780A427D
:105A400008D01A785B781B021343802292059B18BA
:105A5000187E04E0F02169431831FFF780F90CF05B
:105A6000ABFD002804D028000DF0E8FB019BF618E0
:105A70000134E4B2D2E715F039FAFA2104008900C2
:105A80003000FAF721FF0534044B00191860F7BD08
:105A9000A8000020B00600201006002020060020EC
:105AA000F7B5224800F068FC00250700FFF78AFEE2
:105AB00001241F4B01905D71BC422AD221001B487A
:105AC00000F01CFC061EFF2E20D01A4B0121186886
:105AD00003237343C268D3189A780A4208D01A780D
:105AE0005B781B021343802292059B18187E04E00A
:105AF000F02171431831FFF732F90CF05DFD0028F9
:105B000004D030000DF0E0FB019BED180134E4B24D
:105B1000D2E715F0EBF9FA21040089002800FAF722
:105B2000D3FE0534044B00191860F7BDB006002001
:105B3000C00D00201006002020060020F0B58BB01C
:105B4000029040200D00140002F046F9002D19D0FB
:105B5000012D00D011E1002604A803F02DFC069BC6
:105B6000A67023701B0A6370E670FFF72BFE0A21F4
:105B7000FAF7AAFE2071000A6071814800F0FCFB70
:105B80000190BCE0012604A803F016FC049B7C48AD
:105B900023701B0A6370059B3700A3701B0AE37018
:105BA00000F0EAFB0390039BB34227D9310074480D
:105BB00000F0A4FBFF281ED0724B1A680323434356
:105BC000D168CB189978394208D01A785B781B02D3
:105BD0001343802292059B18187E06E0F023584359
:105BE000010010001831FFF7BAF80CF0D5FC0028BE
:105BF00001D00135EDB20136F6B2D4E7AE08AB07FD
:105C000001D00136F6B22671002E03D00023012503
:105C100001930BE06671A67138E02900584800F046
:105C20006DFB071EFF2F05D10135EDB2039BAB4283
:105C3000F3D82BE0534B0121186803237B43C26840
:105C4000D3189A780A4208D01A785B781B0213435B
:105C5000802292059B18187E04E0F02179431831C8
:105C6000FFF77DF80CF098FC0028DDD0029BBB42CA
:105C700007D1019B019A9B08637103231340A37111
:105C800004E0019B0133DBB20193CDE70023200048
:105C9000E3710830FFF768FD3A4B029A1868032356
:105CA0005343C268D31899786279C90709D519781E
:105CB0005B7812021B020B43334916435B181E60CC
:105CC00007E0F021029B1202594332438C31FFF767
:105CD00074F8FA212A4D8900280000F0ADFD21005A
:105CE000686A0A31FCF765F90E2047E038002900A0
:105CF00000F004FB071EFF2F06D10135EDB2019B1A
:105D00001F4FAB42F2D821E01E4B0121186803233C
:105D10007B43C268D3189A780A4208D01A785B7815
:105D20001B021343802292059B18187E04E0F02189
:105D300079431831FFF713F80CF03EFC0028DCD053
:105D4000029BBB42D9D90136F6B2D6E70122200028
:105D50000E4BA6711A700E4B083044331B78E3715A
:105D6000FFF702FD00232100A372E3722373786A18
:105D70000D31FCF71EF9112000E000200BB0F0BD42
:105D8000B0060020100600208C000020B800002083
:105D9000500B0020887843425841C0B27047000041
:105DA00010B58B785C425C41E4B2002B07D1010056
:105DB000044800F070FDFF2801D00DF039FA2000F2
:105DC00010BDC046B006002010B58B785C425C4127
:105DD000E4B2002B07D10100044800F05CFDFF286D
:105DE00001D00DF05DFA200010BDC046B0060020C5
:105DF00010B58B785C425C41E4B2002B07D1010006
:105E0000064800F048FDFF2801D00DF08DFA210072
:105E100003480BF075FF200010BDC046B0060020FF
:105E2000C00D0020024B034A1B789B009858704716
:105E3000A806002028060020034A53781078181A74
:105E400043425841C0B27047A80600201F22054BAC
:105E500058781B7801301040181A43425841C0B29C
:105E60007047C046A806002010B50D4B59781A7827
:105E7000914210D01F230B4C194013008B420AD0C3
:105E80009A00A2185278824208D00133DBB2002275
:105E90001F2BF3D9F1E70120404200E0180010BDAC
:105EA000A80600202806002010B50C4B00225978C7
:105EB0001B7899420FD01F32094C0A40934207D2F7
:105EC000990061188978814204D20133DBB2F5E789
:105ED000002200E00122100010BDC046A8060020EC
:105EE0002806002070B5022A1FD0104C002A0ED1BF
:105EF0001F256278561C35402678AE4215D00C4ED0
:105F000092009055B2185170937065700DE0227830
:105F1000002A01D11F3200E0013A22702278044C9D
:105F200092001055A2185170937070BDA806002001
:105F300028060020F8B504000D00FFF77DFF0300E0
:105F4000FF20002B2ED1E0388446174A174E1378D5
:105F500051788B4223D09F00B85D844201D0FF2C42
