:020000040800F2
:10800000384D0010A5810008C3C60008EBC2000867
:10801000C1C600080D8B000817EB00080000000027
:1080200000000000000000000000000057CC000825
:10803000978B00080000000079C7000859CC0008A1
:10804000BF810008BF810008BF810008BF81000810
:10805000BF810008BF810008998B0008BF8100081C
:10806000BF810008BF810008BF810008BF810008F0
:10807000BF810008BF810008BF810008BF810008E0
:10808000BF810008BF810008BF810008BF810008D0
:10809000BF810008BF810008BF810008D18B0008A4
:1080A000BF810008BF810008BF810008BF810008B0
:1080B000BF810008BF8100085DCD0008BF810008B6
:1080C000BF810008BF810008BF810008BF81000890
:1080D000BF810008BF810008BF810008BDD3000830
:1080E000C18B0008BF810008BF810008BF81000864
:1080F000BF810008BF810008BF810008BF81000860
:10810000BF810008BF810008BF810008BF8100084F
:10811000BF810008BF810008BF810008BF8100083F
:10812000BF810008BF810008BF810008BF8100082F
:10813000BF810008BF810008BF810008BF8100081F
:10814000BF810008BF810008BF810008C5C60008C4
:10815000BF810008BF810008BF810008BF810008FF
:10816000BF810008BF810008BF810008BF810008EF
:10817000BF810008BF810008BF8100080000000027
:10818000BF810008BF810008DFF814D000F07AFB3F
:1081900000F0B4F8004800476176020800F088FA61
:1081A000384D00100648804706480047FEE7FEE7C6
:1081B000FEE7FEE7FEE7FEE7FEE7FEE7FEE7FEE797
:1081C00019CD0008898100082DE9F05F05460020DF
:1081D00092469B4688460646814640241BE0284638
:1081E00041464746224600F032FA53465A46C01AE4
:1081F000914110D311461846224600F019FA2D1A63
:1082000067EB01084F4622460120002100F010FADA
:1082100017EB00094E41201EA4F10104DFDC4846A3
:1082200031462A46434600F000B830BCBDE8C09F46
:108230002DE9F0410024061B254671F1000605DA00
:1082400001240027D0EB070067EB0101161E73F134
:10825000000605DA0027D2EB0702012567EB0303CE
:10826000FFF7B2FF86460E4617469C46AC4204D046
:108270000025D0EB050E65EB010624B10020D2EB02
:10828000000760EB030C704631463A466346BDE892
:10829000F08140EA01039B0703D009E008C9121FDF
:1082A00008C0042AFAD203E011F8013B00F8013BB0
:1082B000521EF9D27047D2B201E000F8012B491EDC
:1082C000FBD270470022F6E710B513460A46044673
:1082D0001946FFF7F0FF204610BD421C10F8011BA5
:1082E0000029FBD1801A7047034611F8012B00F8D2
:1082F000012B002AF9D118467047000070B5054CD3
:10830000054D03E0206820448047241DAC42F9D18C
:1083100070BD0000FC960208109702082DE9F0419C
:10832000074615460E4610201FF094FA04000AD0A6
:108330006760C4E9026500F0ADF90168216004607E
:108340000020BDE8F0810120FBE72DE9FE4F8046CB
:1083500081EA0300C00F0C46009021F0004123F099
:108360000045B8EB0200A94105D24046214690469F
:108370001C460B46024623F00040104347D0270D11
:10838000C7F30A00C3F30A510290401A0190402833
:108390006BDAC3F3130040F4801B0098924620B1BF
:1083A0000023D2EB030A63EB0B0B01985946C0F193
:1083B0004002504600F03CF906460D4650465946EC
:1083C000019A00F054F910EB08006141002487EA9B
:1083D000115284EAE7731A4340D0009A62B3019ABB
:1083E000012A4FEA075215DC001B61EB02014FF036
:1083F000004202EA0752CDE90042001C41F580111B
:1084000032462B4600F0BBF903B000F045B84046B9
:108410002146F9E7001B61EB0201001C41F58013C6
:1084200000185B412018A2F5001747EB030140EA52
:10843000D570B6196D4111E06D084FEA360645EA70
:10844000C0754FEA0752001B61EB0201001C41F5A9
:10845000801149084FEA30000019514132462B463D
:1084600003B000F01CB800F07BB900980122400076
:108470000023D0EB020263EBE073009821464FEA41
:10848000E074B8EB000061EB0401E9E783F000431E
:108490005BE781F0004158E730BCBDE8C08F30BCDD
:1084A000BDE8C04FFFF7DFBF2DE9FE4F81EA0304AF
:1084B00004F0004421F0004100944FF0000B23F041
:1084C000004350EA01045ED052EA03045BD0C3F3D8
:1084D0000A54C1F30A552C44A4F2F3340194A0FBCE
:1084E0000254C1F3130141F48011C3F3130343F4A5
:1084F000801301FB024400FB034E840A970A44EAFE
:10850000815447EA8357A4FB076802958D0A05FB4F
:1085100007854FEA932C04FB0C542705029D4FEA74
:10852000065847EA1637B5EB08056EEB070C870EC1
:10853000920E47EA811742EA8312A7FB0201B6EBCB
:108540000B0164EB00042B0D43EA0C335E1844EB83
:108550001C50DA465146E7FB0201C5F313044FEA0B
:108560000B3343EA14534FEA0432019C43EA0603F7
:10857000A4F10C040294009CCDE900B400F0FFF8D3
:1085800003B000F003B800200146F9E730BCBDE8B5
:10859000C08F0EB5C10F80EAE0700844CA07002101
:1085A00040F233438DE80E000A460B4600F0E7F830
:1085B00003B000BD0EB540F2334102910021CDE978
:1085C00000110A460B4600F0DAF803B000BD00F0D7
:1085D000004230F000400AD0C10D01F56071C0F3D7
:1085E000160042EA0151C2084007114370470020BB
:1085F0000146704701F0004330B421F0004150EAD9
:10860000010206D00A0DA2F56072C1F31301002A1F
:1086100002DC30BC00207047440F44EAC104C100B2
:10862000E01830BC00EBC25000F063B800F0F5B8C1
:10863000202A04DB203A00FA02F100207047914022
:10864000C2F1200320FA03F3194390407047202A17
:1086500004DB203A21FA02F00021704721FA02F3EC
:10866000D040C2F120029140084319467047202AA9
:1086700006DBCB17203A41FA02F043EAE07306E04A
:1086800041FA02F3D040C2F120029140084319465A
:1086900070470000004870477001001003487047A1
:1086A0000248001D011F8860001D704768020020FD
:1086B0002DE9F0410646FFF7EDFF8046454613E001
:1086C00016B1E068B0420ED120682860D4E90101FB
:1086D000D8F80070884720461EF0C0FCD8F800008B
:1086E000B842EBD100E025462C68002CE8D1BDE86B
:1086F000F0810029A8BF7047401C490008BF20F046
:108700000100704710B4B0FA80FC00FA0CF050EA97
:10871000010404BF10BC704749B1CCF1200421FA18
:1087200004F411FA0CF118BF012121430843A3EB13
:108730000C01CB1D4FEA00614FEA102042BF002020
:1087400010BC704700EBC35010440029A4BF10BCFC
:108750007047401C490008BF20F0010010BC704762
:1087600010B5141E73F1000408DA401C41F1000139
:1087700092185B411A4301D120F0010010BD2DE990
:10878000F04D92469B4611B1B1FA81F202E0B0FA87
:1087900080F220329046FFF74BFF04460F4640EA36
:1087A0000A0041EA0B0153465A46084313D01146CA
:1087B00053EA010019D0C8F140025046FFF747FFC5
:1087C00005460E46504659464246FFF731FF0843DC
:1087D00005D0012004E020463946BDE8F08D002098
:1087E000054346EAE0762C4337430A986305E40ADA
:1087F000A0EB08000022FD0A44EA47540A3002D5E3
:1088000000200146E9E7010510196941DDE9084545
:1088100000196941BDE8F04DA2E710B500F00DF870
:10882000016919B100220261884701E08068804730
:10883000AFF3008010B5AFF3008070B5FFF730FFE5
:1088400004680546A4B920201FF004F8040011D0E4
:10885000094900202C60C4E900010849A160207387
:10886000206160610649A06109B100F02DF8E06166
:10887000204670BDAFF3008000000000358800087E
:1088800000000000064C074D06E0E06840F00103E0
:1088900094E8070098471034AC42F6D3FFF778FC11
:1088A000BC960208FC96020870472DE9F041164676
:1088B0001F460C46851B02E02846B847AD1B641EC8
:1088C000FAD2BDE8F08100DE10B588201EF0C2FFAC
:1088D000002801D00021017010BD802902D808B104
:1088E000017809B100207047012100F8081B70478A
:1088F00018B100F10802914201D000207047002118
:108900000170704770B58C1810F8015B15F0070303
:1089100001D110F8013B2A1106D110F8012B03E018
:1089200010F8016B01F8016B5B1EF9D12B0705D420
:108930000023521E0DD401F8013BFAE710F8013B69
:10894000CB1A921C03E013F8015B01F8015B521E85
:10895000F9D5A142D8D3002070BD00231A4619468C
:108960000AF0F9BF2DE9F04104460E4600250068E3
:1089700003F0E7FC0746206803F0DBFC074357D011
:108980002068C168890111D5617E01290ED1217E3F
:1089900001290BD10126274902E08D4239D26D1CF5
:1089A0000268D2435206F8D440210160224D022EC3
:1089B0000FD0206803F0C5FC48B120688168C1F37E
:1089C000400121B98168294041F010018160012EE8
:1089D0000DD0206803F0ADFC48B120688168C1F378
:1089E000400121B98168294041F020018160022EB7
:1089F00008D0032E04D0042501F0C4F9064613E084
:108A00000C25F9E70825F7E701F0BCF9801B0528DC
:108A10000AD9606D40F010006065A06D40F0010063
:108A2000A0650120BDE8F081206880682842EBD174
:108A30000020F7E7000040A3C0FFFF7F70B50446A9
:108A400000688168C1F3400503F077FC28B325BBBB
:108A50002068816801F00D01012910D18168104A58
:108A60001140891C816021680320086001F08AF9A7
:108A700005460EE001F086F9401B022809D9606D19
:108A800040F010006065A06D40F00100A06501207D
:108A900070BD20688068C007ECD1002070BD000068
:108AA000C0FFFF7F70B50446006803F046FC48BB7A
:108AB00020688168144A114215D18168D64331403B
:108AC000491C816001F05EF9054616E003F035FCB3
:108AD00020B9206881683140491C816001F052F959
:108AE000401B022809D9606D40F010006065A06D40
:108AF00040F00100A065012070BD20680168C943F5
:108B0000C907E3D1002070BD3F000080FEE70020D0
:108B1000704700207047000010B500220449054846
:108B200004F046FD0449034804F03CFD002010BD5C
:108B3000A011001074040020A009001010B5044614
:108B400020F04AF92146044804F02CFD024804F0C4
:108B50000DFD002010BD0000740400200A460949E4
:108B600010B5D1F8B812D1F8141209B1012010BD16
:108B70000146044804F01CFDBDE81040014804F023
:108B800075BD000074040020C0E9021200210161DB
:108B9000416001607047704710B5084C206840F490
:108BA000803020601FF0BEFA206820F48030206002
:108BB000BDE81040012000F0F1BF0000B40000103B
:108BC000024901200870C00200F0E8BF5E000020EA
:108BD00010B50E4C2068800601D51FF0A9F9206859
:108BE00040060AD50A4C206840F4003020601FF08F
:108BF00017FB206820F400302060202000F0CEFF1A
:108C0000BDE81040402000F0C9BF0000140401403E
:108C1000B400001070470000124A107F124901286A
:108C200001D003280BD10B6843F400630B600B6881
:108C300023F400630B600B6843F400730B6002289D
:108C400001D003280BD1086840F480500860086800
:108C500020F480500860086840F4806008600020BC
:108C60001077704718010010002002400849C20721
:108C700003D04A6942F004024A61800703D548697B
:108C800040F400404861486940F4803048617047D2
:108C900000200240CA070B494A6902D022F4006250
:108CA00001E042F400624A614A6960F3CA024A6123
:108CB000486940F002004861486940F480304861EA
:108CC0007047000000200240054910B54C6944F08F
:108CD00001044C610260BFF36F8F436010BD000060
:108CE00000200240094B10B55C69402244F4802406
:108CF0005C61EFF3108372B610C910C0521E12F0FF
:108D0000FF02F9D183F3108810BD0000002002405B
:108D100070B5044601F036F80646134D08E0601CB5
:108D200006D001F02FF8801BA04201D3032070BDB4
:108D30002869C003F3D428694CF2FA3108400CD0FA
:108D40000A494A6802434A60810F01D0A969A961B2
:108D5000810000D02861012070BD2869C00701D0C2
:108D600001202861002070BD002002401801001081
:108D700070B504002DED028B86B03F48009008D0FE
:108D8000012C02D0022C04D101E03C4800E03C4818
:108D9000009006200190052002907F20039004207F
:108DA0000026CDE904066946364800F003F9354847
:108DB00000F08AFC0A21334800F00AFC314800F038
:108DC000F4FA05462F4800F0F9FC2F4845F300015E
:108DD000491C81700CB1032C0FD100EE105AD0ED5C
:108DE000010AB8EE400A20EE800ADFED280A20EEE4
:108DF000200AF0EE000A20EE208A012C03D0ACB14C
:108E0000032C13D02FE000EE105ADFED210A9FED66
:108E1000211AB8EE400A60EE200A81EE200ADFED4A
:108E20001E0A80ED010A20EE208A1CE018EE101ABE
:108E30001A4B012280ED028A994201DD427005E061
:108E400018EE101A164B994200DA467018EE101AF6
:108E5000144B994201DA027005E018EE101A124A1A
:108E6000914200DD0670BCEEC80A06B010EE100A92
:108E7000BDEC028B80B270BD000021430100008078
:108E8000000084CB7802002048010020FF3F4E3FC5
:108E90003333533A9A99993F00404E450020B245EA
:108EA00000E0AB4500C05A4500006145044890ED24
:108EB000020ABCEEC00A10EE100A80B27047000031
:108EC000480100202DE9F047044690F850009AB080
:108ED0000D464FF00008012813D0012084F85000FF
:108EE000304E20684FF00009B0420ED12E4F00974F
:108EF000384603F02AFA8246206803F026FA60B169
:108F00000EE002201AB0BDE8F087616D41F020014B
:108F1000616584F850900120F4E7BAF1000F09D0A0
:108F2000606D40F0200060654FF0010884F85090BB
:108F30004046E7E71D4829681D4A0029816840F638
:108F40001F7321F460411BD094F830C041EA4C31CA
:108F5000D5F804C041EA0C018160B168BE68C1F374
:108F60000001C6F3000692683143C2F300021143C8
:108F7000DCD1AA682968114382689A4311430EE044
:108F80008160B168BD68C1F30001C5F30005926856
:108F90002943C2F300021143C8D18168994381601B
:108FA000C4E7000000000450000104500003045016
:108FB000000204502DE9F84F00270446009790F86E
:108FC0005000DFF8B0930D46B846012810D00126B6
:108FD00084F85060206803F0B4F958B1606D40F037
:108FE00020006065012784F85080384600F0DAB927
:108FF0000220FBE768680C23052812D8022807D056
:10900000032807D0042807D0052807D0062007E04A
:109010006B6006E0122003E0182001E04FF480703E
:109020006860D5E90021206803EA91131844036BB6
:1090300001F01F014FF01F0C0CFA01FCC2F3846217
:1090400023EA0C038A4013430363206803F079F991
:109050008246206803F06DF95AEA00011DD1AA6822
:109060002968206803F07DF920686A69C168C1F346
:10907000C10149008A40296904290FD000EB810011
:109080002B68016EDFF8F0C203F0F84301EA0C012F
:109090001343194341F00041016672E0002103F0DF
:1090A00042F9400320684FF0000171D003F03BF912
:1090B00090FAA0F0B0FA80F1286842036DD090FADF
:1090C000A0F0B0FA80F0814204D10022114620685D
:1090D00003F056F90121206803F025F940032068C8
:1090E0004FF001015CD003F01EF990FAA0F0B0FA45
:1090F00080F12868420358D090FAA0F0B0FA80F0CE
:10910000814204D100220121206803F039F90221B3
:10911000206803F008F9400320684FF0020147D0AF
:1091200003F001F990FAA0F0B0FA80F12868420348
:1091300043D090FAA0F0B0FA80F0814204D100222E
:109140000221206803F01CF90321206803F0EBF8EA
:10915000400320684FF0030132D003F0E4F890FAA6
:10916000A0F0B0FA80F1286842032ED090FAA0F067
:10917000B0FA80F0814204D100220321206803F07C
:10918000FFF8206803F0D9F810B3AAE000E004E08B
:1091900003F0C9F8C0F384618EE7C0F3846092E7FE
:1091A00003F0C1F8C0F38461A3E7C0F38460A7E7CC
:1091B00003F0B9F8C0F38461B8E7C0F38460BCE79A
:1091C00003F0B1F8C0F38461CDE7C0F38460D1E768
:1091D00021682A7B286851F8B03FC0F3120C23EABB
:1091E0000C0302F0180C654A22FA0CF202401343F9
:1091F0000B60E968494574D1286841031AD090FA98
:10920000A0F1B1FA81F1491C01F01F0109294FEACF
:10921000403130D8002910D090FAA0F1B1FA81F194
:1092200001F1010101F01F0106FA01F608D1C0F3B6
:10923000846109E0C0F38461E5E7C0F38461EFE78E
:1092400090FAA0F1B1FA81F101F1010101F01F01E1
:1092500046EA816102D1C0F3846003E090FAA0F095
:10926000B0FA80F000F1010000F01F0000EB4000B8
:1092700041EA005131E000290DD090FAA0F1B1FA95
:1092800081F101F1010101F01F0106FA01F605D19A
:10929000C0F3846106E0C0F38461F2E790FAA0F1C4
:1092A000B1FA81F101F1010101F01F0146EA81618A
:1092B00002D1C0F3846003E090FAA0F0B0FA80F02D
:1092C00000F1010000F01F002D4A00EB400002EB0E
:1092D000005041EA000141F00071AA68206803F0E3
:1092E00040F82848296801423FF47DAE264A90683C
:1092F000264E274B274D00F0E070B1421CD10602EC
:109300001AD42168994202D0A9427FF46CAE9168C8
:1093100040F4000021F0E071014391601E481F49B4
:109320000068B0FBF1F000EB4000800000E0401E60
:1093300000900028FBD156E6194EB14209D1C60172
:1093400007D42168994201D0A942F4D140F080703D
:109350000AE06FF00045E942EDD14102EBD421680B
:109360009942E8D140F48000916821F0E071014316
:10937000916038E600007F4000F0FF03FFFF070028
:10938000000020FE0000088000030450000052C7C7
:10939000000004500002045010000010400D0300B3
:1093A000000084CB18BCBDE8E08F0068006C7047FB
:1093B000F8B54FF0000504002E46009502D0606D10
:1093C00010B107E00120F8BD204600F0D3F8A665F3
:1093D00084F8506020688168C1F3407119B18168D8
:1093E0005A4A1140816020688168C1F3007179B9DF
:1093F0008168574A114041F0805181605548564973
:109400000068B0FBF1F000E0401E00900028FBD1A6
:1094100020688168C1F3007141B9616D41F01001AC
:109420006165A16D41F00101A165012502F089FF8F
:10943000616DC90600D430B1606D40F01000606508
:1094400001252846F8BD606D20F4807040F00200D0
:109450006065206802F071FFA8B940488068404903
:10946000C0F300008968C1F3000108433D498968E1
:10947000C1F30001084306D13B4960688A6822F4C1
:109480007C1202438A60E168606B627E0843A168D7
:1094900041EA4231084394F8201040EA0140012992
:1094A00004D1A18C314A02EB41410843A16A29B1A0
:1094B00001F47071E26A014342EA01002168CA685E
:1094C0002B4B1A400243CA60206802F03AFF06465E
:1094D000206802F02EFF064315D1207E94F830104C
:1094E000800340EA41012068C26844F202039A43C3
:1094F0000A43C26094F8380001280CD02068016942
:1095000021F001010161206901282068016B21F02F
:109510000F0110D012E0D4E90F100143D4E9110279
:10952000104301432068026940F2FC739A431143DF
:1095300041F00101E6E7E269521E11430163606DEB
:1095400020F0020040F0010060657AE7C0FFFF5F95
:10955000C0FFFF7F10000010400D0300000004500A
:109560000001045000020450000304500000FEFFFC
:1095700007C0F0FF10B586B0044614216846FEF718
:10958000A1FE1049206888421AD10F48C16C41F4ED
:109590000051C164C16C01F400510591C16C41F0EE
:1095A0000201C164C06C694600F00200059002200F
:1095B00000900B20019000200290044800F0FAFA7D
:1095C00006B010BD00000450001002400004004826
:1095D0002DE9F041044639480F46816801F01F0526
:1095E000616908290FD085B1052D0ED0092D0CD049
:1095F000806800F4604060B1606D40F020006065FC
:109600000120BDE8F081082604E02068C068C0079A
:10961000F1E7042600F0B6FB804608E0781C06D08F
:1096200000F0B0FBA0EB0800B8420FD877B120687B
:1096300000683042F2D0606D40F4007060652068D0
:1096400002F087FED0B1607E48B117E0606D40F057
:1096500004006065002084F850000320D1E72068F2
:10966000006800070AD5606D20F480706065606D49
:10967000C00403D4606D40F001006065104B2068A9
:109680001049984201D10A4600E00246824210D0B9
:109690007DB1052D0DD0092D0BD0984200D001468B
:1096A000C968082E07D0490401D40C2101600020AC
:1096B000A7E7C168F5E70821F8E7000000030450B8
:1096C00000010450000004502DE9F04104463748E1
:1096D000806800F01F05206802F033FE18B10221F7
:1096E0000846BDE8F08194F8500001280CD0012014
:1096F00084F850002046FFF7D5F901004FF000072D
:1097000004D084F85070EBE70220EAE7606D40F681
:109710000162904340F480706065254E2068254BBF
:10972000B04201D11A4600E00246824200D01DB983
:10973000626D22F480126265626DD20404D5A26D5E
:1097400022F00602A26500E0A7651C22026084F8F0
:1097500050702068B04201D11A4600E002468242B1
:1097600015D0A5B1052D12D0092D10D0626D42F48F
:1097700080126265B04200D11846C0688001AFD542
:10978000606D20F4005040F480506065A8E7C26826
:10979000920105D5626D22F4005242F48052626556
:1097A0008268054B1A40121D826099E7000304503D
:1097B0000001045000000450C0FFFF7F10B50446B4
:1097C00090F85000012808D0012084F850000321AF
:1097D0002046FFF7C7F810B10BE0022010BD20466D
:1097E000FFF72CF928B9616D21F4885141F001018E
:1097F0006165002184F8501010BD10B590F8251057
:109800000024022903D00421C16301241AE0016865
:109810000A6822F00E020A6001680A6822F001025A
:109820000A6090F84410012301F01C0203FA02F1CF
:10983000026C516080F82530002180F82410816B83
:1098400001B18847204610BD094810B54FF0FF31DF
:109850008163002282630164026481628262C16268
:10986000C2620163026300F001FB002010BD000032
:109870000010024070B5044600F084FA0546601CF2
:1098800002D004484068044400F07CFA401BA04227
:10989000FAD370BD0C0100102DE9F05F0446354885
:1098A0008946017801290CD00125804605704CF2CB
:1098B000503B5846FFF72CFA06004FF0000A03D041
:1098C00053E0022000F05AB851464046C8F804A0C0
:1098D000294F3A6892050ED5396821F40071396034
:1098E0003968490505D5396821F48061396003215B
:1098F00009E0057708E03A68520504D5396821F493
:1099000080613960022101772068012807D04FF07B
:10991000FF31C9F8001040F2FA7BA5681EE06068CC
:10992000FFF7A4F95846FFF7F3F90646786948F2BD
:1099300004018843786116E028466168FFF7AAF9B8
:109940004CF25030FFF7E4F90600786920EA0B008A
:10995000786102D0C9F8005005E06D1CD4E902011D
:109960000844A842E8D8FFF757F988F800A0304625
:10997000A8E70000180100100020024030BCBDE83C
:10998000C09F00000348416941F00041416100204F
:1099900070470000002002402DE9FF5F254F05467B
:1099A0000024387891469B46012809D00120387060
:1099B0004CF25030FFF7ACF90600A24604D035E077
:1099C000022004B000F03AB85046C7F804A0DFF80F
:1099D0006880D8F80010490506D5D8F8001021F4A1
:1099E0008061C8F800100220387725B1012D09D018
:1099F000022D07D00DE04A465B460198FFF764F957
:109A0000012406E049460198FFF76CF9022D00D1C8
:109A10006C044CF25030FFF77BF9064624B1D8F8BD
:109A20001410A143C8F81410FFF7F6F887F800A047
:109A30003046C6E7180100100020024030BCBDE8E7
:109A4000C09F0000064900204A69002A07DA054A3B
:109A50008A60054A8A604969002900DA0120704756
:109A60000020024023016745AB89EFCD2DE9F04F7F
:109A70000022DFF800A14FF0010B4FF00F0974E056
:109A80000BFA02F515EA01046ED022F003065644E3
:109A9000B36897074FEA177C09FA0CF707EA03083F
:109AA000B0F1904F04D0344B984203D101231BE016
:109AB000002319E0314B984201D1022314E0304BCE
:109AC000984201D103230FE02E4B984201D1042389
:109AD0000AE02D4B984201D1052305E02B4B98421B
:109AE00001D1062300E0072303FA0CF343451ED1FE
:109AF000DFF89CC0DCF80030A343CCF800300CF158
:109B0000040CDCF80030A343CCF800300CF1040C5A
:109B1000DCF80030A343CCF800300CF1040CDCF886
:109B20000030A343CCF80030B368BB43B360046893
:109B300056000323B3401C430460D40800EB8404A4
:109B4000276A56074FEAD66C09FA0CF6B743276224
:109B500084689C4384604468AC434460C4689C430C
:109B6000C460C36AAB43C362521C31FA02F387D1AB
:109B700000F010B800000140000400480008004850
:109B8000000C00480010004800140048001800486D
:109B90000004014030BCBDE8C08F7047044910B5D7
:109BA0000A68024202D00860FFF7F7FF10BD00000C
:109BB000140401402DE9F84FDFF888B100224FF07E
:109BC00003094FF00F0A0BF1040EB4E00125954094
:109BD0002B4072D04C68012C05D0022C03D0112CE4
:109BE00001D0122C10D18668540009FA04F7BE4344
:109BF000CF68A7403743876044680E79AC43C6F30B
:109C000000169640264346604C68E643B60706D1E8
:109C1000C66AC4F3C004AE4394403443C462C4680B
:109C2000570009FA07F58E68AC43BE402643C6606C
:109C30004C68022C01D0122C12D1D40800EB840CF9
:109C4000DCF820605407E40E0AFA04F826EA080655
:109C5000D1F8108008FA04F848EA0608CCF8208009
:109C60000468AC430D7905F00305BD40254305604C
:109C70004C68E4005ED5344C256E45F00105256640
:109C8000246E22F0030504F0010400942F4C2E19D9
:109C9000B7689407250F0AFA05F4A743B0F1904F6F
:109CA00004D02B4CA04203D101241CE000241AE074
:109CB000284CA04202D1022415E03BE0264CA042F1
:109CC00001D103240FE0254CA04201D104240AE075
:109CD000234CA04201D1052405E0224CA04201D131
:109CE000062400E00724AC403C43B460DBF80040AD
:109CF0005D464E689C43F60300D51C432C60DEF89D
:109D0000004075464E689C43B60300D51C432C604A
:109D10000C4D08352C684E689C43F60200D51C4358
:109D20002C60084D0C352C684E689C43B60200D55B
:109D30001C432C60521C0B6833FA02F47FF446AFCC
:109D400000F012B800040140001002400000014081
:109D50000004004800080048000C004800100048BB
:109D6000001400480018004818BCBDE8E08F0069E6
:109D7000084000D0012070470AB1816170478162BC
:109D80007047000001488068704700000C01001017
:109D900070B5040011D021684CF6CC4008602168F1
:109DA00045F255500860D4E9000141602168A0687F
:109DB0008860FFF7E7FF054608E0012070BDFFF768
:109DC000E1FF401B302801D9032070BD2068C06826
:109DD0000028F4D120680269E1688A4201D001615B
:109DE00002E04AF6AA210160002070BD00684AF630
:109DF000AA2101600020704702488168426811442E
:109E0000816070470C01001010B50024032000F0A1
:109E100083F8002000F008F808B1012401E000F008
:109E200027F8204610BD000070B50E4E05460024F0
:109E3000706898B14FF47A71B1FBF0F00A49096883
:109E4000B1FBF0F001F0C2FE40B9102D06D20022A5
:109E50002946501E00F040F8356000E001242046FD
:109E600070BD00000C0100101000001070470000D1
:109E7000094808B5016E41F001010166016E01F06B
:109E800001010091816D41F080518165806D00F08C
:109E90008050009008BD00000010024000280DDB3B
:109EA00000F01F02012191404009800000F1E020F4
:109EB000C0F88011BFF34F8FBFF36F8F704700283A
:109EC00009DB00F01F02012191404009800000F1F0
:109ED000E020C0F800117047F0B40E4B1B68C3F3CC
:109EE0000223C3F10704042C00D904241D1D072DEF
:109EF00001D2002300E0DB1E012606FA04F56D1EE8
:109F00000D409D409E40761E164045EA0601F0BC7D
:109F10001BF0DABC0CED00E0064A00F00701106807
:109F20004FF6FF03184040EA012003490843106040
:109F3000704700000CED00E00000FA05BFF34F8F02
:109F400005480168054A01F4E06111430160BFF36F
:109F50004F8F00BFFDE700000CED00E00400FA05A4
:109F600001220168C0F8FC23002280F8F4238869EC
:109F700040F000608861486D024A10434865002047
:109F8000704700000300001070B5164D0446A1B1E3
:109F9000012911D12068D0F8001E41F00101C0F85C
:109FA000001ED4F8040403F00EFF206A002803D03A
:109FB000286840F00600286070BD206A28B102F0D1
:109FC00053FE286820F0060028602068D0F8001EA4
:109FD00021F00101C0F8001ED4F80404BDE870406F
:109FE00003F06BBE10ED00E0006841620020704796
:109FF000F0B50368586A39B19C6A4FF4827500EB7A
:10A00000144400204E1E0AE040EA024098620FE02D
:10A0100005EB8007DF59401C04EB1744C0B2B04287
:10A02000F6D344EA02404FF4807202EB81015850AB
:10A030000020F0BDD0F8040403F09FBDC1EBC102C5
:10A0400000EB8202D0F80404926C03F0E2BCC1EB96
:10A05000C10200EB8202D0F80404D2F8082203F017
:10A060003BBD10B504000CD0032084F8BD0320468E
:10A0700000F097FC204600F0B1FB002084F8BD03FF
:10A0800010BD012010BDD0F8040403F078BD70B5F8
:10A0900004460B0601F00F00C0EBC00104EB810188
:10A0A0004FF001024FF0000503D581F83D203C310F
:10A0B00003E081F8FD5101F5FE71087094F8BC03CE
:10A0C000012808D084F8BC23206804F0F9F884F84B
:10A0D000BC53002070BD022070BD70B5044601F075
:10A0E0000F006268904201D9012070BD0B0601F09B
:10A0F0000F01C1EBC10104EB81014FF001024FF0F0
:10A10000000503D581F83D203C3103E081F8FD5185
:10A1100001F5FE718D70087094F8BC03012808D019
:10A1200084F8BC23206804F093FA84F8BC53002020
:10A1300070BD022070BD01F00F01C1EBC10100EB49
:10A140008100D0F8140270472DE9F04104460F0653
:10A1500001F00F00C0EBC00104EB81014FF00106DC
:10A160004FF0000503D581F83D603C3103E081F8F4
:10A17000FD5101F5FE7108708A60CB704A7802B11A
:10A18000C880022B00D10D7194F8BC03012809D0BE
:10A1900084F8BC63206803F0FBFF284684F8BC53B6
:10A1A000BDE8F0810220FBE770B50D4601F00F0419
:10A1B000C4EBC40100EB8101C1F808220022C1E90F
:10A1C000843281F8FD2181F8FC41006801F5FE71BF
:10A1D0002A0703D004F094FA002070BD04F0A0F91F
:10A1E000FAE770B504460D4601F00F006168884239
:10A1F00001D9012070BD29064FF000064FF0010281
:10A2000007D5C0EBC00104EB810181F83D203C3152
:10A2100007E0C5EBC50104EB810181F8FD6101F5A3
:10A22000FE718A70087094F8BC03012807D084F886
:10A23000BC23206804F038FA280702D006E0022088
:10A2400070BD04F57171206804F0E0F984F8BC6316
:10A25000002070BD70B50D4601F00F04C4EBC401C1
:10A2600000EB81018A640022C1E91432012281F8E5
:10A270003D2001F83C4F00682A0703D004F040FA63
:10A28000002070BD04F04CF9FAE700002DE9F84F0A
:10A2900005680446284604F031FB00287AD120687E
:10A2A00004F058FB002875D0206804F053FB8007A9
:10A2B00004D52068416901F002014161206804F081
:10A2C00049FBC10604F57170009034D5206881699E
:10A2D00021F0100181612F6A07F00F00C0EBC00070
:10A2E00004EB8006C7F3434006F5FE76022802D051
:10A2F000062811D01AE047F6F070074216D0C7F3CF
:10A300000A1217462846F16804F028FBF068384422
:10A31000F060B069384408E008222846009904F04B
:10A320001DFBB069C7F30A110844B0612068816958
:10A3300041F010018161206804F00CFB00034FF034
:10A34000010961D50026206804F0E3FA80464FF445
:10A35000004A4FF0200B54E05FEAC8704ED0F1B2D3
:10A36000206804F0EFFA0746C0071BD005EB461142
:10A37000C1F8089B216820460B6C01EB4611D1F80F
:10A38000082BDFF84CC3634509D1130403D5C1F88A
:10A3900008AB07E09AE1920601D5C1F808BBF1B21B
:10A3A000FFF755FE380714D505EB46110820C1F814
:10A3B000080B2068016C00EB4610D0F8082BC54B49
:10A3C000994203D9110401D5C0F808AB204600F02A
:10A3D000C3FAF80604D505EB46111020C1F8080BA6
:10A3E000B80603D505EB4611C1F808BBB80405D57E
:10A3F00005EB46114FF40050C1F8080B4FEA58081E
:10A40000761CB8F1000FA7D1206804F0A3FA40032E
:10A4100048D5206804F076FA804600263FE05FEADF
:10A42000C87039D0F1B2206804F07AFA0746C00744
:10A4300010D006F00F0209FA02F0D5F83428824352
:10A44000C5F8342805EB4610C0F80899F1B220464B
:10A45000FFF7F4FD380704D505EB46110820C1F8D5
:10A460000809F80604D505EB46111020C1F80809C3
:10A47000780604D505EB46114020C1F80809B80755
:10A4800004D505EB46110220C1F80809380603D5AA
:10A490003146204602F028F94FEA5808761CB8F1F8
:10A4A000000FBCD1206804F055FA002811DAD5F865
:10A4B000040820F00100C5F8040894F8F40301280A
:10A4C00039D0204600F016FA2068416901F00041B9
:10A4D0004161206804F03EFA00050BD5D5F8080864
:10A4E000C00702D0204600F07BFA2068416901F4E1
:10A4F00000614161206804F02DFA00010AD520684E
:10A50000416901F00061416194F8F403D8B120463B
:10A5100000F066FA206804F01DFAC00475D5D5F87D
:10A52000040820F00100C5F804081021206804F098
:10A53000C7F9002135E0002084F8F40301462046E5
:10A54000FFF722FDC0E784F8F4932068406D0121F5
:10A55000C0F38300C4F8F8032046FFF715FDD9E7E0
:10A5600005EB41104FF67F32C0F80829D0F80039CA
:10A5700023F40013C0F80039D0F8003943F0006329
:10A58000C0F80039C0F8082BD0F8002B22F40012D4
:10A59000C0F8002BD0F8002B42F00062C0F8002B6E
:10A5A000491C60688842DBD8D5F81C0840F00110CF
:10A5B000C5F81C08206B60B1D5F8840840F00B008A
:10A5C000C5F88408D5F8440840F00B00C5F84408E5
:10A5D0000CE0D5F8140842F22B010843C5F8140822
:10A5E000D5F8100840F00B00C5F81008D5F80008A1
:10A5F00020F4FE60C5F800082068009904F006F811
:10A600002068416901F480514161206804F0A2F999
:10A61000800415D5206803F0FBFD206804F062F982
:10A62000E06000F0D1FC0146227B206804F0CEF906
:10A63000204600F04BF92068416901F40051416166
:10A64000206804F087F9000707D5204600F06CF970
:10A650002068416901F008014161206804F07AF93D
:10A66000C00208D50021204600F039F82068416971
:10A6700001F480114161206804F06CF9800208D572
:10A680000021204600F02FF82068416901F40011F4
:10A690004161206804F05EF9400007D52046FFF7CD
:10A6A000C9FC2068416901F080414161206804F0E3
:10A6B00051F940070AD520684568680702D5204649
:10A6C000FFF7E1FC206841682943416000F004B8CD
:10A6D0000A31544F0A30544F18BCBDE8E08FD0F80F
:10A6E000040403F09BBAD0F8040403F099BA2DE9EE
:10A6F000F0418AB0040005D094F8BD032668002517
:10A7000020B108E001200AB0BDE8F08184F8BC5314
:10A71000204600F08FF8032084F8BD03F06BC005DD
:10A7200000D42561206803F0F5FE04F11001282211
:10A7300088466846FDF7ADFD94E80F0003F076FD0E
:10A740000227C8BB0021206804F017F90021012668
:10A750000EE0C1EBC10004EB800080F83D6000F822
:10A760003C1FC180C5708560C560491CC9B2456188
:10A7700060688842EDD8002111E0C1EBC10004EB14
:10A78000800080F8FD5180F8FC1180F8FF51C0F87E
:10A790000452C0F80852491CC9B2C0F8105260688F
:10A7A0008842EAD8282241466846FDF772FD94E8BF
:10A7B0000F0003F005FE10B184F8BD73A2E784F822
:10A7C000385084F8BD63606A012802D12046FFF743
:10A7D000C7FB206803F0E8FD002094E738B5006867
:10A7E000B0F1A04F23D1124CE06C20F48050E06413
:10A7F0004FF4C0514FF09040FFF738F9A06DC00002
:10A800000ED4A06D40F08050A065A06D00F0805087
:10A81000009000F031F9A06D20F08050A06501E0BB
:10A8200000F02AF9BDE838404320FFF737BB38BDB8
:10A830000010024010B586B0044614216846FDF7AA
:10A8400041FD2068B0F1A04F3CD11F4CE06C40F0BE
:10A850000100E064E06C694600F0010005904FF4EF
:10A86000C05000900220019000200290032003902D
:10A870000A2004904FF09040FFF79CF9E06C40F400
:10A880008050E064E06C00F480500590A06DC00042
:10A890000ED4A06D40F08050A065A06D00F08050F7
:10A8A000059000F0F1F8A06D20F08050A06501E067
:10A8B00000F0EAF8002211464320FFF70DFB432089
:10A8C000FFF7FDFA06B010BD0010024070B5044657
:10A8D000C0680125022801D0FEF79CF92946D4F86A
:10A8E000040403F000FAD4F80404BDE8704003F057
:10A8F000BCB9000010B504460068D0F8001E21F075
:10A900000101C0F8001E206A30B10648016821F03C
:10A910000601016002F0A8F9D4F80404BDE8104073
:10A9200003F0CBB910ED00E0D0F8040403F0CFB988
:10A9300010B5044690F8BC0301280BD0012084F820
:10A94000BC0384F83810206804F02EF8002084F846
:10A95000BC0310BD022010BDD0F8042400F57171B5
:10A96000104603F0D3B910B50446006894F8BC1340
:10A97000012906D0012184F8BC13A16A012902D063
:10A9800005E0022010BD816B41F4803181632068B5
:10A9900003F0FEFC206803F07DFF002084F8BC0378
:10A9A00010BD70B5044690F8BC0301280ED00120FC
:10A9B00084F8BC03206803F0ADFD206804F07AF849
:10A9C000002528B184F8BC53012070BD022070BD61
:10A9D000206803F0E9FC84F8BC53002070BD00003F
:10A9E00010B504460068D0F8001E41F00101C0F81F
:10A9F000001ED4F8040403F0E6F9206A002804D00D
:10AA00000248016841F00601016010BD10ED00E050
:10AA10001649B0F5007F0868C0F3412009D002282C
:10AA200005D0086820F4C06040F480600860002011
:10AA300070470128FBD0086820F4C06040F4007023
:10AA400008600B483222006850430A4AB0FBF2F01B
:10AA5000401C00E0401E4A69520501D50028F9D18A
:10AA600048694005E3D503207047000000700040AE
:10AA70001000001040420F000248416821F480613C
:10AA800041607047007000400248416841F48061B5
:10AA900041607047007000400248006800F4C060E8
:10AAA000704700000070004003498A6800F01F00F2
:10AAB00082438A60704700000070004002480168CD
:10AAC00041F48071016070470070004006480168E1
:10AAD00021F00701C91C01600448016841F004012C
:10AAE000016030BF704700000070004010ED00E0D2
:10AAF0002DE9F84F044600250088E44E2F46010555
:10AB000004F1200B1DD5606E78B1B0F5800F11D027
:10AB1000B0F5000F04D0B0F5400F22D001250FE0B2
:10AB2000F06840F48030F0601BE00021201D01F04F
:10AB300025FE03E00021584601F0B6FE050010D0C6
:10AB40002F462088C00426D5A06EC0B1B0F1807F0A
:10AB50001AD0B0F1007F0DD0B0F1407F19D001259F
:10AB600018E0D6F88800616E20F440000843C6F86B
:10AB70008800E6E7F06840F48030F06009E00021EA
:10AB8000201D01F0FBFD03E00021584601F08CFE82
:10AB90000546F5B12F462068800366D5B06D4FF0AD
:10ABA0000009C00009D4B06D40F08050B065B06DB0
:10ABB0004FF0010900F080500090DFF8D4A2DAF8DD
:10ABC000001041F48071CAF80010FFF7DBF88046EE
:10ABD00010E0D6F88800A16E20F040700843C6F857
:10ABE0008800D8E7FFF7CEF8A0EB0800022801D9CB
:10ABF000032532E0DAF80000C005F3D56DBBD6F8C6
:10AC0000900010F4407015D0D4F88410814211D017
:10AC1000D6F89000D6F8901020F4407041F48031BE
:10AC2000C6F89010D6F8901021F48031C6F8901034
:10AC3000C6F89000C0074ED0FFF7A4F8804641F256
:10AC4000883A05E0FFF79EF8A0EB08015145CFD800
:10AC5000D6F890008007F5D5EDB32F46B9F1000F77
:10AC600003D0B06D20F08050B0652078C00707D0C9
:10AC7000D6F88800A16B20F003000843C6F88800CE
:10AC80002078800707D5D6F88800E16B20F00C000B
:10AC90000843C6F888002078400707D5D6F8880012
:10ACA000216C20F030000843C6F8880020780007A7
:10ACB00007D5D6F88800616C20F0C0000843C6F8BC
:10ACC00088002078C00609D5D6F88800A16C20F449
:10ACD0004070084300E05AE0C6F8880020788006FB
:10ACE00007D5D6F88800E16C20F440600843C6F828
:10ACF00088002088800507D5D6F88800E16D20F40B
:10AD000040200843C6F888002088400507D5D6F8BB
:10AD10008800216E20F440100843C6F8880020788F
:10AD2000400607D5D6F88800216D20F4405008432E
:10AD3000C6F888002078000607D5D6F88800616D2F
:10AD400020F440400843C6F888002088C00507D595
:10AD5000D6F88800A16D20F440300843C6F888007A
:10AD600020884FF0006580044FF0806821D5D6F828
:10AD70008800E16E20F040600843C6F88800E06E6D
:10AD8000A8420ED1F06840F48010F06011E0D6F8CF
:10AD90009000D4F8841020F440700843C6F8900066
:10ADA0005CE7404505D10121201D01F0E7FC00B121
:10ADB00007462068000317D5D6F88800216F20F0D9
:10ADC00040600843C6F88800206FA84204D1F068AC
:10ADD00040F48010F06007E0404505D10121201DBE
:10ADE00001F0CCFC00B107462068400317D5D6F827
:10ADF0008800616F20F040600843C6F88800606FEB
:10AE0000A84204D1F06840F48010F06007E04045AB
:10AE100005D10121201D01F0B1FC00B107462088B9
:10AE200040041AD5D6F88800A16F20F0405008439E
:10AE3000C6F88800A06FB0F1805F03D0B0F1005F6A
:10AE400005D00AE00221201D01F098FC03E0022158
:10AE5000584601F029FD00B107462088000407D5B7
:10AE6000D6F88800E16F20F080400843C6F88800DB
:10AE70002068C00307D556F8880FD4F8801020F05A
:10AE8000004008433060384600F004B8001002402B
:10AE90000070004018BCBDE8E08F00002DE9F047CD
:10AEA0000D4604005ED0DFF80C81D8F8000000F0F9
:10AEB0000700A8420CD2D8F8001021F0070129435E
:10AEC000C8F80010D8F8000000F00700A84249D1E7
:10AED0002078394EC0072BD06068032811D0022893
:10AEE00012D0316898B1490500293BDAB16821F0E8
:10AEF00003010143B160FEF745FF074641F288397F
:10AF00000FE031688901EFE731688903ECE78907D1
:10AF1000EAE7FEF737FFC11B494502D90320BDE828
:10AF2000F087B068616800F00C00B0EB810FF0D1E1
:10AF30002078800705D5B068A16820F0F0000843AC
:10AF4000B060D8F80010404601F00701A9420BD9C3
:10AF5000016821F0070129430160006800F0070043
:10AF6000A84201D00120DAE72078400705D5B06873
:10AF7000E16820F4E0600843B0602078000706D55F
:10AF8000B068216920F4605040EAC100B06000F070
:10AF900045F8B168094AC1F30311515C01F01F0182
:10AFA000C8400749086007480068BDE8F047FEF759
:10AFB0003BBF00000020024000100240EC8F02085E
:10AFC000100000100C0100100148006870470000DC
:10AFD000100000100548064900688968054AC1F359
:10AFE0000221515C01F01F01C840704710000010A1
:10AFF000001002402C900208054806490068896844
:10B00000054AC1F3C221515C01F01F01C8407047DD
:10B0100010000010001002402C90020830B5224CA5
:10B0200000221046A168E36811F00C0103F003054B
:10B030001E4B08D00C2904D0042931D008292FD068
:10B0400010E0012D10D12268120704D4D4F8942006
:10B05000C2F3032202E02268C2F30312144D55F832
:10B060002220D9B10C2918D1E06800F00300022891
:10B0700018D0032816D01046E168E268C1F3021127
:10B08000C2F306224243491CB2FBF1F0E168C1F36E
:10B090004161491C4900B0FBF1F030BD104630BDA4
:10B0A000184630BD1846E7E7001002400024F400BF
:10B0B000FC8F02082DE9F84304006FD0FE4EB06803
:10B0C00000F00C05F06800F003072078C00664D596
:10B0D00075B10C2D01D1012F0AD0A069002830686C
:10B0E00079D040F001003060FEF74CFE80465CE015
:10B0F0003068800702D5A0690028DED0216A306858
:10B10000000703D5306800F0F00004E0D6F89400A2
:10B11000F02202EA1010814216D9084601F04AFCDA
:10B1200000283BD1306840F0080030603068216A68
:10B1300020F0F000084330607068E16920F47F403F
:10B1400040EA0120706016E0306840F0080030608E
:10B150003068216A20F0F000084330607068E169CF
:10B1600020F47F4040EA0120706025B9206A01F098
:10B1700021FC0028D5D1FFF751FFB168CF4AC1F3B8
:10B180000311515C01F01F01C840CD490860CD4852
:10B190000068FEF749FE00287ED12CE0C6E0FEF7ED
:10B1A000F1FDA0EB0800022877D830688007F6D5BB
:10B1B000306840F0080030603068216A20F0F0000C
:10B1C000084330607068E16920F47F4040EA012064
:10B1D000706010E0FFE720F001003060FEF7D2FD64
:10B1E000804605E0FEF7CEFDA0EB08000228DBD884
:10B1F00030688007F6D42078C00740D0082D18D0DA
:10B200000C2D01D1032F14D06068B0F5803F17D00A
:10B21000B0F5A02F306817D020F48030306030684F
:10B2200020F4802030606068E0B1FEF7ABFD80461E
:10B2300014E03068800322D56068002876D01EE0D4
:10B24000306840F48030EDE740F480203060F7E76C
:10B25000FEF798FDA0EB08006428A5D830688003AD
:10B26000F6D50CE0FEF78EFD804605E0FEF78AFD80
:10B27000A0EB0800642897D830688003F6D42078C3
:10B28000800739D5042D11D00C2D01D1022F0DD0FE
:10B29000E0680028306801E08BE1FBE01DD040F45D
:10B2A00080703060FEF76EFD07460BE030684005A9
:10B2B0000BD5E0680028C1D007E0FEF763FDC01B96
:10B2C000022894D830684005F7D57068217C20F0BA
:10B2D000F85040EA016070600EE020F48070306049
:10B2E000FEF750FD074604E0FEF74CFDC01B0228A8
:10B2F000B3D830684005F7D42078000728D56069B6
:10B300000028D6F8940012D040F00100C6F894004E
:10B31000FEF738FD074604E0FEF734FDC01B0228A7
:10B320009BD8D6F894008007F6D511E0FEE020F017
:10B330000100C6F89400FEF725FD074604E0FEF77D
:10B3400021FDC01B022888D8D6F894008007F6D4C7
:10B350002078400765D5B06D4FF00008C00009D4D3
:10B36000B06D40F08050B065B06D4FF0010800F056
:10B370008050009054480168C90511D40168814685
:10B3800041F480710160FEF7FDFC074604E0FEF722
:10B39000F9FCC01B02287DD8D9F80000C005F6D5FD
:10B3A000A068012815D00528D6F8900016D020F006
:10B3B0000100C6F89000D6F8900020F00400C6F80E
:10B3C0009000A06841F28839B8B1FEF7DBFC07466F
:10B3D0000EE0D6F8900040F00100F0E740F00400E5
:10B3E000C6F89000F5E7FEF7CDFCC11B494551D8E2
:10B3F000D6F890008007F6D50CE0FEF7C3FC0746B0
:10B4000004E0FEF7BFFCC11B494543D8D6F89000C5
:10B410008007F6D4B8F1000F03D0B06D20F0805053
:10B42000B065A06AB8B302280AD00C2D7ED030686F
:10B4300020F080703060306810F0205F77D0AAE094
:10B44000F068E26A00F0030191422CD1216B00F018
:10B45000700209011039914225D1626B00F4FE415E
:10B46000B1EB022F1FD1A16B00F40032072901D0EC
:10B47000012100E000218A4215D1A18F00F4C00211
:10B4800049084905A1F5001191420CD194F84010EA
:10B49000490801E08CE079E0490600F0C060A1F1C4
:10B4A000007181425BD00C2D40D0306840013DD40A
:10B4B0003068C0003AD409E000100240EC8F020866
:10B4C000100000100C01001000700040306820F0E7
:10B4D00080703060FEF756FC054604E0FEF752FC33
:10B4E000401B022864D830688001F7D4D4E90B01EE
:10B4F0006FF00F0202EB01110843A18F52044908BB
:10B5000002EB4151626B41EA0221084394F840107A
:10B510004FF07E42490802EB41610843A16B0909E3
:10B5200040EA4140F168274A114001E048E02EE03E
:10B530000843F060306840F080703060F06840F0A0
:10B540008070F060FEF71EFC044604E0FEF71AFC73
:10B55000001B02282CD830688001F7D52EE0306817
:10B5600080012BD4306840F080703060F06840F08B
:10B570008070F060FEF706FC044604E0FEF702FC73
:10B58000001B022814D830688001F7D516E0F06857
:10B5900020F00300F060F0680B490840F060FEF70F
:10B5A000F1FB044607E0FEF7EDFB001B022802D981
:10B5B0000320BDE8F88330688001F4D40020F8E768
:10B5C0000120F6E78C809DF9FFFFEEFE0068503009
:10B5D00050F82100704708B50068503000EB81003A
:10B5E0000090026008BD000010B504004FF001009B
:10B5F00044D094F8210028B9002084F82000204687
:10B6000000F040F8022084F821002168CA20486236
:10B61000216853204862204601F015FA00282DD1F8
:10B6200020688168164A11408160206881686268DC
:10B63000A369114322691A43114381602168E068BC
:10B64000086120680169228941EA024101612046BE
:10B6500001F01CFA002811D12168CA6C22F0030203
:10B66000CA64E26961690A432168CB6C1A43CA64FF
:10B670002268FF215162012184F8211010BD0000D1
:10B68000BFFF8FFF00680549884205D1044850F884
:10B69000901F41F400410160704700000028004005
:10B6A0000010024070B5044690F820000B460128B7
:10B6B0001BD0012684F82060022084F82100B2B15A
:10B6C0009878D97840EA014558781978000240EA1C
:10B6D000413005432168CA204862216853204862EE
:10B6E000204601F0B0F9D0B120E0022070BD5878BA
:10B6F000C10603D500F0EF000A305870D87801F089
:10B7000097F90204587801F093F942EA00229878F8
:10B7100001F08EF90243187842EA4035DAE708482A
:10B72000054020684560204601F0B0F92268FF21FD
:10B73000516208B984F82160002184F8201070BD9E
:10B740003FFFFF002DE9F041044690F820009046AD
:10B750000D46012811D0012784F82070022084F8BA
:10B7600021002168CA20486221685320486220468F
:10B7700001F069F9002618B129E00220BDE8F08146
:10B780002068B8F1000F80684FEA406024D000289C
:10B7900000DBEE70A8782978EA7840EA0140697801
:10B7A000090241EA825108431849084021680860AB
:10B7B0002068816821F480218160D5E9031001436C
:10B7C0002068826811438160204601F05FF9226899
:10B7D000FF215162A0B115E0002800DBEE7028784F
:10B7E00001F026F90204687801F022F942EA002209
:10B7F000A87801F01DF90243E87842EA8050D3E7C7
:10B8000084F8217084F82060B8E700007F7F7F0013
:10B8100070B505460068C16821F0A001C160FEF75F
:10B82000B1FA04464FF47A7606E0FEF7ABFA001B55
:10B83000B04201D9032070BD2868C0688006F4D5E5
:10B84000002070BD2DE9F041040005D00025A5625F
:10B8500094F85D0018B107E00120BDE8F08184F89C
:10B860005C50204600F044F8022684F85D602068B1
:10B87000016821F040010160E0684FF4E06290420D
:10B8800001D9002101E04FF48051B0F5706F02D072
:10B89000904200D0A562276B012327B9904201D9BD
:10B8A000266300E02363D4E901021043D4E90426AF
:10B8B00032431043228B02F400721043E2691043BA
:10B8C000226A1043A26A104322681060626B606AA9
:10B8D000A66910430427E26807EA1646324310437C
:10B8E000084321684860256684F85D300020B4E78D
:10B8F000F0B587B0044614216846FCF7E3FC18490C
:10B90000206888422AD11748816D41F480418165C1
:10B91000816D01F480410591C16C41F00201C16467
:10B92000C06C022400F0020005904FF40440CDE901
:10B93000000402AA00200325052682E861000A4FC0
:10B9400069463846FEF736F96003CDE9000402AADD
:10B95000694682E870003846FEF72CF907B0F0BD62
:10B960000038004000100240000400482DE9F05F5C
:10B97000044690F85C0001250A9E1F4692468B46BD
:10B980004FF0000801280ED0012084F85C00FEF77B
:10B99000F9F9814694F85D00616801280CD0B1F591
:10B9A000827F07D102E0022000F00DB9A16809B939
:10B9B000042801D0022004E1BBF1000F24D0BAF129
:10B9C000000F21D007B394F85D00042802D00520B1
:10B9D00084F85D0000202066C4F840A0A4F84670FA
:10B9E000A4F84470C4F838B0E787A787E0642065FE
:10B9F000E0684FF4E061884201D8012F06D9206841
:10BA0000426822F4805205E00120DAE020684268B2
:10BA100042F48052426020680268520603D40268F1
:10BA200042F040020260E0688842606842D908B192
:10BA3000012F37D1A06B21680088C860A06B801CE3
:10BA4000A063E08F401EE0872CE0206881688907B2
:10BA50000DD5E18F59B1012D09D1A16B0988C160C4
:10BA6000A06B801CA063E08F401EE087002520684B
:10BA70008168C9070ED0B4F8461059B1C068216C6E
:10BA80000880206C801C2064B4F84600401EA4F896
:10BA900046000125FEF776F9A0EB0900B04201D37C
:10BAA000701C72D1E08F0028CFD1B4F84600002876
:10BAB000CBD173E008B1012F69D1E08F0128A06BD1
:10BAC00008D921680088C860A06B801CA063E08F43
:10BAD000801E07E0216800780873A06B401CA063FB
:10BAE000E08F401EE08752E020688168890718D502
:10BAF000E18FB1B1012D14D1E18F0129A16B07D9DB
:10BB00000988C160A06B801CA063E08F801E06E0E6
:10BB100009780173A06B401CA063E08F401EE08792
:10BB2000002520688168C90727D0B4F8461021B3E2
:10BB3000B4F84610012914D9C068216C0880206C23
:10BB4000801C2064B4F84600801EA4F84600B4F8B7
:10BB50004600012810D82068416841F480514160B6
:10BB60000AE0007B216C0870206C401C2064B4F853
:10BB70004600401EA4F846000125FEF703F9A0EB9D
:10BB80000900B04202D3701C01D019E0C6B1E08FA9
:10BB90000028A9D1B4F846000028A5D14A4631466C
:10BBA000204600F09FFF18B120204FF001082066CA
:10BBB000012084F85D00002084F85C004046F3E634
:10BBC00003208046F4E730BCBDE8C09F10B5401E9E
:10BBD000B0F1807F01D3012010BD4FF0E0246061FF
:10BBE0000F21601719F070FE0020A061072020616E
:10BBF000002010BD7047704770470000F0B590F806
:10BC00003C20012A3BD0012580F83C50022280F8DC
:10BC10003D2003685A689C681A4E1B4FB34201D0FE
:10BC2000BB4204D122F4700C4A6842EA0C02D1F8FB
:10BC300000C022F070024CEA020CC3F804C0026893
:10BC4000B24210D0B2F1804F0DD0104B9A420AD0C0
:10BC50000F4B9A4207D00F4B9A4204D0BA4202D0FF
:10BC60000D4B9A4204D1896824F0800319439160F6
:10BC700080F83D50002180F83C100846F0BD0220BD
:10BC8000F0BD0000002C01400034014000040040E1
:10BC900000080040000C00400040014010B50400C6
:10BCA00003D094F83D0010B107E0012010BD002042
:10BCB00084F83C00204600F00DF8022084F83D0096
:10BCC000211D206801F054F8012084F83D00002077
:10BCD00010BD000008B500681049B0F1804F14D0C5
:10BCE0000F4A904219D1886D40F004008865886D34
:10BCF000002200F00400009011461E20FEF7ECF830
:10BD0000BDE808401E20FEF7DAB8886D40F001005B
:10BD10008865886D00F00100009008BD00100240A9
:10BD200000080040022180F83D1002689168084B2D
:10BD30001940062906D0B1F5803F03D0116841F0C3
:10BD400001011160012180F83D10002070470000C2
:10BD5000070001000168CA6842F00102CA60016878
:10BD60008868064A1040062806D0B0F5803F03D008
:10BD7000086840F0010008600020704707000100DB
:10BD8000022180F83D1001680A6A41F211131A423B
:10BD900007D10A6A9B101A4203D10A6822F00102F5
:10BDA0000A60012180F83D100020704770B50446FC
:10BDB00090F83C00012817D0012584F83C5002205F
:10BDC00084F83D00206882682E4B1A4022F47F429E
:10BDD00082600868502830D00DDC20284DD005DC6A
:10BDE00098B310283BD148E0022070BD302844D0E1
:10BDF000402834D139E0602828D0702806D0B0F52A
:10BE0000805F2CD0B0F5005F29D10AE0CB68D1E982
:10BE10000121206801F00CF82068816841F0770169
:10BE200009E0CB68D1E90121206801F001F8206820
:10BE3000816841F48041816011E0CA6849682068E6
:10BE400001F008F85021206807E016E0CA68496848
:10BE5000206801F010F86021206800F0F3FF84F8FA
:10BE60003D50002084F83C0070BDCA6849682068D5
:10BE700000F0F0FF40212068EFE7226801461046FD
:10BE8000EBE7000088FFFEFF704770B504460068CE
:10BE900001694FF00005C943890715D4C168C9433A
:10BEA000890711D4E91E016101202077206880698B
:10BEB0008007204602D0FFF7E7FF04E000F0A7F874
:10BEC000204600F0A5F8257720680169C943490795
:10BED00017D4C168C943490713D46FF00401016145
:10BEE000022020772068806910F4407F204602D02D
:10BEF000FFF7CAFF04E000F08AF8204600F088F857
:10BF0000257720680169C943090716D4C168C94368
:10BF1000090712D46FF0080101610420207720681E
:10BF2000C0698007204602D0FFF7AEFF04E000F0B2
:10BF30006EF8204600F06CF8257720680169C94347
:10BF4000C90617D4C168C943C90613D46FF01001DC
:10BF50000161082020772068C06910F4407F2046E6
:10BF600002D0FFF791FF04E000F051F8204600F006
:10BF70004FF8257720680169C943C90708D1C1680E
:10BF8000C943C90704D1891E0161204600F041F868
:10BF900020680169C943090609D4C168C943090673
:10BFA00005D46FF0800101612046FFF724FE206870
:10BFB0000169C943C90509D4C168C943090605D443
:10BFC0006FF4807101612046FFF714FE206801695B
:10BFD000C943490609D4C168C943490605D46FF06D
:10BFE00040010161204600F015F820680169C9434D
:10BFF00089060BD4C168C943890607D46FF02001B4
:10C0000001612046BDE87040FFF7F6BD70BD704786
:10C010007047704770477047704700002DE9F04146
:10C0200002680446D0691168936840F60F052842FB
:10C030004FF0000505D186067BD58E0679D5216E99
:10C0400088E003F0010601F49077374371D0C70709
:10C0500007D0CF0505D501271762E26F42F0010234
:10C06000E267820708D5DA0706D0276802223A621B
:10C07000E26F42F00402E267420708D5DA0706D011
:10C08000236804221A62E26F42F00202E2670207AA
:10C090000AD501F02002324306D0236808221A6232
:10C0A000E26F42F00802E267020509D54A0107D5AE
:10C0B00023684FF400621A62E26F42F02002E267E6
:10C0C000E26F002A2ED0800605D5880603D5216EA2
:10C0D00009B120468847E06F21688968490602D483
:10C0E00010F0280F20D0204600F071FF20688168F2
:10C0F000490614D5816821F040018160E06E70B17D
:10C100001D498163E06EFDF778FB00280AD0E06EE0
:10C11000816B00E02046BDE8F041084709E0204679
:10C12000FFF77AFFBDE8F0812046FFF775FFE5676E
:10C13000F8E7C60209D55B0207D54FF480101062FC
:10C140002046BDE8F041FFF766BF030605D50B06A4
:10C1500003D5616E0029DDD1E4E74006E2D548064B
:10C16000E0D51168204621F040011160202161676F
:10C17000656600F0B9F8D5E7BBCF000810B504003C
:10C1800002D0606F10B107E0012010BD002084F8DC
:10C190007000204600F026F82420606720680168BF
:10C1A00021F001010160204600F020FF0128ECD0C1
:10C1B000606A10B1204600F070FE2068416821F4EA
:10C1C000904141602068816821F02A0181602068E7
:10C1D000016841F0010101602046BDE8104000F017
:10C1E000C0BE000030B587B0044614216846FCF795
:10C1F00069F820492068884239D11F48816D41F48F
:10C2000080218165816D01F480210591C16C41F02F
:10C210000201C164C16C01F002010591C16C41F0E1
:10C220000401C164C06C022400F0040005904FF4C6
:10C230000060CDE9000402AA0120072582E8310050
:10C2400069460E48FDF7B6FC6002CDE9000402AA7B
:10C25000002082E8310069460948FDF7ABFC002266
:10C2600011462720FDF738FE2720FDF728FE07B0EE
:10C2700030BD0000004800400010024000040048AB
:10C2800000080048436F202B28D1B1B1AAB190F823
:10C290007030012B22D0012380F87030C164A0F8E7
:10C2A0005020A0F8522000214166C1672122426738
:10C2B0008268B2F5805F02D003E001207047026916
:10C2C00052B1074A426680F870100068016841F078
:10C2D0008001016000207047024AF3E702207047A6
:10C2E000E1D20008A1D200087047FDF727FEFEE763
:10C2F000F0B500230A24302537261F4610E0B4EBA2
:10C30000107F02D905EB107C01E006EB107C01F8F0
:10C3100013C001EB430C00015B1C8CF80170DBB215
:10C320009342ECD3F0BD00EB8100006E00F0F840CA
:10C3300070478068C0F3C00070478068C0F3000099
:10C3400070478068C0F3800070478068C0F3800049
:10C350007047C06810F4406F01D000207047012082
:10C360007047042303EAD15310B518444369C1F35D
:10C37000045107248C40A3438A401343436110BDFA
:10C3800000EB8100016E21F000411143016670470E
:10C3900030B589B0002406940794182168460894A3
:10C3A000FBF790FF174816490425C0E90014846084
:10C3B000C460C0E90445047644760121C16180F877
:10C3C0002040C0E90914C46280F83040446380F81A
:10C3D0003840FCF7EDFF06A90A480694FCF772FD09
:10C3E000094800900620CDE901047F200594CDE99D
:10C3F000030569460348FCF7DDFD09B030BD0000C8
:10C400000000045078020020000021432DE9F04193
:10C4100086B014216846FBF755FF4B48C16C41F0CC
:10C420000401C164C16C01F004010591C16C41F0CB
:10C430008001C164C16C01F080010591C16C41F0C3
:10C440000101C164C16C01F001010591C16C41F0B1
:10C450000201C164C06C012200F002003B4E540393
:10C46000059021463046FDF787FC4FF090470022AB
:10C470000A213846FDF780FCDFF8D480012241F222
:10C4800010014046FDF778FC002248214046FDF7A8
:10C4900073FC009401240025694630460194CDE9DF
:10C4A0000245FDF787FB2B486946CDE90040022095
:10C4B00002903846FDF77EFB0A208DE83100694680
:10C4C00038460395FDF776FB0420CDE90005694663
:10C4D00038460295FDF76EFB402000901E48CDE9DE
:10C4E000010469463846FDF765FB2003CDE90004E9
:10C4F0000320CDE9024069464046FDF75BFB58202A
:10C500008DE83100694640460395FDF753FB202036
:10C5100000901248CDE9010469464046FDF74AFB08
:10C52000002211460620FDF7D7FC0620FDF7C7FCC8
:10C53000002201211720FDF7CFFC1720FDF7BFFCDB
:10C5400006B0BDE8F081000000100240000800487D
:10C5500000040048000011100000211000003110FC
:10C560000E480D494FF4E06201604FF48271416062
:10C570000021C0E902124FF400720161C0E9051206
:10C580001822C0E9072107224162C0E90A120163AB
:10C5900008214163FFF756B900380040100300201E
:10C5A00010B588B0002411480094019402940394BB
:10C5B000049405944FF08041069401604F21C0E936
:10C5C0000114611EC0E903148461FFF767FB4FF497
:10C5D0008050009069460548FFF7E8FB049404A9E1
:10C5E00002480694FFF70AFB08B010BD7403002050
:10C5F00010B588B00024114800940194029403946B
:10C60000049405940C49069401605021C0E901147A
:10C61000C46004618461FFF741FB4FF480500090D7
:10C6200069460648FFF7C2FB049404A90348069430
:10C63000FFF7E4FA08B010BD00080040B403002082
:10C640000948084901604FF4E131416000218160EF
:10C650000C22C160C0E904128161C16101624162C2
:10C66000FFF78CBD00480040F403002010B5002205
:10C670000F49104801F098F908B1FCF7CBFA0E49C0
:10C680000C4801F0CDFB08B1FCF7C4FA0B4909488E
:10C6900000F080FF08B1FCF7BDFA064801F016FC77
:10C6A000002803D0BDE81040FCF7B4BA10BD00006C
:10C6B0000000002074040020380100100000001069
:10C6C000FEE7704710B5064C206840F480202060DB
:10C6D0000448FDF7DBFD206820F48020206010BDB9
:10C6E000B4000010980300102DE9F0470E46C1EB8E
:10C6F000C60100EB8104D0F80080D4E914103C346A
:10C70000884202D90120BDE8F087081AA168814259
:10C7100000D20846C01C870808EB461912E0451AEB
:10C72000A068A84200D20546E81C8708ABB2F2B266
:10C730004046E16802F0DFF9E0682844E060A06963
:10C740002844A061D9F8180980B2B84205D3D4E9C9
:10C750000501814201D20028E1D1D4E905018842D6
:10C7600008D806F00F0101208840D8F8341881431A
:10C77000C8F834180020C6E7704700002DE9F041E2
:10C78000444E05468846F0680024810728680ED08C
:10C79000F16801F00301814207D130B1F0686968A6
:10C7A000C0F30210401C88421FD001246EE0012813
:10C7B00009D002280AD00328F7D13168890309D4A7
:10C7C0003168490304E03168890701E031684905AF
:10C7D0000029EADAF1686A686FF00F0321F073014B
:10C7E00003EB021211430143F160306820F08060D6
:10C7F0003060FDF7C7FA074604E0FDF7C3FAC01B37
:10C80000022839D830680001F7D47CBBB8F1000F9A
:10C8100018D0B8F1010F1ED0287D4FF07E4140089E
:10C8200001EB4060A96840EA012031691A4A1140D1
:10C8300008433061306840F080603060FDF7A2FA54
:10C8400007461BE0A868E9680002090940EA414080
:10C850003169124AEBE7288A1149400801EB405040
:10C86000A96840EA012031690E4AE0E70EE0FDF7D1
:10C8700089FAC01B022801D9032407E030680001AF
:10C88000F5D51CB93069A969084330612046BDE877
:10C89000F081000000100240FF80FFF9FF80FDFFE3
:10C8A0000000E0FFFF809FFF2DE9F0413E4E05466E
:10C8B0008846F0680024810728680ED0F16801F0EE
:10C8C0000301814207D130B1F0686968C0F30210FA
:10C8D000401C88421FD0012462E0012809D00228B0
:10C8E0000AD00328F7D13168890309D43168490394
:10C8F00004E03168890701E0316849050029EADA76
:10C90000F1686A686FF00F0321F0730103EB021204
:10C9100011430143F160306820F080503060FDF732
:10C9200031FA074604E0FDF72DFAC01B02282DD886
:10C9300030688000F7D454BBB8F1000F15D0287CC4
:10C940004FF07E41400801EB4060A96840EA0121B8
:10C950007069164A104001437161306840F08050A0
:10C960003060FDF70FFA074612E0A868E968000298
:10C97000090940EA414071690D4A1140084370615C
:10C98000EBE7FDF7FFF9C01B022801D9032407E0FC
:10C9900030688000F5D51CB9706969690843706119
:10C9A0002046BDE8F081000000100240FF80FFF942
:10C9B000FF80FDFFF8B51C4E05460024B06DC00099
:10C9C00002D5FEF769F80DE0B06D40F08050B0651B
:10C9D000B06D00F080500090FEF75EF8B16D21F070
:10C9E0008051B165B0F5007F04D0802D07D94FF09C
:10C9F00003040AE0802D08D9A02D01D804E001D15C
:10CA0000022402E0702D00D101240848016821F0C1
:10CA1000070121430160006800F00700A04201D037
:10CA20000120F8BD0020F8BD0010024000200240A7
:10CA3000002102E00A38C0B2491C0A28FAD20907CC
:10CA400040EA116070472DE9F04105460068002476
:10CA5000C168490616D4611EC160FDF793F9064608
:10CA60004FF47A78032707E0FDF78CF9801B4045E7
:10CA700002D9032485F821702868C068400601D4D3
:10CA8000032CF1D12046BDE8F08100002DE9F041F2
:10CA9000054613480024016821F080010160061F4B
:10CAA00030684FF00307800607D42846FEF7B0FE33
:10CAB00090B185F8217003240EE0306820F020004A
:10CAC00030602846FEF7A4FE10B185F821700324DB
:10CAD000306840F0200030602046BDE8F081000062
:10CAE0000C280040F8B515460E460B460092044649
:10CAF00000224FF4C05100F019F888B933460022E3
:10CB000080212046009500F05CF848B933460022A9
:10CB10004FF4C0612046009500F008F8002804D0CA
:10CB2000206E40F0200020660320F8BD2DE9F0477C
:10CB30001D4616460F4604464FF4C069DDF82080B6
:10CB40000CE04F4501D106B9007B681C06D0FDF70B
:10CB500019F9A0EB0800A84208D23DB1206881680D
:10CB60003940B142EDD10020BDE8F087206841682E
:10CB700021F0E00141606068B0F5827F0BD1A068D0
:10CB8000B0F5004F02D0B0F5806F04D12068016885
:10CB900021F040010160A06AB0F5005F09D1206872
:10CBA000016821F4005101602068016841F40051DE
:10CBB0000160012084F85D00002084F85C000320FF
:10CBC000D2E72DE9F0411D4617460E460446DDF832
:10CBD000188008E0681C06D0FDF7D4F8A0EB080028
:10CBE000A8420BD255B12068806836EA000030D0E8
:10CBF0000020B842EED10020BDE8F08120684168F5
:10CC000021F0E00141606068B0F5827F0BD1A0683F
:10CC1000B0F5004F02D0B0F5806F04D120680168F4
:10CC200021F040010160A06AB0F5005F09D12068E1
:10CC3000016821F4005101602068016841F400514D
:10CC40000160012084F85D00002084F85C0003206E
:10CC5000D2E70120CDE7704710B5FDF7CDF8BDE86C
:10CC600010401BF01DBD0000F0B5B9B0442122A852
:10CC7000FBF728FB142133A8FBF724FB8821684627
:10CC8000FBF720FBFDF71AFF214850F8901F21F019
:10CC9000180101600D2022904FF480300124CDE96D
:10CCA0002304022003262794CDE92C0607270A2116
:10CCB000CDE93070CDE92E41329022A8FEF7FAF985
:10CCC00000250F20CDE9346533903695042133A833
:10CCD0003795FEF7E3F80F48009080061E90001588
:10CCE000219080041B900C20CDE902400420CDE966
:10CCF000047010950196082006904FF088700790F8
:10CD00006846FDF7F5FE6002FDF782FE39B0F0BD22
:10CD100000100240046002000D48016841F47001F7
:10CD200001600C48016841F001010160002181604F
:10CD30000268094B1A4002608214C260026822F441
:10CD40008022026081610249C00380390860704717
:10CD500088ED00E000100240FFFFF6EA10B51BF07E
:10CD6000E3FCBDE810400148FFF78FB8B403002092
:10CD70002DE9F0470268264C264D274E274F284BB9
:10CD80004FF0804AA04209D0504507D0A84205D0B4
:10CD9000B04203D0B84201D0984204D122F0700CC6
:10CDA0004A6842EA0C02DFF87CC0DFF87C80DFF8DA
:10CDB0007C90A0420FD050450DD0A8420BD0B0427D
:10CDC00009D0B84207D0984205D0604503D040450D
:10CDD00001D0484503D122F44075CA682A434D6901
:10CDE00022F080022A4302608A68C2620A68826274
:10CDF000A04207D0984205D0604503D0404501D0FD
:10CE0000484501D10969016301214161BDE8F0870D
:10CE1000002C01400004004000080040000C0040CD
:10CE200000340140004001400044014000480140FE
:10CE300010B5846842EA032224F47F440A43224363
:10CE4000826010BD826822F070020A4342F007013E
:10CE50008160704710B5046A036A23F0010303621E
:10CE6000836923F0F00343EA021324F00A020A4321
:10CE70008361026210BD10B5036A23F010030362E0
:10CE80008469036A24F4704444EA023223F0A00364
:10CE900043EA01118261016210BD90F82410C907B4
:10CEA00006D001684A68836A22F400321A434A6055
:10CEB00090F82410890706D501684A68C36A22F4ED
:10CEC00080321A434A6090F82410490706D5016859
:10CED0004A68036B22F480221A434A6090F82410B7
:10CEE000090706D501684A68436B22F400421A43D9
:10CEF0004A6090F82410C90606D501688A68836BD9
:10CF000022F480521A438A6090F82410890606D5CC
:10CF100001688A68C36B22F400521A438A6090F851
:10CF20002410490611D501684A68036C22F4801266
:10CF30001A434A60016CB1F5801F06D101684A6846
:10CF4000436C22F4C0021A434A6090F82410090688
:10CF500006D501684A68806C22F4002202434A60C8
:10CF60007047F8B500250446C567FCF70BFF074678
:10CF7000206800686FF07E46000708D53B46002217
:10CF80004FF400112046009600F0C8F960B92068FF
:10CF9000006840070AD53B4600224FF48001204636
:10CFA000009600F0BBF908B10320F8BD20206067AF
:10CFB000A06784F870500020F8BD10B5806A002189
:10CFC000A0F85A10A0F85210FFF726F810BD01681B
:10CFD0000A6822F490720A6001688A6822F00102ED
:10CFE0008A60202181670021016670472DE9F047A2
:10CFF000054600682B69A968EC6919436B6900262E
:10D00000234319439A4A036837469A4C23400B43FB
:10D01000036028684168EB6821F44051194341607E
:10D020002968A869914201D02B6A18438B6823F4C0
:10D03000306303438B60904B2968904899420DD12F
:10D04000D0F8880010F0030006D0012869D002282B
:10D0500065D0032851D166E001244FE0884B994206
:10D060000BD1D0F8880010F00C0056D0042858D00E
:10D07000082854D00C2840D155E0824B99420BD15E
:10D08000D0F8880010F0300047D0102849D0202870
:10D0900045D0302831D146E07B4B99420BD1D0F8B6
:10D0A000880010F0C00038D040283AD0802836D010
:10D0B000C02822D137E0754B99420ED1D0F88800B4
:10D0C00010F4407029D0B0F5807F2AD0B0F5007FF1
:10D0D00025D0B0F5407F10D125E091420DD1D0F898
:10D0E000880010F4406018D0B0F5806F19D0B0F50A
:10D0F000006F14D0B0F5406F15D01024644B4FF082
:10D1000000084FF4004091424CD174B1022C0FD072
:10D11000042C0FD0082C18D10FE00024EEE70224D5
:10D12000ECE70424EAE70824E8E7FDF753FF03E00F
:10D13000184602E0FDF772FF98B36A6802EB4201FD
:10D14000814202D8B0EB023F01D9012789E064B1E6
:10D15000022C0DD0042C13D0082C1BD001274D49D4
:10D16000A6F5407088427AD9EFE7FDF733FF09E072
:10D170005008494B11E00023FBF726F80646EEE77E
:10D18000FDF74CFF6A68010E04025008201841EBBD
:10D190000801F0E750084FF40003C01848F10001FF
:10D1A000E9E75EE0E9694FF6EF7981422ED1092C7B
:10D1B0001DD2DFE804F00508121C151C1C1C180009
:10D1C000FDF708FF01E0FDF717FF4100686801EB7C
:10D1D0005001B1FBF0F086B20AE030496868F6E72A
:10D1E000FDF71CFFF1E74FF480316868EFE7012796
:10D1F000A6F110004845A8D84FF6F07106EA0100E4
:10D20000C6F3420108432968C8602AE0092C21D2EC
:10D21000DFE804F005081220162020201A00FDF790
:10D22000D9FE01E0FDF7E8FE0146686801EB500118
:10D23000B1FBF0F086B20EE0686803EB5001F7E74F
:10D24000FDF7ECFEF0E70AE0696800EB5100B0FB87
:10D25000F1F0EFE70127A6F11000484584D82868CF
:10D26000C660C5F860803846C5F86480BDE8F087C0
:10D2700000800040F369FFEF0038014000100240D9
:10D280000044004000480040004C00400050004076
:10D290000024F400FFFC0F00000024F40048E80123
:10D2A000416F212910D1B0F8521071B1C16C0268E0
:10D2B0000988C1F308011185C16C891CC164B0F8EB
:10D2C0005210491EA0F85210704701680A6822F0F7
:10D2D00080020A600068016841F040010160704707
:10D2E000416F21290ED1B0F8521061B1C16C0268B2
:10D2F00009781185C16C491CC164B0F85210491EEF
:10D30000A0F85210704701680A6822F080020A6093
:10D310000068016841F04001016070472DE9F04765
:10D320001F4690460E4604464FF0000A4FF0200973
:10D33000089D37E0681C35D0FCF724FDC01BA842CF
:10D3400021D805B32068016849072BD5C069C043BF
:10D35000000527D421684FF4006008622068016846
:10D3600021F4D07101602068816821F001018160A1
:10D37000C4F87490C4F87890C4F87C9084F870A0D5
:10D380000320BDE8F0872068016821F4D0710160B6
:10D390002068816821F001018160C4F87490C4F8AC
:10D3A0007890EBE72068C06936EA000004D00020DE
:10D3B0004045BFD00020E4E70120F9E70148FEF72F
:10D3C0002DBE0000F40300202DE9F041D0F8C0523A
:10D3D000D0F8B822DAB101EB810300EB8303002619
:10D3E000DC694CB1C1EBC10705EB87056D6CB4FB83
:10D3F000F5F705FB174424B1C2F814620020BDE81C
:10D40000F081DE6100231A4600F0E6FCF6E7022018
:10D41000F5E770B50546D0F8B84200F0BBFBC4F89C
:10D420000C02D5F8B80248B1D5F8BC12D4F8040201
:10D43000CA6804F503719047002070BD022070BDDA
:10D4400070B504460026812100F0D3FA00250121A1
:10D450002046E56200F0CDFA82212046C4F86C51E6
:10D4600000F0C7FA2564D4F8B80248B1D4F8BC0279
:10D4700004F52E7440688047206800F084FE256023
:10D48000304670BD10B5D0E9AE4159B194F80002F4
:10D49000FF2807D08B6894F8012221469847FF2087
:10D4A00084F80002002010BD0A2101800048704766
:10D4B0008C0100204321018000487047DC010020DE
:10D4C00043210180004870479801002043210180DA
:10D4D00000487047200200202DE9F0410446002654
:10D4E000007C4FF40077012590B340230222812174
:10D4F000204600F097FB4023E562022201212046EE
:10D5000000F090FB0823032282212046C4F86C51CE
:10D5100000F088FB4FF40770256400F035FEC4F876
:10D52000B802F8B10546D4F8BC0200688047002173
:10D53000C5F81412C5F81812207CD5F8042298B149
:10D5400040230121204600F080FB3046BDE8F081F9
:10D55000FFE73B4602228121204600F063FB3B4669
:10D56000E562CAE70126F0E73B46EAE710B5D0F8E6
:10D57000B81269B1027C002AD1F8042205D04023F8
:10D58000012100F062FB002010BD4FF40073F7E7AB
:10D59000022010BD02460220002902D00020C2F85D
:10D5A000BC127047D0F8B802C0F8041200207047CF
:10D5B000D0F8B802C0F81022C0F808120020704756
:10D5C0002DE9FC410546D0F8B87200208DF8000026
:10D5D000ADF80400064608780C4610F0600121D032
:10D5E00020293BD1E288AAB10006607807D5D5F89A
:10D5F000BC128B6839469847E288394626E087F89E
:10D600000002A07987F80102E2883946284600F036
:10D610006AF828E0D5F8BC12607800228B682146B1
:10D62000984720E0607820B10A2809D00B2815D14E
:10D6300010E095F89C02032810D1022201A905E010
:10D6400095F89C02032809D101226946284600F07A
:10D6500064F808E095F89C02032804D02146284687
:10D6600000F036F802263046BDE8FC8110B5D0F84F
:10D67000B812A1B1D1F814220AB1012010BD0122C3
:10D68000C1F81422D1F810220263B1F8102293B22B
:10D69000D1F80822812100F09FFB002010BD02205C
:10D6A00010BD10B5D0F8B42252689047002010BDCC
:10D6B000134610B50A46002100F0C7FA002010BD3D
:10D6C000134610B50A46002100F086FB002010BD6D
:10D6D00010B50446802100F046FB2046BDE810400E
:10D6E000002100F040BB10B50323C0F85C21C0F856
:10D6F0009432C0F8602113460A46002100F0A5FAD2
:10D70000002010BD10B505210023C0F894121A4660
:10D71000194600F09AFA002010BD10B50223C2612C
:10D72000C0F89432026213460A46002100F054FB0E
:10D73000002010BD10B504210023C0F894121A4631
:10D74000194600F049FB002010BD10B50446012029
:10D7500084F89C02D4F8B4022179426820469047AC
:10D76000204600F020FB204600F0F7F9002010BD15
:10D7700010B50A46024903A000F0F2F8004810BDB7
:10D78000A007001043444320436F6E6669670000A2
:10D7900012200880004870472400002010B50A4677
:10D7A000024903A000F0DCF8004810BDA0070010FB
:10D7B00043444320496E74657266616365000000EE
:10D7C00004200880004870472000002010B50A4659
:10D7D000024903A000F0C4F8004810BDA0070010E3
:10D7E0004D617276656C6D696E6420526F626F7404
:10D7F0006963730010B50A46024903A000F0B0F84F
:10D80000004810BDA007001053544D333220566914
:10D81000727475616C20436F6D506F7274000000FC
:10D8200010B51A2008800A480168001D0468001D10
:10D830000068081809D008220649FEF759FD054975
:10D84000042210312046FEF753FD0248801E10BD11
:10D850009075FF1F460000200C200880004870478C
:10D8600038000020F8B5044600200D46ADF8000051
:10D870004988080A062848D006DC012810D002286A
:10D8800013D003284BD11EE0072846D00F2846D1DD
:10D89000D4F8B002C26921E06946904701464BE0E6
:10D8A000D4F8B012207C0A68F6E7207C0226002813
:10D8B000D4F8B40205D0C16A68468847014646706C
:10D8C0003AE0816AF8E7C8B2062828D2DFE800F01B
:10D8D00003090D111519D4F8B0024268FAB1207C81
:10D8E000DAE7D4F8B0028268F8E7D4F8B002C26888
:10D8F000F4E7D4F8B0020269F0E7D4F8B002426964
:10D90000ECE7D4F8B0028269E8E7207C38B9D4F8B3
:10D91000B402416B68468847C0E7207C20B12946A5
:10D920002046FFF7D5FEF8BDD4F8B402016B684677
:10D930008847014607204870BDF8000048B1EA88D2
:10D9400052B1824200D90246ADF800202046FFF7CE
:10D95000E4FEE8880028E6D12046FFF7EBFEF8BD9C
:10D9600070B5002300281ED00446002502E06D1C7F
:10D97000EDB2641C2678002EF9D1022404EB450494
:10D9800014801278CA545B1C0322CA5400245B1C06
:10D9900006E0CA545B1CDAB28C54521CD3B2401C51
:10D9A0000278002AF5D170BD10B580B1D0F8B4323C
:10D9B00013B10023C0F8B43209B1C0F8B01201218C
:10D9C00080F89C12027000F0E9F8002010BD0220DF
:10D9D00010BD10B50024D0F8C002FCF77EFB30B1BA
:10D9E000012801D0022801D0022400E001242046B1
:10D9F00010BD10B50024D0F8C002FCF748FB30B1D0
:10DA0000012801D0022801D0022400E00124204690
:10DA100010BD2DE9F0411746044651B1D4F8B402C7
:10DA200042691AB194F89C02032851D00220BDE843
:10DA3000F081D4F89432002504F11400022B03D0B5
:10DA4000042B3AD0C3B33CE0D0E903639E4207D92C
:10DA5000F11AC1608AB239462046FFF731FE12E062
:10DA60008068B0FBF3F103FB110199B9984211D31F
:10DA7000D4F8981288420DD2002211462046FFF7B2
:10DA80001FFEC4F8985200231A461946204600F09B
:10DA9000DCF816E0D4F8B402C16829B194F89C020D
:10DAA000032801D1204688478021204600F05BF9F9
:10DAB0002046FFF727FE04E0FFE78021204600F024
:10DAC00052F994F8A002012804D184F8A05201E090
:10DAD000204690470020AAE770B51546044649B194
