:020000040800F2
:1000000000400020AD190008C11D00081D1A00089D
:1000100000000000000000000000000000000000E0
:10002000000000000000000000000000C31D0008E8
:100030000000000000000000C51D0008C71D0008EA
:100040001D1A00081D1A0008A18C00081D1A0008BE
:100050001D1A00081D1A00081D1A00083544000862
:100060001D1A00081D1A0008BB6200081D1A0008AE
:100070001D1A00081D1A00081D1A00081D1A000884
:100080001D1A00081D1A0008000000001D1A0008B3
:100090001D1A00081D1A00081D1A00081D1A000864
:1000A0001D1A00081D1A00081D1A0008A585000861
:1000B00019870008000000001D1A00081F1A000818
:0400C0002301000810
:1000C400BFF34F8F024A034BDA60BFF34F8FFEE753
:1000D4000400FA0500ED00E00120074BDA68024253
:1000E40009D1DA680018D20605D4D8680423184068
:1000F400421E9041181A70470020024010B5B024E7
:10010400FFF7EAFF2403012805D1002C05D0FFF7EF
:10011400E3FF013CF7E7002C00D1052010BDF0B54A
:100124001E002E4B85B00192984254D12C4B99421B
:1001340051D102272B4DFFF7E1FF042849D140227A
:10014400294C23693B43236165612369134323617C
:10015400FFF7D4FF2369BB432361042839D18023EB
:100164001B01ED18214B9D42E5D11E4DF822019B48
:1001740012069B185B59009300230393FFF7BEFFFD
:10018400042826D101222369174F134323616B46A8
:100194001B882B80FFF7B2FF04280ED1AB1C0393FE
:1001A400009B039A1B0C1380FFF7A8FF01223B69F5
:1001B40093433B61042805D00BE001223B69934340
:1001C4003B6106E0013E0435002E02D0074B9D4200
:1001D400CCD1FFF775FF05B0F0BDC04675E3094B00
:1001E40042F06A8100080008002002400000010873
:10080000054B0648033310B51B1A062B03D9044BBE
:10081000002B00D0984710BD1801002018010020BF
:10082000000000000648074910B5091A8910CB0FCF
:100830005918491003D0044B002B00D0984710BD25
:1008400018010020180100200000000010B5074C1E
:100850002378002B09D1FFF7D3FF054B002B02D0E3
:10086000044800E000BF0123237010BD18010020E0
:100870000000000018A30008094B10B5002B03D09E
:100880000849094800E000BF08480368002B02D16E
:10089000FFF7C8FF10BD064B002BF9D09847F7E7CC
:1008A000000000001C01002018A30008180100200F
:1008B0000000000002B4714649084900095C490083
:1008C0008E4402BC7047C046002243088B4274D35A
:1008D00003098B425FD3030A8B4244D3030B8B4241
:1008E00028D3030C8B420DD3FF22090212BA030C4A
:1008F0008B4202D31212090265D0030B8B4219D32B
:1009000000E0090AC30B8B4201D3CB03C01A52414A
:10091000830B8B4201D38B03C01A5241430B8B4292
:1009200001D34B03C01A5241030B8B4201D30B037B
:10093000C01A5241C30A8B4201D3CB02C01A5241A2
:10094000830A8B4201D38B02C01A5241430A8B4265
:1009500001D34B02C01A5241030A8B4201D30B024E
:10096000C01A5241CDD2C3098B4201D3CB01C01A68
:10097000524183098B4201D38B01C01A5241430972
:100980008B4201D34B01C01A524103098B4201D360
:100990000B01C01A5241C3088B4201D3CB00C01ACD
:1009A000524183088B4201D38B00C01A5241430845
:1009B0008B4201D34B00C01A5241411A00D201466A
:1009C000524110467047FFE701B5002000F0F0F8F3
:1009D00002BDC0460029F7D076E7704703460B43B7
:1009E0007FD4002243088B4274D303098B425FD328
:1009F000030A8B4244D3030B8B4228D3030C8B4254
:100A00000DD3FF22090212BA030C8B4202D3121239
:100A1000090265D0030B8B4219D300E0090AC30B0E
:100A20008B4201D3CB03C01A5241830B8B4201D3BB
:100A30008B03C01A5241430B8B4201D34B03C01AA4
:100A40005241030B8B4201D30B03C01A5241C30A1C
:100A50008B4201D3CB02C01A5241830A8B4201D38D
:100A60008B02C01A5241430A8B4201D34B02C01A77
:100A70005241030A8B4201D30B02C01A5241CDD21C
:100A8000C3098B4201D3CB01C01A524183098B4267
:100A900001D38B01C01A524143098B4201D34B0150
:100AA000C01A524103098B4201D30B01C01A5241B3
:100AB000C3088B4201D3CB00C01A524183088B423A
:100AC00001D38B00C01A524143088B4201D34B0023
:100AD000C01A5241411A00D2014652411046704795
:100AE0005DE0CA0F00D04942031000D3404253409A
:100AF00000229C4603098B422DD3030A8B4212D35A
:100B0000FC22890112BA030A8B420CD3890192118B
:100B10008B4208D3890192118B4204D389013AD0C8
:100B2000921100E08909C3098B4201D3CB01C01A9D
:100B3000524183098B4201D38B01C01A52414309B0
:100B40008B4201D34B01C01A524103098B4201D39E
:100B50000B01C01A5241C3088B4201D3CB00C01A0B
:100B6000524183088B4201D38B00C01A5241D9D223
:100B700043088B4201D34B00C01A5241411A00D2A4
:100B80000146634652415B10104601D34042002BA0
:100B900000D54942704763465B1000D3404201B51F
:100BA000002000F005F802BD0029F8D016E77047D4
:100BB0007047C0468446081C6146FFE71FB500F039
:100BC00047FB002801D40021C8421FBD10B500F02A
:100BD000D3FA4042013010BD10B500F039FB0028B7
:100BE00001DB002010BD012010BDC04610B500F093
:100BF0002FFB002801DD002010BD012010BDC046E4
:100C000010B500F0E1FA002801DC002010BD012041
:100C100010BDC04610B500F0D7FA002801DA002058
:100C200010BD012010BDC0469E2110B5C905041C91
:100C3000FFF7F0FF002803D1201C00F0E7FD10BDF6
:100C40009E21201CC90500F05BFC00F0DFFD802325
:100C50001B069C466044F2E7F8B54A024302440092
:100C60004E00C50F240E28009B09360EC90F9209AD
:100C70008D4259D0A01B002800DC8DE0002E1AD137
:100C8000002A00D079E05A0704D00F221A40042A23
:100C900000D004335A0138D50134FF2C00D189E04B
:100CA00028009B015B0AE4B25B02E4055B0A234374
:100CB000C0071843F8BDFF2CE5D08021C9040A43C2
:100CC0001B2800DD89E016002021C640081A82405A
:100CD000511E8A4132439B1A5A0114D59B019E0929
:100CE000300000F03BFE05388640844265DC041B82
:100CF000330020200134E340041BA640721E9641BD
:100D000000243343BFE75A07BFD1DF082800FF2C78
:100D10002FD1002F00D187E08022D20313003B4364
:100D20005B025B0AFF24BFE7A11B002949DD002EFF
:100D300029D0FF2CA7D08026F60432431B2900DDE2
:100D40008DE017002026CF40711A8A40511E8A413B
:100D50003A439B185A01D6D50134FF2C64D00122A6
:100D600076491A405B080B4013438CE7031ECAD137
:100D700000207B025B0AE4B296E701380028AAD083
:100D8000FF2C9DD17FE7002A00D17CE701390029A3
:100D9000DFD0FF2CD2D176E7002820D1601CC0B272
:100DA000012853DD80279E1AFF0437402FD0D61A22
:100DB0000D0095E72800002376E7614B241A3340A5
:100DC00061E700294DD1611CCEB2012E2FDDFF2934
:100DD0002AD09B185B080C0055E701227BE7002C0A
:100DE0001BD1002B5BD0C04300280CD0FF2E7ED03F
:100DF0001B2800DD92E01D002024C540201A8340FE
:100E0000581E83412B43D31A34000D0064E7002E93
:100E100000D065E700200024ABE7FF2E67D08024D8
:100E2000E40440422343E3E7FF2400233CE7002C93
:100E300061D1002B7ED0002A00D124E79B185A01F3
:100E400000D460E73E4A0C0013401CE7002C1ED182
:100E5000002B2FD1002A66D013000D0013E70122CA
:100E600077E7002C1FD1002B5AD0C94300290BD0A3
:100E7000FF2E50D01B295FDC1F002024CF40611AB9
:100E80008B40591E8B413B439B18340062E7002B7B
:100E90001CD1002A4AD013000D00FF24F3E61300F2
:100EA00034000D00EFE6FF2E35D08024E4044942E3
:100EB0002343DFE7002A00D1E5E68027981AFF04E4
:100EC000074000D152E7D31A0D00DCE6FF24002AC8
:100ED00000D1D8E68020DB08C003034204D0D2084A
:100EE000024201D113000D00DB00FF24CBE613000A
:100EF000FF240D00C7E6002B0DD0FF24002A00D1EF
:100F0000C1E68021DB08C9030B42EDD0D2080A42BA
:100F1000EAD11300E8E71300FF24B4E6012372E7E7
:100F200013003400AFE60027002022E780270020CE
:100F3000FF03F1E61300A6E60123A5E7FFFFFF7D0F
:100F4000FFFFFFFBF0B5564644465F464D46F0B402
:100F500044024600C70F83B08846650A360EBA467B
:100F60003DD0FF2E22D00023EC00802599469B46E1
:100F7000ED0425437F3E43465C025800DB0F640AC4
:100F8000000E984636D0FF2830D080230021E400A0
:100F9000DB041C437F38301A019048464246084320
:100FA000724E800030587A4013008746002D44D19D
:100FB00008239946063B9B46DDE70122FF200024DB
:100FC0001A406402C305640AD2071C43144320007C
:100FD00003B03CBC90469946A246AB46F0BD002DFE
:100FE00020D104239946033B9B46C4E7002C17D12C
:100FF000022102E0002C0AD10121321A01924A4654
:1010000043460A435A48920082587B409746200044
:1010100000F0A4FC431F76309C4040420021BAE718
:101020000321B8E7280000F099FC431F9D400023EE
:101030007630464299469B469DE70C239946093BEC
:101040009B4698E780240022E403FF20B9E70024B0
:10105000C2468B465A465346022AAED0032A7DD05A
:10106000012A31D1012200201A400024A9E70122DF
:10107000101A1B2856DD1A4000200024A1E7802307
:10108000DB031D424BD18023DB032B435C02640A4C
:101090003A00FF2095E76D016001854230D2019A48
:1010A0000024013A01921B220127290064006D00EF
:1010B000002901DBA84201D82D1A3C43013A002A3D
:1010C000F3D16A1E95412C4301987F300028CEDD74
:1010D000620704D00F222240042A00D004342201E7
:1010E00003D5244A019814408030FE2800DD64E7CF
:1010F0000122A401640AC0B21A4062E72C00A9E7E9
:101100002D1A1A220124CFE76B02BCD500248023BC
:10111000DB031C436402640A4246FF2051E71C4281
:10112000B3D1F4E721002022C140101A8440621E8E
:1011300094410C43620704D00F222240042A00D0BD
:101140000434620104D5012201201A40002438E74A
:101150000122A401640A1A40002032E78023DB0345
:101160001C436402640A5246FF202AE720A10008BB
:1011700060A10008FFFFFFF7430270B542004C007A
:101180005D0AC30F4802120E460A240EC90FFF2A39
:101190000FD0FF2C11D00120A24200D070BDB5426B
:1011A000FCD18B420DD0002AF8D12800431E984173
:1011B000F4E70120002DF1D1EBE70120002EEDD165
:1011C000E9E70020EAE7C0464302F0B542005D0AC5
:1011D000C30F4802440A4800120E000EC90FFF2A2E
:1011E0001FD0FF2822D0002A09D16E426E4100286C
:1011F0000FD1002C0DD10020002D09D005E00028D2
:1012000001D1002C01D08B4213D058420123184346
:10121000F0BD002EF7D04842414101204942084329
:10122000F6E7002DDDD002204042F1E7002CDAD0B5
:10123000F9E78242E9DC04DBA542E6D80020A542BA
:10124000E6D25842434101205B421843E0E7C046E2
:101250004302F0B542004C005E0AC30F4802120E72
:10126000450A240EC90FFF2A17D0FF2C19D0002AD7
:101270000BD170427041002C17D0002807D0484293
:101280004141012049420843F0BD002C13D08B425C
:1012900014D0584201231843F6E70220002EF3D160
:1012A000E3E70220002DEFD1E1E7002DE5D100209A
:1012B000002EE9D0EDE7002DE9D1EAE7A242E8DC13
:1012C00004DBAE42E5D80020AE42DDD258424341B5
:1012D00001205B421843D7E7F0B557464E464546D6
:1012E0004300E0B446028846760A1F0EC40F002F62
:1012F00047D0FF2F25D0002380259A469946F60037
:10130000ED042E437F3F434642465D02D20F5B0011
:101310006D0A1B0E904640D0FF2B39D08022002052
:10132000ED00D20415437F3BFB1842465746591C3B
:1013300062408C4607430F2F5CD86F49BF00C959E4
:101340008F46002E45D108239A46063B9946DAE798
:10135000424602282DD0032800D1C3E0012800D046
:10136000A2E0002500260240D4B27602ED05760AFE
:101370002E43E407264330001CBC90469946A24603
:10138000F0BD002E1AD104239A46033B9946BAE7D2
:101390002A00511E8A41901CC6E70120002DC3D0AF
:1013A000280000F0DBFA431F76309D4043420020C6
:1013B000BAE70124FF2514400026D6E7300000F0EC
:1013C000CDFA431F9E400023763047429A46994605
:1013D00099E70C239A46093B994694E78026002416
:1013E000F603FF25C1E735004846B2E73500220085
:1013F0004846AEE72904090C0800370C3604360CC1
:101400002C0C7943704367437443060C64183619F7
:10141000B14203D980214902884647440004000CA8
:10142000310409188D01681E8541890E2943350C48
:10143000ED19AD010D43290104D5012369081D40B3
:1014400063460D4319007F31002925DD680704D06C
:101450000F202840042800D00435280103D527494F
:1014600080330D401900FE29A3DC0124AD016E0A72
:101470001440CDB279E78020C003064207D0054270
:1014800005D128434602760A4446FF256DE7064308
:101490007602760AFF2568E70124611A1B2905DD1B
:1014A00014400025002660E76346CBE72E0020238A
:1014B000CE40591A8D406B1E9D412E43730704D0B8
:1014C0000F233340042B00D00436730104D50124CC
:1014D00001251440002648E70124B601760A14408D
:1014E000002542E780260124F6032E437602760A81
:1014F0001440FF2539E7C046A0A10008FFFFFFF711
:10150000F8B54A024E0043024400240EC50F9B0961
:10151000360EC90F9209FF2E00D183E00120414011
:10152000A01BA9425CD0002800DC95E0002E1CD155
:10153000002A00D081E05A0704D00F221A40042A62
:1015400000D004335A013BD50134FF2C00D191E087
:1015500001209B015B0AE4B205405B02E4055B0AE3
:10156000ED0723432B431800F8BDFF2CE3D0802167
:10157000C9040A431B2800DD90E016002021C64064
:10158000081A8240511E8A4132439B1A5A0115D5CE
:101590009B019E09300000F0E1F905388640844245
:1015A0006CDC041B330020200134E340041BA64004
:1015B000721E964100243343BDE70D005A07BCD18B
:1015C000DF0801231D40FF2C33D1002F00D190E014
:1015D0008022D20313003B435B025B0AFF24BCE77B
:1015E00000284FDD002E2ED0FF2CA4D08025ED0446
:1015F0002A431B2800DD97E016002025C640281A44
:101600008240501E824132439B185A01D5D5013485
:10161000FF2C6DD001227B481A405B080340134326
:101620000D0088E7002A00D07AE777E7031EC5D1CE
:1016300000257B025B0AE4B28FE701380028A4D0C2
:10164000FF2C97D177E7002A00D174E701380028F2
:10165000DAD0FF2CCDD16EE7002821D1601CC0B2BA
:10166000012858DD80279E1AFF0437402FD0D61A54
:101670000D008FE701231D4000236EE7624B241A03
:10168000334058E7002851D1601CC6B2012E33DD2B
:10169000FF282DD09B185B0804004CE7012274E75B
:1016A000002C1AD0FF2E1FD08024E4044042234394
:1016B0001B2800DD96E01D002024C540201A834031
:1016C000581E83412B43D31A34000D005EE7002ED1
:1016D00000D05FE700250024ABE7002B44D0C043D7
:1016E0000028F0D0FF2EE3D11300FF240D0022E7E5
:1016F0000D00FF24002330E7002C5DD1002B7DD0AE
:10170000002A00D117E79B185A0100D456E73E4A39
:10171000040013400FE7002C1ED1002B2FD1002A0C
:1017200065D013000D0006E701226DE7002C1FD1E4
:10173000002B59D0C04300280BD0FF2E4FD01B28C0
:101740005EDC1D002024C540201A8340581E8341C2
:101750002B439B18340058E7002B1CD1002A49D09A
:1017600013000D00FF24E6E6130034000D00E2E64E
:10177000FF2E34D08024E40440422343DFE7002AD4
:1017800000D1D8E68027981AFF04074000D14DE722
:10179000D31A0D00CFE6FF24002A00D1CBE680202B
:1017A000DB08C003034204D0D208024201D1130077
:1017B0000D00DB00FF24BEE6002B10D0FF24002A22
:1017C00000D1B8E68020DB08C003034203D0D20872
:1017D000024200D11300DB000D00FF24ABE6130032
:1017E000FF24A8E601236EE713003400A3E60027D8
:1017F00000251EE780270025FF03E9E613009AE68F
:101800000123A6E7FFFFFF7DFFFFFFFB4302590A0D
:101810004300C20F1B0E00207E2B0EDD9D2B0DDC26
:10182000802000040143952B0BDC9620C31AD9407D
:101830000B005842002A00D118007047034BD01803
:10184000FBE7963B99400B00F3E7C046FFFFFF7FA5
:1018500070B5002830D0C317C5185D40C40F2800EC
:1018600000F07CF89E231B1A962B0DDC9622D21AD0
:1018700095406A02520AD8B25202C005520AE407E1
:1018800002432243100070BD992B19DC9922D21A11
:101890009540124A2A40690704D00F210D40042DBB
:1018A00000D00432510103D50C4B1A409F231B1A60
:1018B0009201520AD8B2DFE7002400200022DBE7C1
:1018C00005222E00121AB921D6402A00C91A8A40D0
:1018D000551EAA4135001543DBE7C046FFFFFFFB5D
:1018E00070B5041E28D000F039F89E231B1A962BE1
:1018F0000ADC9622D21A94406202520AD8B25202EC
:10190000520AC005104370BD992B18DC9922D21AD7
:101910009440114A2240610704D00F210C40042C4E
:1019200000D00432510103D50B4B1A409F231B1AE0
:101930009201520AD8B2E2E700200022DFE7052236
:101940002500121AB921D5402200C91A8A40541E16
:10195000A2412C001443DCE7FFFFFFFB1C21012305
:101960001B04984201D3000C10391B0A984201D382
:10197000000A08391B09984201D30009043902A260
:10198000105C40187047C0460403020201010101C7
:10199000000000000000000002780B78002A03D04D
:1019A000013001319A42F7D0D01A7047134885466A
:1019B00004200168090E1F22914205D1104801211F
:1019C0000160104800210160002103E00E4B5B58CC
:1019D000435004310D480E4B42189A42F6D30D4A3B
:1019E00002E00023136004320B4B9A42F9D300F05B
:1019F0000FFA07F0A3FE02F029FCFEE700400020EA
:101A0000181002400000014048A300080000002018
:101A10001801002018010020C8150020FEE710B5AD
:101A200001F062FC10BD0000014B18687047C04611
:101A30003401002010B5024BDB68984710BDC0464A
:101A40000800002070B504000D1E0CD007F024FA29
:101A5000054B65191860AC4205D0207805F0F2F905
:101A600001340028F7D170BD3401002010B50448BE
:101A7000044B054A0549043000F035FB10BDC04653
:101A80003401002038000020700000201C000020DD
:101A9000802010B50121000402F020F9002002F09E
:101AA0001BF880200121000502F018F98020800534
:101AB00001F04EFD012001F03FFD012001F030FD5D
:101AC00010BD1F2307B501A803701E3B4370837030
:101AD00001F094FF07BD002070470000F0B500271B
:101AE000094B411888420CD01C68084E621C1A60D1
:101AF0000578355580246400A24200D11F60013072
:101B0000F0E70020F0BDC0460804002014040020C7
:101B100010B5FFF797FF002010BD000010B520287A
:101B200014D0212825D1144B1A780A701A68120A89
:101B30004A701A68120C8A701A68120ECA701A79E2
:101B40000A715A794A719B798B7112E04A780C7844
:101B50008B78120222431B0413431A00CB781B0616
:101B60001343054A13600B7913714B7953718B79C9
:101B70009371002010BDC046000000200020704777
:101B8000122301480B8070473C9800080423024848
:101B90000B8012307047C0463C98000810B5044CCA
:101BA0000A000448210000F08CFC200010BDC04653
:101BB000AD020020E0A1000810B5044C0A00044862
:101BC000210000F07EFC200010BDC046AD020020C8
:101BD00005A2000810B5044C0A000448210000F0DA
:101BE00070FC200010BDC046AD02002019A2000804
:101BF00010B5044C0A000448210000F062FC2000EB
:101C000010BDC046AD02002026A2000810B5044C4D
:101C10000A000448210000F054FC200010BDC0461A
:101C2000AD02002031A20008704700000821054ADB
:101C300013689BB20B431360136804399BB20B43C8
:101C400013607047405C00400421044A13689BB253
:101C50008B431360BF231B0213607047405C00403E
:101C600010B5244C072800D020702078C0B2052879
:101C70003DD8FEF71FFE030B12161F2A6368002BC8
:101C800002D1FFF7E1FF32E0052331E0FFF7DCFF8F
:101C900004232370033B63602BE002236370013352
:101CA00026E06378013BDBB263706378002B20D1C0
:101CB00004331DE01021104A13689BB20B431360DC
:101CC00005232370DB18637013E06378013BDBB2FC
:101CD00063706278D2B2002A0BD1102006490B68DB
:101CE0009BB283430B6006232370626001E00623EE
:101CF000237010BDA0020020405C00407047704778
:101D00007047704770470000F0B50A000025154B7A
:101D10001C88154B002A1CD08D1A465DFF251D40DE
:101D20001B0A1B026E40F518ABB2082501261E40A7
:101D3000B44667465E10B3B2002F02D00B4B5E4034
:101D4000B3B2013DEDB2002DF0D1013AD2B201356E
:101D5000E0E7002D00D01C1C44544118240A4C70AC
:101D6000F0BDC04640A20008FFFF000001A0FFFF39
:101D7000002382B0019001AA9A5CCA540133042B5B
:101D8000F9D102B070470023CA5CC2540133042B5E
:101D9000FAD1704782B06B46DA1D002313701378B6
:101DA000032B03D813780133DBB2F7E702B0704797
:101DB000024B8000C01800687047C046ACF7FF1F98
:101DC00070477047704710B507F04CF810BD000021
:101DD0000023802182B000930C4B49021A688020B6
:101DE0000A43A0211A608002C9011A6802400192C8
:101DF000009A01320092019A002A02D1009A8A4286
:101E0000F3D118688003C00F02B070470010024081
:101E100037B50125374C23682B4323606268364B66
:101E2000134063602268354B134023602268344BB3
:101E3000134023606268334B13400F226360E36AF0
:101E40009343E362226B304B13402363636BAB43DA
:101E500063630023A360FFF7BBFF002813D1A02218
:101E6000022100902368D2011D43256023680B40A6
:101E70000193009B01330093019B002B31D1009B08
:101E80009342F3D12DE0214B1D70012828D111225E
:101E90001F4B1A60636863606368636062681D4B10
:101EA000134084226360636852031343802263609B
:101EB00023685204134380222360920421680D4B4F
:101EC0001142FBD003215A688A435A605A6801398B
:101ED0000A435A600C2263681340082BFBD107E0C9
:101EE000FEE700222068094B8007C00F1A70CCE77C
:101EF00037BDC046001002400CB8FF08FFFFF6FED9
:101F0000FFFFFBFFFFFFC0FFACFEFFFF60050020EF
:101F100000200240FF7FC0FF030010B50400FC3327
:101F20001B6E1B699847E3780020A37010BD10B5A5
:101F30008378C37004238370FC30036EDB6898479A
:101F4000002010BD0300FC33DB6D10B5DB69002BF6
:101F500000D09847002010BD002210B5110040238A
:101F6000040000F029FE802300221900200000F068
:101F700023FE002340221900200000F038FE4022FA
:101F800080210023200000F032FE0123207BA3707B
:101F9000FC34236E5B689847002010BD13B569467A
:101FA000040000F071FA6B4619781F230B40012BD7
:101FB0000DD0002B06D0022B0ED16946200000F078
:101FC00006FA0EE06946200000F0FCF809E06946D8
:101FD000200000F0DDF904E07F232000994300F0A9
:101FE00057FF002016BD0000F8B504000D1E39D1C2
:101FF0004378022B2BD1426B466AB24206D9921B20
:102000004263816A92B200F0A9F835E0876B310033
:102010003800FEF7DFFC0D1E0AD1BE4208D8E36B84
:102020009F4205D20A00200000F098F8E56323E003
:102030002300FC33DB6DDB68002B04D0A278032A7D
:1020400001D120009847200000F0B1F814E0042BE3
:1020500012D10A4E316800290ED0C9B200F072FFC9
:10206000356009E00300FC33DB6D5B69002B03D0B6
:102070008278032A00D198470020F8BDA8020020EA
:1020800010B50400002922D14378032B29D1020086
:10209000B832D369D06883420AD91B1AD361116957
:1020A00082B2984200D99AB2200000F06EF818E08F
:1020B0002300FC33DB6D1B69002B04D0A278032ABC
:1020C00001D120009847200000F067F809E00300E4
:1020D000FC33DB6D9B69002B03D08278032A00D18F
:1020E0009847002010BDF7B50400250017001E001A
:1020F0000191FFF7CDFC019BFC356B66EF652E6609
:10210000FFF792FD200000F02BFD2B6E1B68984717
:10211000200000F04BFF2000FFF7D3FCF7BD10B507
:102120000400FC34E36D1B689847236E9B68984756
:10213000002010BD030010B5FC33DB6D5B689847D1
:10214000002010BD10B5130082634263022242706A
:102150000A00002100F04FFE002010BD10B5130052
:102160000A00002100F047FE002010BD130002000D
:10217000D83210B5043A53601360032242700A004B
:10218000002100F0FAFD002010BD10B513000A0078
:10219000002100F0F2FD002010BD042310B54370B3
:1021A00000231A00190000F026FE002010BD0523B0
:1021B00010B5437000231A00190000F0DEFD002066
:1021C00010BD000073B5040048780D00092800D93F
:1021D000D5E0FEF76FFBACCBD4BCD45E05D49D76C6
:1021E0004B8818120138062800D9C8E0FEF762FBB8
:1021F00004121BC7C7C7C7002300FC335B6E01AEC8
:102200001B68207B31009847EB88402B30D1383B4E
:1022100033802DE02600FC36F36D207B1B6A01A97C
:102220009847B06624E0D8B2052800D9A7E022007C
:10223000E368FC32FEF73EFB03070B0F1317D8B21F
:10224000536E5B6812E0D8B2536E9B680EE0D8B252
:10225000536EDB680AE0D8B2536E1B6906E0D8B251
:10226000536E5B6902E0D8B2536E9B6901A998472F
:1022700001AE3188002900D185E0EA88002A00D12A
:1022800081E00B1C914200D9131C9AB233800100EB
:1022900049E08B88002B72D1CB88002B6FD14D8801
:1022A0007F331D40A378032B69D0384B2571200064
:1022B0001D60FFF772FF0223002D00D10123A370E0
:1022C00061E08978314D2971012958D8A378022B12
:1022D00002D0032B07D052E0002943D00121032371
:1022E0002170A37010E0002906D102232170A37091
:1022F0002000FFF71FFF35E02178012932D02000B0
:10230000FFF718FF297921702000FFF708FF29E067
:10231000CA8800210191012A32D1A378022B14D05E
:10232000032B2DD121002000FFF70CFF2BE0002113
:10233000A3780191023B012B22D801230193A368CA
:102340008B4201D003230193022201A9EBE74B88C2
:10235000012B18D1A3602300FC33DB6D29009B689F
:10236000200098472000FFF718FF0CE0A378023BFD
:10237000012B04D84B88012B05D10023EAE700216B
:10238000200000F085FD002076BDC046A802002098
:1023900070B5837804000E00032B11D10B79012B4B
:1023A0000ED80300FC33DB6D9B689847F38805006B
:1023B000002B0AD1002808D12000FFF7EEFE04E030
:1023C0000021200000F064FD0025280070BD37B515
:1023D00000220D00019204006B788888C1B2012BA5
:1023E00011D0934229D0032B4CD1A378022B2AD0B1
:1023F000032B20D16B88002B12D14B0610D020006C
:1024000000F046FD0CE0A378022B1CD0032B12D168
:102410006B88002B04D14B0602D0200000F06CFD2D
:102420002300FC33DB6D29009B68200098472000C7
:10243000FFF7B3FE26E0110021E0A278022A02D0C5
:10244000032A03D01AE04B0619D11BE02823020609
:1024500009D57F2211404B43E3189B7E002B07D008
:102460000123019304E059436118BA310B78F5E771
:10247000022201A92000FFF765FE03E019002000F9
:1024800000F006FD00203EBD037C0B70437C4B70CA
:10249000C37C827C1B02D3184B80437D027D1B02D0
:1024A000D3188B80C37D827D1B02D3189BB2CB8057
:1024B000C36301234370704710B5002100F0E8FCAE
:1024C00010BD30B50023002818D0C45C5D1C002C62
:1024D00001D02B00F9E7DBB25B00023313800B70F5
:1024E00003234B70013B0578002D07D05A1CCD54B7
:1024F000D2B202330130DBB28C54F4E730BD0000BD
:1025000070B5074C2068FF2807D0064B064A191DF6
:1025100095681A68A847FF232360002070BDC04655
:102520006C000020AC030020080000204323014879
:102530000B8070475298000810B5C02300228121FB
:10254000040000F039FB802300225B008221200080
:1025500000F032FB882300225B000321200000F002
:102560002BFB022340228121200000F040FB0223AC
:1025700040220321200000F03AFB0822822103239D
:10258000200000F034FB064B1B689847054A4023A7
:102590000C320321200000F0F0FB002010BDC046EB
:1025A00008000020AC030020282370B50400594324
:1025B0004118084DD0310968074B0C35280089B205
:1025C0001B6998472A0040230321200000F0D5FB17
:1025D000002070BDAC0300200800002010B50400EE
:1025E000812100F086FB0321200000F082FB822184
:1025F000200000F07EFB024B5B689847002010BD76
:1026000008000020F8B560240B7806000D001C407F
:1026100028D0202C22D1CC884878002C18D05BB24E
:102620002449002B0BDA244B0F1D220039009B6834
:102630009847EA8839003000FFF784FD06E01F4B19
:1026400010C1186022003000FFF790FD00242FE039
:10265000194B22009B682100984729E0FFF72CFFC7
:10266000022425E04B780A2B13D00B2B18D0062B15
:102670001ED14B8812491B12212B07D1EB881A1C43
:102680003A2B00D93A2292B2123105E009313A22AE
:1026900002E0012207494C313000FFF753FD07E00B
:1026A0008B78002B02D1034BDC6401E0FFF704FFC1
:1026B0002000F8BDAC030020080000206C000020C2
:1026C00052980008204A70B5136D1100002B02D0FB
:1026D0000133136536E0136554321278012A31D084
:1026E00080228C6D5200944200D18B658C6DCB6D35
:1026F0009C4203D1002354310B7023E09C4202D949
:10270000121B0A6601E01B1B0B660B6EA2B2402B6C
:1027100005D9403B40340B668C65402309E0E41842
:102720008C6500240C66402B01D09BB201E0012493
:102730004C660C000125683154348A1881212570BB
:1027400000F059FB002070BDAC030020154B70B5A4
:102750001C00543422781900012A20D11A6E002A54
:1027600008D1596E012903D15A668031130014E053
:10277000227014E09B6D9CB2402A05D94033403A48
:102780008B650A66402305E08D6D93B252198A6508
:1027900000220A6668310A19812100F02CFB002012
:1027A00070BDC046AC030020014B18607047C046A6
:1027B000405C0040014B18607047C046445C0040DC
:1027C00007239843014B18607047C046505C004097
:1027D000024B8000C018006880B27047005C004067
:1027E0000B00054A800080180168044A1140194313
:1027F00089B201607047C046005C00408F89FFFFCE
:10280000084B8000C0180268074B13401022114289
:1028100000D053402022114200D05340034A1343BA
:1028200003607047005C0040BF8F000080800000A4
:10283000094B8000C0180268084B134080225201E7
:10284000114200D0534080229201114200D05340E7
:10285000034A134303607047005C00408FBF0000D1
:1028600080800000044B8000C0180268034B1340B6
:10287000034A134303607047005C00400F0E0000E2
:1028800080810000044B8000C0180268034B134095
:10289000034A134303607047005C00400F0F0000C1
:1028A00080C00000044B8000C0180268034B134036
:1028B000034A134303607047005C00400F0F0000A1
:1028C000C0800000064B8000C01803685B0405D57B
:1028D0000268044B1340044A134303607047C04628
:1028E000005C00400F0F000080C00000064B80001D
:1028F000C01803685B0605D50268044B1340044A00
:10290000134303607047C046005C00400F0F000097
:10291000C0800000044BC0001B689BB2C018034B72
:10292000C01801807047C046505C00400260004003
:102930000C4BC0001B689BB218180B4BC0183E29EB
:1029400008D94B09CA0601D1013B9BB2074A9B0239
:10295000134304E04B08CA0700D501339B020380F0
:102960007047C046505C0040066000400080FFFF9A
:1029700030B5094DC0002B68084C9BB2C3181B1919
:102980000124A14319802B68A2439BB2C018044BB9
:10299000C018028030BDC046505C0040006000405E
:1029A00004600040054BC0001B689BB2C018044B7C
:1029B000C0180123994301807047C046505C004015
:1029C0000060004010B5FFF7EDFF10BD054BC000E3
:1029D0001B689BB2C018044BC018012399430180A7
:1029E0007047C046505C00400460004010B5FFF7DF
:1029F000EDFF10BD30B500291FD1204CC00021686B
:102A00001F4B89B20918C9183E2A08D95309D5069F
:102A100001D1013B9BB21B4D9B022B4304E05308A9
:102A2000D50700D501339B020B8023689BB2181891
:102A3000154BC0183E2A11D819E001291DD10F49A4
:102A4000C0000B680E4C9BB2C3181B191A800B6890
:102A50009BB2C0180C4BC01802800EE05309D2067E
:102A600001D1013B9BB2074A9B02134304E0530888
:102A7000D20700D501339B02038030BD505C00407B
:102A8000026000400080FFFF06600040054BC00070
:102A90001B689BB2C018044BC01800888005800DCD
:102AA0007047C046505C00400260004010B5FFF720
:102AB000EDFF10BD054BC0001B689BB2C018044B56
:102AC000C01800888005800D7047C046505C0040EB
:102AD0000660004010B5FFF7EDFF10BD002907D1DB
:102AE000094B8000C0180268084B1340084A08E0F0
:102AF000012908D1044B8000C0180268034B134021
:102B0000044A134303607047005C00400F0F00004D
:102B1000C080000080C0000010B5084B0132091AC7
:102B20005210C918002A07D0437804781B022343A7
:102B30004352013A0230F5E710BDC0460060004044
:102B4000064B0132091A5210C918002A04D0435A00
:102B5000013A03800230F8E77047C0460060004049
:102B600010B50300002401201C7198709C60D8608F
:102B7000FFF71AFE2000FFF717FE2000FFF71AFEEE
:102B80002000FFF71DFEBF20024B00021860FFF778
:102B90000BFE10BD5805002010B501230024044A87
:102BA000044913600C6003211160837010BDC0469E
:102BB000405C0040445C004070B57F2528240E0630
:102BC00005D529404C4321001831441803E00D403D
:102BD0006C43B8340419002A02D1A272A38004E025
:102BE0000122E3801B0CA2722381002070BDB0B5CE
:102BF0007F25282480270D4065430F402C00002F9F
:102C000005D01834451904190120687604E04519E7
:102C1000B834B93504192F70E2607F220A40E3709E
:102C2000227002D16262E26122620021216161614F
:102C3000A161A170032B10D81800FDF73BFE02091B
:102C400005078021890005E0002103E0C02100E0A4
:102C50008021C9001000FFF7C3FDA37A2078002B64
:102C600018D16378A188002B07D0FFF7ABFE20783E
:102C7000FFF73CFE2078202126E0FFF7B7FEA18970
:102C80002078FFF755FE2078FFF71CFEC021207842
:102C900089012AE0FFF7E6FD20782289E188FFF725
:102CA00067FE65782078002D11D1FFF70BFE2078A4
:102CB000FFF71CFE2078FFF7F5FDC0212078890181
:102CC000FFF7B6FD29002078FFF79AFD0FE0FFF728
:102CD000F9FD2078FFF70AFE2078FFF7D3FD207872
:102CE0000021FFF78DFD00212078FFF7A1FD0020D6
:102CF000B0BD4AB270B52823002A05DA7F242140EE
:102D00004B431833C41802E04B43B833C418A67AB7
:102D100065782078002E0BD1002D04D0FFF7E6FD5A
:102D20002078310014E0FFF7CDFD2078290020E065
:102D3000002D10D1FFF7C6FD2078FFF7D7FD2078D2
:102D4000FFF7B0FD20782900FFF772FD29002078F9
:102D5000FFF756FD0FE0FFF7B5FD2078FFF7C6FD42
:102D60002078FFF78FFD20780021FFF749FD002133
:102D70002078FFF75DFD002070BD73B505007F2052
:102D800001405738484328180C000100C8310A6038
:102D900002000026CC321360C4308E6001680196B8
:102DA0008B4204D9019101995B1A136001E00193F0
:102DB000166028236343EB181A001800C2321278F9
:102DC000B830002A05D10199007889B2FFF7B0FD2B
:102DD00006E0019AB93392B219780078FFF70AFE3B
:102DE00028214C43C0212D19B83528788901FFF7D7
:102DF0001FFD002076BDF7B57F240700002021408D
:102E0000573C4C433C19A262626A01900E00217645
:102E1000E3622063934204D90192019A9B1AE36210
:102E200001E00193E062282575437D19EB1C019AAE
:102E3000DB7F92B2002B09D1A98BA06AFFF76CFE51
:102E40000199287E89B2FFF765FD17E0287E697E2B
:102E5000FFF7D0FD287EFFF7BBFC430601D5298C88
:102E600000E0E98B019AA06A92B2FFF755FE282391
:102E70007343FB18597E187EFFF730FE28214E431E
:102E8000BF19387E0831FFF7BBFC0020FEBD0000F3
:102E90004AB210B52823002A04DA7F2211404B439E
:102EA000183301E04B43B833C118087800280BD120
:102EB0000D4A0E4B106803400D4843400D48034334
:102EC000136001238B700CE001234A788B70002A79
:102ED00003D01021FFF794FC03E080214901FFF7A4
:102EE000A7FC002010BDC046005C0040BFBF000032
:102EF00010100000808000004AB270B52823002A1C
:102F000005DA7F2421404B431833C41802E04B43B9
:102F1000B833C41865782078002D08D0FFF7E6FC98
:102F200020783021FFF76CFC0023A37007E0FFF747
:102F3000C9FCC02120788901FFF77AFCA570002028
:102F400070BD000010B501710E480F4B02680F4CA8
:102F50001A40224302600E480E4C02681A40224377
:102F600002600D480D4C02681A40224302600C4A70
:102F7000106803400B4803431360802319430A4B36
:102F8000196010BD005C00400F0F00008080000041
:102F9000045C004081800000085C004082800000EA
:102FA0000C5C0040838000004C5C00408021044A9F
:102FB000090213680B431360012383707047C046F6
:102FC000585C0040034A044B11680B401360002317
:102FD00083707047585C0040FF7FFFFF0023F0B50F
:102FE00085B002AAD380B44B1A6803AB91B21980A2
:102FF000120400D45DE10F211A881140009100D025
:1030000082E01C881023AD4D1C4011D12A68AC4BC6
:1030100013402B60AB4D287EFFF748FDAB6A286359
:103020001818A94BA8621B6821005B6828003AE1C8
:103030002B6802AA9BB2D380D3881B0519D5A14C5B
:103040002300B8331878FFF745FD2300D03318600C
:103050002300BC33020019889C48FFF771FD2A68E1
:103060009B4B200013402B60974B1B689B68984735
:10307000B9E702ABDB881BB2002BB4DA2A68944BA9
:10308000904C13402B602300B83318782700FFF7CB
:1030900021FDD037021E38600BD023002600BC3340
:1030A000C83619883068FFF74BFD32683B68D31883
:1030B0003360854B00211B6820001B689847854BB7
:1030C000C4341A682168844B92B2D2183E2909D9B7
:1030D0004B099BB2C90601D1013B9BB27F499B02C0
:1030E0000B4306E04B089BB2C90701D501339BB2E5
:1030F0009B0213802A687A4B1340C02292015340EE
:10310000784A13432B606EE7009B02AA9F006B4B2B
:10311000FF183B689BB2D380D3881BB2002B68DAC0
:1031200028243A686A4B674E13403B60009B5C431F
:10313000341923002500C2331B78B8352878002BBA
:103140000CD1FFF7C7FC051E2AD02300C834BC33BE
:10315000020019882068FFF7F3FC21E0FFF738FB35
:10316000030028785B0406D5FFF790FC051E0ED0FF
:103170002300BE3305E0FFF79DFC051E07D02300AA
:10318000C033C83419882A002068FFF7D9FC2823E7
:10319000009A00215343F318B8331878FFF79EFCC8
:1031A0002821009B594371180A00D03213685B191B
:1031B00013600B00C8331A6852191A6004331B6875
:1031C000002B04D00800C430006885420BD22823AD
:1031D000009A30005343F318B83319783A4B1B6800
:1031E0001B68984705E0B8319BB209783000FFF7BB
:1031F000C4FD802202ABDB88134200D1F3E63A68BB
:103200002F4B009C13403B6028277C432D4D009A98
:103210002C19E31CDB7F01322E000192207E002B53
:103220000BD1FFF743FC021E206326D0019BA18B2C
:103230005F43E859FFF770FC1FE0FFF7C9FA03008E
:10324000207E5B0606D5FFF721FC021E20630CD012
:10325000E18B05E0FFF72EFC021E206305D0218CD8
:10326000019B5F43E859FFF757FC2823009A01218F
:103270005343F318187EFFF731FC2824009F67435F
:10328000F719387EFFF712FC019B38635C432B591A
:103290001A182A5134196368397E002B05D1300081
:1032A000094B1B685B6898479DE63000FFF7A3FD5C
:1032B00099E605B0F0BDC046445C0040005C0040AB
:1032C0000F8F0000380100204C0000204801002032
:1032D0008F0F0000505C0040066000400080FFFF40
:1032E0008FBF000080800000F7B56B469D1D002356
:1032F0002C4C2B8023682C4E9BB22B808023316872
:103300001B022A880B401A4201D0FFF767FE2B8868
:10331000326813405B050BD5244B254F2360254BAA
:1033200038001B681B69984700213800FFF70AFE28
:103330002A8831680A40930401D51F4B23602B88EB
:103340000B40DB0409D51D4B19482360194B1B6842
:103350009B6998470020FEF783FC2B883268134056
:103360001B0508D5164B12482360124B1B685B697E
:103370009847FEF75BFC2B88326813409B0506D507
:10338000104B0B4823600B4B1B68DB6898472B885E
:1033900032681340DB0504D50B4B07202360FEF792
:1033A0005FFCF7BD445C004058050020FFFB0000B7
:1033B000380100204C000020FFDF0000FFEF00007C
:1033C000FFF70000FFFD0000FFFE0000074B10B5F7
:1033D000984209D180200121800000F08BFC8020E0
:1033E0000021800000F086FC10BDC0460024014092
:1033F00030B58A680D68C3681543CA68064C154322
:103400000A69234015434A6915432A001A430B7978
:103410005B031343C36030BD03D2FFFF002303608F
:1034200003718360C3600361436170478368012255
:10343000002900D102221343836070470161704765
:10344000064B002804D080211A68C9030A4302E011
:103450001968034A0A401A607047C04608270140AD
:10346000FFFFBFFF836A194381624261704700001A
:10347000002904D08022C3689201134302E0C2688D
:10348000014B1340C3607047FFDFFFFF002904D0EA
:103490008022C3685202134302E0C268014B13400A
:1034A000C3607047FFFFFEFF8021826809060A4360
:1034B000F0210300826009029A680139D20FD20715
:1034C000002901D0002AF7D100209A68824200DB4F
:1034D000186C70471022836813438360704704227E
:1034E0008368134383607047006C80B27047012289
:1034F000C368002901D0134300E09343C3607047C1
:10350000CB0103D58068044B184000E000680840F8
:10351000411E8841C0B27047FFFFFFFE0160704747
:10352000044B20211A68002801D00A4300E08A4396
:103530001A607047006C0040044B40211A68002854
:1035400001D00A4300E08A431A607047006C0040D3
:10355000044B054A59680A405A605A68104358603B
:103560007047C046006C0040FFFFFFCF02682C4B45
:10357000134003600023036043608360C360294BF2
:10358000984201D1284A27E0284B984201D1264A87
:1035900029E0274B984201D1234A2BE0254B984242
:1035A00001D1214A2EE0244B984201D11E4A31E03C
:1035B000224B984204D1F0211B4A090453682CE0A5
:1035C0001F4B984204D1F021174A0905536824E0A3
:1035D0001C4B984203D11C4A53680F211DE01B4B22
:1035E000984203D1184A5368F02116E0184B9842CC
:1035F00004D1154AF021536809010EE0154B984299
:1036000004D1114AF0215368090206E0124B984296
:1036100005D10D4AF021536809030B4353607047ED
:10362000FEFF000008000240000002401C000240B3
:103630003000024044000240580002406C0002404A
:103640008000024008040240000402401C040240C2
:1036500030040240440402405804024002680D4B0A
:1036600010B51A400C6A8B6823430C6923434C69DC
:1036700023438C692343CC6923434C6A23438C6ADC
:10368000234313430360CB6843600B6883604B683C
:10369000C36010BD0F80FFFF002903D00122036823
:1036A000134302E00268024B134003607047C046B8
:1036B000FEFF0000C30001D5044B00E0044B1B6873
:1036C0000340581E8341D8B27047C04600040240F0
:1036D00000000240C30001D5024B00E0024B5860DD
:1036E0007047C0460004024000000240837910B5D4
:1036F0000168002B24D0CA43154B1C6814401C6081
:103700005C6822405A600279D21814682143116023
:1037100001689C68CA4314409C60DC682240DA60FF
:103720004279102A06D19A680A439A60DA681143EE
:10373000D9600BE0064BD3181A681143196005E0F5
:103740000379034A9B181A688A431A6010BDC04661
:1037500000040140034B5B691840431E9841C0B20E
:103760007047C04600040140014B58617047C04695
:1037700000040140044B1A69120603D5034A5A603B
:10378000034A5A607047C046002002402301674543
:10379000AB89EFCD8021024A13690B431361704757
:1037A00000200240014BD8607047C0460020024014
:1037B0000120074BDA68024209D1DA680018D20604
:1037C00005D4D86804231840421E9041181A704747
:1037D0000020024010B50400FFF7EAFF012805D1E0
:1037E000002C05D0FFF7E4FF013CF7E7002C00D1E7
:1037F000052010BD70B50600B0200003FFF7EAFFFA
:10380000042810D102254022B020074C0003236970
:103810002B4323616661236913432361FFF7DAFFBA
:103820002369AB43236170BD00200240F7B5060059
:10383000B020002300030D000193FFF7CBFF042805
:1038400018D10127B0200C4C000323693B432361AE
:10385000ABB23380FFF7BEFF042808D1B020023698
:103860000196019B2D0C1D800003FFF7B3FF236918
:10387000BB432361FEBDC04600200240F7B50B6884
:103880000193002301249C40019A224094422CD1B0
:103890000A79551E012D15D85E00B44603266746E9
:1038A000BE408568B54385604E798568BE402E432D
:1038B00086608588A54385808C7985889C402C43CB
:1038C000A4B2848003245D00AC40E443AA400668AF
:1038D00026400660066832430260C2681440C46035
:1038E000CA79C468AA402243C2600133102BC9D1EF
:1038F000F7BD038A19400800411E8841C0B27047D5
:103900008161704701857047072310B50F240B4074
:103910009B009C409A40C91089004018016AA1434D
:103920000162016A0A43026210BD000030B5012441
:1039300003688A68A343036003681502114A1340B1
:103940004A682B43134303600F4A0B681A40026115
:1039500003680A692343036000238360C3608B69A3
:1039600013438022836083681202134383600368D9
:10397000CA68134303604268044B13404A69134307
:10398000436030BDFFE0CF00FFFFFFF0FF7FFF0788
:10399000802200231202036043608360C3600361DE
:1039A00042618361704701220368002901D01343FB
:1039B00000E0934303607047014B18607047C046B6
:1039C00000300040014B58607047C0460030004056
:1039D000014B98607047C04600300040014A024BDE
:1039E0001A607047AAAA000000300040014A024B4A
:1039F0001A607047CCCC000000300040837870B56E
:103A00000178002B1BD08B10104A03269B009B18BB
:103A1000FF223140B1401600C0248E40A4001D5941
:103A2000B5434678B60132408A402A431A511F23D3
:103A300002781A401E3B9340044A136005E01F239E
:103A400019401E3B8B40024AD36770BD00E100E085
:103A500004E100E0064B002804D080211A684900E8
:103A60000A4302E01968034A0A401A607047C046D8
:103A700000700040FFFEFFFF044B5A68002902D08F
:103A80001043586001E082435A6070470070004064
:103A90000221054A13680B431360044A491813694D
:103AA0000B43136130BF70470070004000ED00E031
:103AB000024A80001368184310607047007000408D
:103AC000044B01215A6A002801D00A4300E08A43CE
:103AD0005A627047001002408021044B1A6B8A43DF
:103AE0001A631A6B104318637047C04600100240F7
:103AF000F8B50C23594D040068681840FCF7DAFE4D
:103B00001F1F1F1F1F1F1F1F071F1F1F1D000F210C
:103B1000C02368686A68800C08405B02861C1A42F1
:103B200001D14F4806E04D4B4E48DB6A1940013148
:103B3000FCF7CAFE7043206004E04B4B00E0494BA9
:103B40000020236021686B680A00484E1B061B0F8B
:103B5000F35CDA40130062606A685205520FB25C8F
:103B6000D340A3602A6BD20501D4414A06E03B4A08
:103B70005268520401D45A0800E09A08E2602A6BA5
:103B8000520601D43B4A01E08022120222612A6BD4
:103B9000D20602D4334A626100E0616103222F6BD6
:103BA0002E4E174201D1A36112E0376B1740012F4F
:103BB00001D1A1610CE0376B1740022F02D18022A6
:103BC000120204E0366B3240032A01D1254AA26179
:103BD000C0222F6B9202174201D1E36119E01F4E00
:103BE000376B802617407602B74201D1E16110E0C1
:103BF0001A4E376B80261740B602B74202D1802298
:103C0000120205E0154E366B1640964201D1154A58
:103C1000E261C0222F6B1203104E174215D080278D
:103C2000336BFF021340BB4201D121620EE08021C1
:103C3000336B090313408B4202D180231B0204E043
:103C4000336B1340934201D1064B23622B6B1B064F
:103C500002D4054B636200E06062F8BD00100240D0
:103C600000093D0000127A00006CDC029400002084
:103C7000809FD50012800000024B1A6A1043186220
:103C80007047C04600100240064B002804D0802137
:103C90001A6A09020A4302E0196A034A0A401A62D0
:103CA0007047C04600100240FF7FFFFF044B5A6977
:103CB000002902D01043586101E082435A617047E5
:103CC00000100240044B9A69002902D01043986109
:103CD00001E082439A61704700100240044BDA69A8
:103CE000002902D01043D86101E08243DA617047B5
:103CF00000100240044BDA68002902D01043D8605B
:103D000001E08243DA60704700100240044B1A69F8
:103D1000002902D01043186101E082431A61704704
:103D2000001002404211094B01D11B6808E0012A32
:103D300001D11B6A04E0022A01D15B6A00E05B6BDF
:103D40001F221040C340012018407047001002405D
:103D50000023202213B501930E4B012099681142D4
:103D600017D1CA218024596277395962D9689F30A6
:103D70008143D9602402D8680199013101910199E8
:103D8000A14201D01042F6D0FF22D8685A628006C4
:103D9000C00F16BD00280040CA220721064B5A62F8
:103DA000773A5A629A688A439A609A681043FF2267
:103DB00098605A627047C04600280040CA22044BEF
:103DC0005A62773A5A62AC3258615A627047C046BA
:103DD000002800400023CA2213B50193114B5A62F8
:103DE000773A5A62002806D080219A68C9000A43AF
:103DF0009A60012012E099680B4A80240A4004214D
:103E00009A60E401D868019A01320192019AA242B3
:103E100001D00842F6D0D8684007C00FFF225A628E
:103E200016BDC04600280040FFFBFFFF002382B004
:103E30000193054B80000193019BC0180190019BE9
:103E4000196002B07047C04650280040002382B07D
:103E50000193054B80000193019BC0180190019BC9
:103E6000186802B07047C04650280040CA220F4B65
:103E700010B55A62773A5A624F3A002908D00400C6
:103E80009968944321439960196C02400A4308E001
:103E9000040099689443A1439960196C02409143CE
:103EA0000A001A64FF225A6210BDC0460028004072
:103EB0000C4930B50D6C8A68CC680100830CD94080
:103EC0000423C90B2B4002400B40134300229342B2
:103ED00005D0A3B200091840431E9841C2B2100099
:103EE00030BDC04600280040000980B28022030097
:103EF0001343D843034910B5CC6822401043C8602F
:103F000010BDC046002800400E4B10B598420AD1A3
:103F1000802001214001FFF7EDFE802000214001BB
:103F2000FFF7E8FE0CE0084B984209D18020012100
:103F3000C001FFF7EBFE80200021C001FFF7E6FE85
:103F400010BDC0460030014000380040C12310B50C
:103F500004889B010A881C40CB891343CA881343F9
:103F60000A8913434A8913438A89134323430380ED
:103F70008288094B13408A881343042283800B8A6A
:103F80000382038893434A8813430380828B034B45
:103F90001340838310BDC046FFF0FFFFFFF7FFFF14
:103FA00040220388002901D0134300E0934303809B
:103FB000704700008288034B134083808388194335
:103FC00081807047FFEFFFFF8388002A02D01943EA
:103FD000818001E08B43838070470000032310B58C
:103FE0000F240B409B009C409840054A8910890093
:103FF00089188A68A2438A608A681043886010BD65
:104000000000014030B50388154C9BB2A04206D099
:104010008022D205904202D0124A904203D17022EF
:1040200093434A881343104A904203D00F4A0D89A4
:1040300013402B4303804B68C3620B880385A04267
:1040400008D00B4B984205D00A4B984202D00A4B3D
:10405000984201D18B7A03860123838230BDC0460A
:10406000002C01400004004000100040FFFCFFFF56
:1040700000400140004401400048014001235B42F0
:104080004360002303800381438083727047416251
:104090007047C162704701220388002901D0134391
:1040A00000E09343038070470122F0B50D000368E0
:1040B0008BB0934303604268224B040013408A682C
:1040C000134343600268204B1A404B68C9680B4396
:1040D00029690B431343036082681C4B13406A69D0
:1040E000134383606846FFF703FD194B069E9C420D
:1040F00008D0184B079E9C4204D0174B089E9C4248
:1041000000D0029E23682F681B0400D5760039007A
:104110003000FCF7D9FB390005003000FCF75AFCF1
:1041200000237F08B9425B41ED1823681B0404D5C6
:104130000A4B2A07520F1D401543ADB2A5810BB0A3
:10414000F0BDC046FFCFFFFFF3E9FFFFFFFCFFFF1D
:10415000003801400044004000480040F0FF0000EB
:1041600001220368002901D0134300E09343036058
:1041700070470000002904D0802203681202134314
:1041800002E00268014B134003607047FF7FFFFFAE
:10419000C905C90D01857047808CC005C00D7047E9
:1041A000FF2310B50C121C401940FE3B8B40022C23
:1041B00001D1043002E0032C00D10830002A02D0E3
:1041C0000268134302E002689A431300036010BDC3
:1041D00073B50222002401AB1C705A709C700199C7
:1041E000124804F0C1FC092590200421C005FFF706
:1041F00080FB012801D10134E4B26426013EF6B20D
:10420000FDF7C8FD002EF9D1013DEDB2002DEBD137
:10421000074A084B042C04D90749116001221A707F
:1042200002E006491D70116073BDC04698980008F1
:1042300064050020A40000208005002070050020F7
:1042400010B50121002005F075F810BDF8B504F097
:10425000D5FE402004F04CFD0320FFF7F7FD524B44
:10426000524918600320FFF7E1FDFFF7B1FF05F0A9
:104270000BF904F08BFE04F013FC03F053FB05F084
:1042800097F8002005F03CF805F010F804F08EFED9
:10429000FFF7D6FF05F03CF905F0C6F805F00BF97D
:1042A00002F000F9FFF7CCFF04F0D0F8404C207981
:1042B00004F052FCFFF7C4FF04F0A4FDFFF7C0FFB9
:1042C00000F010F9FFF7BCFFFFF7BAFF394D217975
:1042D00028682E0003689B6C9847FFF7B1FF286899
:1042E00003685B6C9847FFF7ABFF04F0F5F904F047
:1042F00069FA002005F018F8012005F015F82E499C
:104300000320FFF793FDFDF7B1FB04F0C5FDFA2391
:104310009B00C41803F0CAF902F0D6FB02F040F883
:1043200002F0D2FB254D280003F0EDFF02F0CCFB9C
:1043300004F0CEFC002820D004F05CFE04F0E2F88B
:1043400004F02EFB04F012FB071E16D13068036840
:104350001B69984703F0FCFA04F01EFF05F0ACF867
:1043600004F0F8FF03F078FB154B20219B78032B1A
:1043700000D04021380005F011F804F023FD02F0D0
:10438000A3FB04F0E7F9002802D0280003F0F9FCB1
:1043900002F09AFB04F080FD8442BBD204F07CFD65
:1043A000FA239B00C418B5E75C05002091A0B3492F
:1043B0004812002064050020505000002C100020FE
:1043C00038010020002070470800704770B504795C
:1043D0000D00631E9C41036801345B6D98470138F2
:1043E000C0B2022803D8084B8000C15801E09621D2
:1043F000090208356C43054808346043FCF764FA49
:104400002330FF3070BDC046A898000800127A0023
:104410000079704713B500236A46402413719071E8
:104420000C33684653710094FFF760F92000FFF7E2
:104430009BF913BD10B501F079FF002819D1403068
:10444000FFF788F9002811D001F0A4FF041E01D164
:1044500001F048FF02F046FA002C07D14020FFF798
:1044600083F901F089FF01F061FF02E00148FFF7E5
:104470007BF910BDF0FF0000902010B54021C00571
:10448000FFF737FA013843425841C0B210BD9020BF
:1044900010B54021C005FFF72CFA0138431E9841A2
:1044A000C0B210BD014B18787047C04668050020A7
:1044B000014B18707047C04668050020034B10B5CB
:1044C000186803685B6D984710BDC04664050020FE
:1044D0000138C3B20020042B01D8014AD05C7047D8
:1044E00058990008802070B588B001AC0121C00344
:1044F000FFF7F4FB2000FFF74BFA8023184D5B0118
:10450000210028006360FFF711FA28000121FFF75E
:104510004AFA00266B46012512481E705D709E7097
:104520000099083004F020FB29002800FFF7CAFB9F
:1045300006213000FFF752FD3000FFF76BFF072325
:10454000200023706670A570FFF758FA064B1868B4
:1045500003685B6898472800FFF75CFF08B070BDF0
:1045600000580040589900086405002010B5036801
:104570003B215B69984710BD10B5092902D1054B55
:10458000187906E02F2900D10F31036889B25B69E1
:10459000984710BD48120020034B1878702318402C
:1045A00043425841C0B270476C050020002070475C
:1045B000014B187B7047C04648120020014B587DC4
:1045C0007047C04648120020014B59757047C046DD
:1045D0004812002070B51D000E4B040058791A7364
:1045E0005971884201D003F0E3FE236820001B6D5F
:1045F0009847002D01D003F0FFFE23680021200022
:104600001B68984723689D6CFFF74CFF0100200052
:10461000A84770BD48120020F0B500252A4E2B4B4C
:1046200087B0070030005D7004F010FB802128483F
:104630004901FFF765F93000103004F0FCFA300052
:10464000203004F0F8FA0223300001AC637001332B
:10465000A37025700199303004F086FA3000A570FF
:104660000199403004F080FA80201A4E0121C001E7
:10467000FFF734FB3000FFF747FC82235B006380C9
:10468000E023DB00A38080239B006381F13BFF3BA1
:10469000A3812100093B300023822580E58025810C
:1046A000E581FFF753FC802130004901FFF782FCD0
:1046B00030000121FFF774FC3B6801211B683800C2
:1046C000984707B0F0BDC046709900086C050020FF
:1046D000000400480038004010B5094B094C1A8905
:1046E00010420AD1013CA4B2002CF8D18021064826
:1046F0004901FFF705F9200000E0012010BDC04688
:1047000000380040EA0300000004004870B50C00C7
:10471000E4B204F0D1F92F2C01D940231C438021AD
:1047200016484901FFF7EEF80220FFF7D5FF0028F1
:1047300001D100241EE08023114D1C432C70012068
:10474000FFF7CAFF0028F4D02A780E4B02201A7017
:10475000FFF7C2FF0028ECD0002301202B70FFF7E9
:10476000BBFF0028E5D080212C7849010348E4B242
:10477000FFF7C6F804F0B6F9200070BD0004004849
:104780000C3800406C050020F7B50F0080210400B4
:1047900049011E481500FFF7B5F80220FFF79CFFFE
:1047A000002801D100262EE040232343184C01208D
:1047B0002370FFF791FF061EF4D02278154B3900C5
:1047C0001A70012294467819134F0193814215D033
:1047D0000A78124D227063463A891A4209D1013D86
:1047E000ADB2002DF7D1802108484901FFF788F8C4
:1047F000D8E72278019B01311A70E7E7802103484E
:104800004901FFF77DF83000FEBDC04600040048B6
:104810000C3800406C05002000380040EA0300001E
:1048200007B500226B46D0540132082AFAD16946F6
:104830003E20FFF7A9FF07BD10B50E20012901D0CA
:10484000024B987DFFF7ECFF10BDC04648120020D8
:1048500010B53F20FFF798FF10BD000070B50D00A8
:104860008021060049011448FFF74CF80220FFF7A9
:1048700033FF002801D100251BE0104C01202670D9
:10488000FFF72AFF0028F6D023780D4E0220337060
:10489000FFF722FF0028EED025700120FFF71CFF54
:1048A000051EE8D080212378490103483370FFF7C3
:1048B00027F8280070BDC046000400480C380040AE
:1048C0006C05002010B5C9B20C20FFF7C7FF10BD62
:1048D000036810B59B6D0400984701000A20FFF79C
:1048E000BDFF236820005B6C984710BD70B50500C4
:1048F0000400C8352078FF2805D061780234FFF71E
:10490000ADFFAC42F6D170BD10B50C000920FFF729
:10491000A5FF2000FFF7CCFD10BD0000F8B50E008C
:10492000150004F0C9F8802118484901FEF7EAFF94
:104930000220FFF7D1FE002825D0FF23144C0120D0
:104940002370FFF7C9FE230000281CD02178114AEC
:10495000002411707219310001260F4D914208D0C8
:104960000E481C702F89374209D1013880B20028C7
:10497000F8D1802105484901FEF7C2FF03E018780D
:1049800008700131EAE704F0ADF8F8BD0004004812
:104990000C3800406C05002000380040EA0300009D
:1049A00010B5084A5378002B0BD0013BDBB2537093
:1049B000002B06D1044B197903689B6C984703F0D0
:1049C0001BFD10BD6C0500204812002010B50379B6
:1049D0000C008B4211D0036801715B691321984769
:1049E000002C04D0802149420143C9B202E07F2358
:1049F000010019401320FFF731FF10BD10B5094B1E
:104A000004005A79052A00D9002214235A43064B80
:104A10000A205033D15CFFF721FF236820005B6C34
:104A2000984710BD4812002070990008234B244A73
:104A30009A601A7B012A0FD0002A19D0032A17D8AE
:104A40000E225A732D329A733832DA735D3A9A74A1
:104A5000103A1A753F3216E05B225A739D329A73F0
:104A6000E53ADA730B3A9A743F321A75023A0AE061
:104A7000CA225A73473A9A73703ADA730D3A9A74A3
:104A80002F321A7510325979DA75052900D90021AB
:104A900014224A430B498A18526D110A1A76120CD5
:104AA0009A7620221A74D03259765A74C021002284
:104AB0009975DA74DA761A777047C0464812002082
:104AC00065639B0470990008802170B5490104005A
:104AD0000D48FEF717FF0220FFF7FEFD002801D169
:104AE00000240EE0094D01202C70FFF7F5FD041E97
:104AF000F6D080212A78064B490103481A70FEF748
:104B0000FFFE200070BDC046000400480C38004085
:104B10006C05002010B503F0CFFF3620FFF7D4FF5F
:104B20003A20FFF7D1FF3420FFF7CEFF03F0DAFF82
:104B300010BD10B53620FFF7C7FF10BD10B53520EA
:104B4000FFF7C2FF10BD10B53B20FFF7BDFF10BD42
:104B500010B53620FFF7B8FF3920FFF7B5FF10BDBD
:104B600010B504003620FFF7AFFF3320FFF7ACFF8E
:104B70000A2004F0DDF9236820001B6C984710BD63
:104B8000F0B516008DB005000C001A00022E3CD0C6
:104B9000354B1868354B59790368DF680023B847EF
:104BA0002000FCF79DFE3249FCF796FBFCF73CF831
:104BB000002104000C20FFF751FE00210A20FFF71E
:104BC0004DFE002E13D131001520FFF747FE852141
:104BD0001020FFF743FEFF211120FFF73FFE1021B9
:104BE0001220FFF73BFE08211820FFF737FEE1B245
:104BF0000F20FFF733FE210AC9B20E20240CFFF765
:104C00002DFEE1B20D20FFF729FE2B6828005B6C1A
:104C10009847142004F08CF90023552269465A5411
:104C20000133302BFAD1302269463F20FFF7ACFD2B
:104C30003620FFF749FF3520FFF746FFFFF727FC37
:104C40000028FBD1FFF718FC0028FBD13B30FFF711
:104C50003BFF2B6828001B6C9847142004F068F970
:104C6000FEF7BCFEDFE7C0466405002048120020C6
:104C7000C3512140F7B515008A18009254784A5D57
:104C800006000F00FF200F2A00D909E11000FBF7F2
:104C900011FE081830424854667895AFB6BFC6CDAD
:104CA000DDED002C00D1F9E07E4A1179A14200D15E
:104CB000F4E0002B00D0F1E0147110227A4B5A700E
:104CC000ECE0336810215B69300098470F2398436C
:104CD0001C400443E4B221001020FFF7BFFD714ED9
:104CE000009B74739C7811202100FFF7B7FDB4730B
:104CF0007CE0336812215B693000984770232401FF
:104D000098431C400443E4B221001220FFF7A6FDA3
:104D1000644BDC73C2E02000FFF782FD614B9C75A1
:104D2000BCE0336830005B69122198477F2318404C
:104D300006000133002C0AD10AE0336830005B69B9
:104D40001221984708239843C6B2002C00D01E4376
:104D500031001220FFF782FD524BDE739EE0336874
:104D600030005B690821984740239843C6B2002C65
:104D700000D01E4331000820FFF770FD494BDE755F
:104D80008CE0AB1CCB1800931B780F200193EB1C1D
:104D9000CE1837782100FFF761FD01990E20FFF74B
:104DA0005DFD39000D20FFF759FD3E4B009A1C7642
:104DB000127804355A7632789A7670E03368132187
:104DC0005B6930009847032398431C400443E4B2D6
:104DD00021001320FFF742FD324EAB1CFF18347444
:104DE00039781420FFF73AFD3B787374033556E0A9
:104DF00021000A20FFF732FD2A4B5C754EE01F2090
:104E0000044021001438FFF729FD264B9C7445E02F
:104E100021000C20FFF722FD224BDC743EE0210034
:104E20001520FFF71BFD1F4B1C7537E03368102161
:104E30005B69300098470F239C4303401C432100CB
:104E40001020FFF70BFD174B5C7327E03368172129
:104E50005B69300098470F239C4303401C432100AB
:104E60001720FFF7FBFC0F4BDC7617E027007B1EBB
:104E70009F41336813215B693000FFB29847002CD3
:104E800004D0802149420143C9B202E07F230100DE
:104E900019401320FFF7E2FC024B1F770235E8B2FE
:104EA000FEBDC046481200206C050020F8B5170072
:104EB00004000D001E000022BA4209D2330029006E
:104EC0002000FFF7D7FE021EFF2AF5D1002002E0E6
:104ED00003F092FA0120F8BD036870B504005B6925
:104EE0000F219847236805005B690E212000984731
:104EF000236806005B690D212000984736020304F1
:104F000030001843284370BD10B50C000F20C9B203
:104F1000FFF7A4FC210AC9B2240C0E20FFF79EFC67
:104F2000E1B20D20FFF79AFC10BD10B50C00262051
:104F3000C9B2FFF793FC210AC9B22520FFF78EFC06
:104F4000210CC9B22420FFF789FC210E2320FFF792
:104F500085FC10BDF8B50500002939D080215A48DC
:104F60004901FEF7CDFCFCF715FF802156484901A9
:104F7000FEF7C8FCFCF70EFF802153484901FEF7FD
:104F8000BFFC2924013CE4B2FCF704FF002CF9D15A
:104F900080214D484901FEF7B5FC322003F0B4FFF3
:104FA0000220FFF799FB002812D03023474C012044
:104FB0002370FFF791FB00280AD02278444B32205F
:104FC0001A7003F0A1FF80213F484901FEF798FCC9
:104FD000404C6679052E00D90026237B3E4F012BDD
:104FE0000CD0002B13D0032B11D83C484830FFF7CE
:104FF0007DFC14237343FB18196E10E0374874309E
:10500000FFF774FC14237343FB18D96D07E0344891
:105010002030FFF76BFC14237343FB18996D2800B5
:10502000FFF783FF14235E43BE19716D2800FFF75D
:105030006BFFC020FFF7F4FB617B1020FFF70EFC35
:10504000A17B1120FFF70AFCE17B1220FFF706FC91
:105050007F23217C1940237F002B01D0802319431B
:105060001320FFF7FBFB237F14202B71617CFFF7DC
:10507000F5FBA17C0B20FFF7F1FBE17C0C20FFF797
:10508000EDFB217D1520FFF7E9FB617D0A20FFF78D
:10509000E5FBE17D0820FFF7E1FB217E0F20FFF714
:1050A000DDFB617E0E20FFF7D9FBA17E0D20FFF70F
:1050B000D5FBE17E1720FFF7D1FB2B682800DB6CC6
:1050C00000219847F8BDC046000400480C38004055
:1050D0006C0500204812002070990008F099000823
:1050E000709A0008036810B55B6989B2140098478C
:1050F000001B43425841C0B210BD70B50D00060000
:105100000C00C8352178FF2901D1012009E062781F
:105110003000FFF7E7FF002803D00234AC42F1D1A2
:10512000F3E770BD70B51E4D04002B7B1D49012BAC
:1051300019D0002B19D0032B17D84C312000FFF7C2
:10514000DCFF00280DD02000FFF7C6FE6B79052B91
:1051500000D9002314256B43134AD3185B6D984282
:1051600005D001201BE05A31E8E76831E6E7236803
:1051700013215B69200098477F2318402028F0D135
:10518000236829005B6920009847F028E9D123684B
:1051900017215B6920009847431E9841C0B270BD3B
:1051A00048120020709A000870990008024B034AC8
:1051B000803353607047C046709A00086C05002029
:1051C00010B5036801495B69984710BDD72F0000EF
:1051D00070B505002B2916D00AD8A620012956D073
:1051E0005D38002953D0022937D1294B18794EE078
:1051F0002D292AD00AD32E292BD02F292DD1244B6B
:105200000533D87F43E0224B333337E0036821492D
:105210005B6998472B6804005B691F492800984721
:1052200000020443A0B21D4B02B29A4205DC1C4BA3
:105230009A4203DAFC20000200E01800072203B2C1
:10524000D8171040C018C01001E0114BD88CC0B264
:105250001DE00F4BD88C000A19E0124B4900C95AC7
:10526000114B99420CD0114B994205D0104B9942E9
:1052700009D1074B303301E0054B2E33187806E097
:10528000034B2F33FAE72B6828005B69984770BD02
:10529000481200200B2F00000A2F0000FF0300001F
:1052A00000FCFFFF8C9B00080D2F00000E2F00005C
:1052B0000C2F00004079002805D13320024B1856EE
:1052C000431E9841C0B2704748120020014B28335A
:1052D0001878704748120020014B0533D87F70477B
:1052E00048120020014B0533D9777047481200203F
:1052F0000020704703488370012301704270C3701F
:105300007047C04678050020F0B50025334C0700F3
:1053100045712000324B87B060301D7103F096FC60
:1053200090200821C005FEF7EBFA2000703003F052
:1053300082FC2C4E01AC300003F07DFC02233000D7
:1053400063700133A37025700199103003F00CFCD9
:105350003000A5700199203003F006FC300001995F
:10536000303003F001FC01233000637001994030BC
:1053700003F0FAFB80211C488901FEF7C1FA802066
:105380001A4E0121C001FEF7A9FC3000FEF7BCFD5A
:1053900082235B006380E023DB00A38080239B00EB
:1053A0006381F13BFF3BA3812100093B3000238255
:1053B0002580E5802581E581FEF7C8FD802130004C
:1053C0004901FEF7F7FD30000121FEF7E9FD3B68DA
:1053D00001211B683800984707B0F0BD8C9B00087E
:1053E000780500200C9C00080008004800380040A8
:1053F00010B5094B094C1A8910420AD1013CA4B2DC
:10540000002CF8D190200821C005FEF779FA200081
:1054100000E0012010BDC04600380040EA03000053
:1054200070B50C0003F048FB90200821C005FEF782
:1054300069FA0220FFF7DCFF002801D1002442E0D6
:10544000234DFF2C10D82F2C01D940231C4380233F
:105450005B421C43E4B22C700120FFF7C9FF002817
:10546000ECD01B4B1B7818E0AF2302202B70FFF70A
:10547000BFFF0028E2D0FCF78DFC0120FFF7B8FF4A
:105480000028DBD0E4B22B7801202C70FFF7B0FFAE
:105490000028D3D02B78FCF77DFC0220FFF7A8FF73
:1054A0000028CBD0002301202B70FFF7A1FF00289C
:1054B000C4D0074B1C78FCF76DFC90200821C00578
:1054C000E4B2FEF71DFA03F00DFB200070BDC046EC
:1054D0000C38004070B5040090200821C005FEF78C
:1054E00011FA0220FFF784FF002801D100240CE00C
:1054F000074D01202C70FFF77BFF041EF6D0902093
:105500000821C0052B78FEF7FBF9200070BDC046CE
:105510000C38004010B53620FFF7DCFFC824013CF2
:10552000E4B2FCF737FC002CF9D110BD10B53520E2
:10553000FFF7D0FF10BD10B53B20FFF7CBFF10BD2C
:1055400010B503F0B9FA3620FFF7C4FF3A20FFF791
:10555000C1FF3420FFF7BEFF03F0C4FA10BD10B541
:105560003620FFF7B7FF3920FFF7B4FF10BD10B5A5
:1055700004003620FFF7AEFF3320FFF7ABFF0A2011
:1055800003F0D6FC236820001B6C984710BD000078
:1055900070B5050090200E00C0050821FEF7B2F995
:1055A0000220FFF725FF002801D100243BE01F4C1B
:1055B000FF2D08D8EDB225700120FFF719FF002854
:1055C000F3D0237818E02F2302202370FFF710FF79
:1055D0000028EAD0FCF7DEFB0120FFF709FF0028D6
:1055E000E3D0EDB2237801202570FFF701FF0028FA
:1055F000DBD02378FCF7CEFB0220FFF7F9FE002872
:10560000D3D026700220FFF7F3FE0028CDD0012072
:10561000FFF7EEFE041EC8D09020044B0821C00501
:105620001B78FEF76DF9200070BDC0460C380040B5
:1056300010B50C000912C9B20348FFF7A9FFE1B287
:105640000248FFF7A5FF10BD0A2F00000B2F000036
:1056500070B50D00140001000548FFF799FF2900FF
:105660000448FFF795FF21000348FFF791FF70BD45
:105670000E2F00000D2F00000C2F0000C82370B566
:1056800004009B00C5182088044B984205D0A178DF
:105690000434FFF77DFFAC42F5D170BDFFFF000081
:1056A00010B50C001E20FFF773FF2000FEF700FF6F
:1056B00010BD0000F8B50C00160003F0FDF99020B5
:1056C0000821C005FEF71EF90220FFF791FE002811
:1056D0002AD0FF23164D01202B70FFF789FE0028EA
:1056E00022D02B780127FCF755FBA619B4420FD026
:1056F000002302202B70FFF77BFE002814D00D4BF7
:105700000D4A1189394209D1013B9BB2002BF8D1D6
:1057100090200821C005FEF7F3F805E02B782370F0
:10572000FCF738FB0134E1E703F0DCF9F8BDC046D3
:105730000C380040EA03000000380040902070B5AB
:10574000C0050E0008211400FEF7DCF80220FFF768
:105750004FFE002822D07F23114D01202B70FFF730
:1057600047FE2B00002819D02A78310001250D4A68
:105770003419A14209D0087818700B4816892E42B6
:1057800009D1013880B20028F8D190200821C00545
:10579000FEF7B6F802E018780131EAE770BDC046BE
:1057A0000C38004000380040EA03000010B50379CF
:1057B0000C008B4211D0036801715B692721984767
:1057C000002C04D0802149420143C9B202E07F236A
:1057D000010019402720FFF7DBFE10BD70B52D4CEE
:1057E000060023002F331878230030331B78000283
:1057F0001B04C01823002E331B78C018FCF770F868
:10580000FBF712FA23000500002E1ED06279101E4D
:10581000052800D900200C2148431F495031445C21
:10582000052A07D15A1DD07F844201D2001B00E017
:105830002018C4B2D88CFCF753F81849FBF782FB48
:10584000061C2000FCF74CF80AE0E08CFCF748F856
:105850001249FBF777FB0534061CE07FFBF7F8FFE6
:10586000011C301CFBF738FD0D49FBF735FD041C0E
:105870002800FCF735F8011C201CFBF7EDF9FBF7BD
:10588000D3F9020C010AD2B2C9B2C0B2FFF7E0FEEE
:1058900070BDC046481200200C9C00080000C842A1
:1058A0006AB4D14010B504000120FFF797FF2368C8
:1058B00020005B6C984710BD10B504000020FFF776
:1058C0008DFF236820005B6C984710BDF8B505007C
:1058D00000290FD0802151488901FEF713F80520D7
:1058E00003F012FB80214D488901FEF709F864207E
:1058F00003F00AFB10210020FFF74AFE11210120CE
:10590000FFF746FE06210320FFF742FE03211F207A
:10591000FFF73EFE18210D20FFF73AFE8A210E20E8
:10592000FFF736FE3E4C230028331B78022B02D1B2
:105930006E262C2701E09126D32739000420FFF79B
:1059400027FE31000520FFF723FE39000620FFF770
:105950001FFE31000720FFF71BFE23002A331B78B0
:105960001321002B00D04031230029331B78002B5A
:1059700001D0802319432720FFF70AFE2300293393
:105980001B782B71230028331B78022B06D0032BA6
:1059900007D0012B08D12348443007E022481830B3
:1059A00004E02248303001E021485430FFF766FE21
:1059B00023002B3319780B20FFF7EAFD23002C334B
:1059C00019780C20FFF7E4FD230022002D331B780B
:1059D00028321078190010229143022801D11A436D
:1059E00011001120FFF7D4FD01211720FFF7D0FD92
:1059F0006279052A00D900220C235A430D4B20203E
:105A000050339B18197AFFF7C3FD0020FFF7E6FE1D
:105A10002B682800DB6C00219847F8BD000800487F
:105A2000481200208C9D00088C9C00080C9D0008EA
:105A30000C9E00080C9C00080B0010B50321012BE4
:105A400002D0054B323319783F23194001331943F3
:105A50002B20FFF79DFD10BD481200202C4B2D4A36
:105A600030B51A621A0028321478180019001A008A
:105A70002B302C312D32022C07D0032C09D0012CD5
:105A80000BD10C2404704B200AE00524047026205E
:105A900006E00D240470662002E00B2404704C2004
:105AA0000870422111701900002229310A705979B9
:105AB000042903D0052904D1174A00E0174ADA84E3
:105AC00004E01748D884052900D911000C221C00D5
:105AD0004A4314482E348118496D503021701C00FF
:105AE0000D0A2F3425701C00090C30342170190068
:105AF0008218127A31310A701A0001212A3211708B
:105B00001A00363132321170002233331A7030BD30
:105B100048120020857B6304A26100008813000006
:105B2000371300000C9C00080A4B5A79052A00D94B
:105B300000220C235A43084B042050339B181A7A36
:105B40000F231340043BDBB2072B02D8034A5C321D
:105B5000D05C7047481200200C9C00088C9E000806
:105B600070B505000800FBF773FE0949FBF7B4FBAD
:105B70000849FBF7E7F9041C2800FFF7D5FFFBF7FE
:105B800067FE211CFBF7A8FBFBF740FE00B270BDCF
:105B9000405DC64480961843F8B50600885C8F18AF
:105BA00015007C78FF220F2800D9A0E0FAF782FECA
:105BB0000882182D384A5D707D849D889D9D95983A
:105BC000002C00D191E04B4A1179A14200D18CE028
:105BD000002B00D089E014711022474B1A7184E029
:105BE00033680B215B6930009847072C00D1063CD5
:105BF0003823E40098431C400443E4B221000B2006
:105C0000FFF7C6FC3B4B2B336EE03A4B640023346A
:105C100032331C7033680021DB6C3000984764E03D
:105C2000336830005B690C21984740239843C6B223
:105C3000002C00D01E4331000C20FFF7A9FC2D4B97
:105C40002C3310E0336830005B6911219847202322
:105C50009843C6B2002C00D01E4331001120FFF73C
:105C600097FC244B2D331E703FE0336827215B697E
:105C70003000984740239843C1B2002C00D019430C
:105C80002720FFF785FC631E9C411A4B2A332BE02B
:105C9000184B1A002E3214701A00B9782F32117076
:105CA000FA7830331A702A1D20E0BB781B021C19C9
:105CB000104BDC84EA1C19E00E4B0533DC7714E052
:105CC000E10064B2002C02DAF8231B0219433368A6
:105CD00009B25B6B3000984707E0064B333303E0B3
:105CE000631E9C41034B29331C70AA1CD2B21000C6
:105CF000F8BDC0464812002078050020F8B517000E
:105D000004000D001E000022BA4209D2330029000F
:105D10002000FFF741FF021EFF2AF5D1002005E019
:105D20000020FFF75BFD02F067FB0120F8BD10B516
:105D300040212820FFF72CFC02212620FFF728FC19
:105D400010BD0000F0B5644C0025A5440593B2AB2E
:105D50001B780400100003930791FBF7C1FD5F4916
:105D6000FBF7BAFA011C04905D48FBF7C9FB5D49DB
:105D7000071C0498FAF770FF061C311C381CFAF750
:105D800049FF002807D0301C0499FAF765FF013558
:105D9000061CADB2F1E796222B1C5200954200D9A9
:105DA000131C9BB20693002306999AB28A4204D22E
:105DB000580016A942520133F6E7039B002B01D18C
:105DC00001330393039B5F080025069AABB293420D
:105DD00001D3002664E0280002F0A0FE80B216ABDA
:105DE0006A004000D15A1E5A0135D6521952ECE7CA
:105DF000730016AA985A0130FBF72AFD0499FBF7A5
:105E00006BFA3849FAF728FF3749FBF765FAFAF7D2
:105E10000BFF020C010AD2B2C9B2C0B2FFF718FCE4
:105E2000236820005B6C9847022003F06DF8059B07
:105E3000002B0AD02000FFF77AFF236820005B6A5E
:105E40009847236820009B6A9847002003F058FA7F
:105E5000059B002B29D11A0009A953540132322A7B
:105E6000FAD1002F30D00025002301350193009393
:105E70000133322209A91800EDB200F07FFCAF42D5
:105E8000F2D1002003F050FA236820005B6A9847A3
:105E90007B23039A0136981A03F036F803F0AAF828
:105EA000069AB3B29A42A3D803E0039803F02CF801
:105EB000E7E7079B002B87D1BFF34F8F0B4A0C4BB3
:105EC000DA60BFF34F8FFEE70123019700971800B8
:105ED00000F054FCD5E7C0464CFDFFFFCDCCCC3DD7
:105EE000000068440080614430CACC450400FA05D3
:105EF00000ED00E013B504AC2478002A02D0009431
:105F0000FFF720FF13BD000070B51D000F4B04000C
:105F10005879597128331A70884201D002F048FA32
:105F2000236820001B6D9847002D01D002F064FA11
:105F30002368012120001B68984723689D6CFEF7A9
:105F4000B1FA01002000A84770BDC04648120020E9
:105F500070B50E4C05002379002B0BD0013BDBB252
:105F60002371002B06D10A4B197903689B6C984763
:105F700002F042FAE378002B07D000236278E37046
:105F80002178A3782800FFF7BFFF70BD78050020B7
:105F90004812002010B50A4B040058795971283373
:105FA0001A70884201D002F003FA236820001B6DAA
:105FB0009847236800211B682000984710BDC04601
:105FC00048120020F0B50026A7B0029203932CAB34
:105FD0009E572DAB1B7804005BB204932EAB1F7849
:105FE0002FAB1B7808000593FBF77AFC5749FBF7AA
:105FF00073F9FAF719FE029B0500022B0CD0544BE3
:10600000039A59792000FFF7C5FF2A0C290AD2B25A
:10601000C9B2E8B2FFF71CFB039B022B0FD1C421CE
:106020001320FFF7B5FA7A211420FFF7B1FAE12126
:106030001520FFF7ADFA48210A20FFF7A9FA7600EC
:1060400031003F23233119400E0040212B203143E2
:10605000FFF79EFA236820005B6C9847022002F04D
:1060600053FF03263800BD08304006D001384342B4
:1060700043410520C31A02930BE0049B002B08D078
:1060800019005131C9B21720FFF782FA0123029695
:1060900063710027FF2002F041FD06AEB8550137BD
:1060A000802FF7D102980138042804D8FAF702FCAF
:1060B0000803321A260003212648FFF769FA0CE08C
:1060C0002000FFF734FE23682000DB6980223100C6
:1060D0009847236820005B6A9847236820009B6AE2
